:1000000012C03BC03AC04CC238C0D2C136C035C0A5
:1000100034C033C032C031C030C02FC02EC02DC05C
:100020002CC02BC02AC011241FBECFEDCDBF10E0C5
:10003000A0E6B0E0EEE1F5E002C005900D92AC362E
:10004000B107D9F720E0ACE6B0E001C01D92A637B9
:10005000B207E1F7F894A89584B7877F84BF81B58C
:10006000886181BD11BCC19AB19904C0C198EFE605
:10007000F3E00994C198EAD050C2C2CFF894D09A64
:1000800080EA8A95F1F7D0988AE18A95F1F700C065
:1000900078940895F894D09A80E18A95F1F7D098F1
:1000A0008AEA8A95F1F700C078940895F894D09A76
:1000B0008FEB93E00197F1F700C00000D0989AEB26
:1000C0009A95F1F700C089B380958170E3E3F3E07E
:1000D0003197F1F700C0000078940895F894D09A11
:1000E00080E18A95F1F7D09898E19A95F1F789B374
:1000F00092E99A95F1F700C0789481700895CF93B2
:10010000DF93D82FC8E0D0FF02C0C4DF01C0B6DF44
:10011000D695C150C1F7DF91CF910895CF93DF936A
:10012000D8E0C0E0C695DADF8111C068D150D1F7C0
:100130008C2FDF91CF91089598E0282F262720FD5E
:1001400003C07695679505C028E162277695679587
:1001500060688695915089F7862F0895CF92DF9237
:10016000EF92FF920F931F93CF93DF93CDB7DD27CD
:10017000C950CDBF9BDF8CECC2DF84E4C0DFAEDFB3
:100180008823E9F393DF8CECBADF8EEBB8DF8E01C6
:100190000F5F1F4F6E018AE0C80ED11C7801BEDFD1
:1001A000F70181937F01EC15FD05C9F77E01F9E0A8
:1001B000EF0EF11C60E070E0F80181918F01BCDF6F
:1001C000682F70E00E151F05B9F7898590E0681754
:1001D000790759F489819A816AE070E06DD124E051
:1001E000959587952A95E1F702C088EC90E0C75F66
:1001F000CDBFDF91CF911F910F91FF90EF90DF90D6
:10020000CF900895CF93DF939C01C3E7D0E064E6DD
:1002100070E06FD1FB01FF27E05AFF4F8081888398
:10022000EAE0F0E0C901BF0164D19C01CB01BF014C
:1002300060D1FC01E05AFF4F80818983F901E05AC7
:10024000FF4F80818A83DF91CF9108958DEF87BB27
:10025000D19A81B38C6181BB12BA8FB581608FBD99
:100260008EB58A6C8EBD89B7886889BF80B7826178
:1002700080BF83B7846083BF789438EEE32E33E089
:10028000F32EBB24BA94DD24D3940FEF1FEF43E089
:10029000C42E52E1A52E62DFEC01B7012AD12091D4
:1002A000700030917100820F931F909371008093C2
:1002B000700020916F002F3061F424E096958795AF
:1002C0002A95E1F79FDF1092710010927000B092B2
:1002D0006F0080916F008F5F80936F00C03D27E0BB
:1002E000D20779F4D092720080916A0090916B00ED
:1002F000019621F410926B0010926A008D9AC6BE8E
:10030000CACF20916D0030916E0091E0263282E0DC
:10031000380708F090E081E0C63242E0D40708F0E8
:1003200080E098130CC091E02732324008F490E04E
:1003300081E0C73222E0D20708F480E09813D0921F
:100340007200D0936E00C0936D00C13E41E0D407AF
:1003500098F480917200882309F49DCF80916A00FF
:1003600090916B00019609F096CF10926B0010925D
:100370006A008D9AA6BE8FCFCA3842E0D40768F0D3
:1003800080917200882309F486CF80916A00909151
:100390006B00019609F07FCFADCFCB5ED140C53960
:1003A000D10508F078CF10936B0000936A0073CFEB
:1003B0001F920F920FB60F9211242F933F934F93DA
:1003C0006F937F938F939F93EF93FF9382B3837683
:1003D00082BBE0916C00F0E0ED58FF4F808180958A
:1003E00088BB8BB385708BBB8BB390916C009130C5
:1003F00011F490E001C092E0892B8BBB42B3809155
:100400006C0024E030E0281B310981E090E001C05D
:10041000880F2A95EAF7842B82BB80916C008F5F4E
:1004200063E05BD090936C0080917200882319F197
:1004300080916A0090916B008032934049F491B3AF
:1004400080E2892781BB10926B0010926A0007C07E
:1004500080916A0090916B00019609F48D988091CB
:100460006A0090916B00019669F080916A0090910A
:100470006B00019603C08D988FEF9FEF90936B00F8
:1004800080936A00FF91EF919F918F917F916F917F
:100490004F913F912F910F900FBE0F901F90189585
:1004A0001F920F920FB60F921124109272000F90AC
:1004B0000FBE0F901F9018950024552704C0080EFA
:1004C000591F880F991F009729F076956795B8F303
:1004D0007105B9F7802D952F0895991B79E004C017
:1004E000991F961708F0961B881F7A95C9F7809573
:1004F0000895AA1BBB1B51E107C0AA1FBB1FA6176B
:10050000B70710F0A61BB70B881F991F5A95A9F7BC
:0E05100080959095BC01CD010895F894FFCF21
:0C051E007F0EB79FCEDBFB0FFFDFFFFF5F
:00000001FF
