:200000000C9491010C94AE010C94AE010C94AE010C94AE010C94AE010C94AE010C94AE0185
:200020000C94AE010C94AE010C94AE010C94AE010C94AE010C94AE010C94AE010C94AE0148
:200040000C94AE010C94AE010C94AE010C94AE010C94AE010C94AE010C94AE010C94AE0128
:200060000C94AE010C94AE0106090906384C544438304F4F3000000000000000005F000013
:2000800000000700070000147F147F1400242A7F2A120023130864620036495522500000C5
:2000A0000003000000001C224100000041221C000014083E08140008083E080800005030EB
:2000C0000000000808080808000060600000002010080402003E5149453E0000427F40009E
:2000E000004261514946002141454B31001814127F10002745454539003C4A494930000313
:200100007109050300364949493600064949291E0000363600000000563600000008142201
:20012000410000141414141400004122140800020151090600324979413E007E1111117E96
:20014000007F49494936003E41414122007F4141413E007F49494941007F09090901003EF8
:200160004141497A007F0808087F0000417F4100002040413F01007F08142241007F404045
:200180004040007F020C027F007F0408107F003E4141413E007F09090906003E4151215E89
:2001A000007F091929460046494949310001017F0101003F4040403F001F2040201F003F1F
:2001C0004038403F00631408146300070870080700615149454300007F4141000002040812
:2001E0001020000041417F00000402010204004040404040000001020400002054545478E6
:20020000007F4844443800384444442000384444487F00385454541800087E0901020018B6
:20022000A4A4A47C007F080404780000487D4000000000847D00007F102844000000417F8E
:200240004000007C04780478007C0804047800384444443800FC242424180018242428FCA6
:20026000007C0804040800485454542000043F444020003C4040207C001C2040201C003C53
:200280004030403C004428102844001CA0A0A07C004464544C440000083641000000007F88
:2002A000000000004136080000100808100800000000000000205454D4780038444645204C
:2002C00000385454D4180000497F4400007C08060578003844464538004854565520004455
:2002E00064564D44004464554C44007E1111917E003C42464324007F4949C941007F50481A
:200300004440007E040B107E003C4246433C004C52565322004266534A46004262534A4680
:20032000000011241FBECFEFD8E0DEBFCDBF11E0A0E0B1E0EEE7F0E102C005900D92A83591
:20034000B107D9F723E0A8E5B1E001C01D92A43CB207E1F70E9477040C943D080C94000071
:20036000209A80EA8A95F1F720988AE18A95F1F700C00895209A80E18A95F1F720988AEA7D
:200380008A95F1F700C00895209A8FEB93E00197F1F700C0000020989AEB9A95F1F700C0FE
:2003A00083B180958170E3E3F3E03197F1F700C000000895209A80E18A95F1F7209898E10A
:2003C0009A95F1F783B192E99A95F1F700C081700895CF93DF93D82FC8E0D0FF03C00E943B
:2003E000BA0102C00E94B001D695C150B1F7DF91CF910895CF93DF93D8E0C0E0C6950E9473
:20040000DA018111C068D150C9F78C2FDF91CF91089598E0282F262720FD03C0769567953B
:2004200005C028E162277695679560688695915089F7862F08950E94C4018CEC0E94E9015D
:2004400084E40C94E901CF92DF92EF92FF920F931F93CF93DF93CDB7DEB729970FB6F89474
:20046000DEBF0FBECDBF0E94C4018CEC0E94E9018EEB0E94E9018E010F5F1F4F6E018AE0D2
:20048000C80ED11C78010E94FA01F70181937F01EC15FD05C1F77E01F9E0EF0EF11C60E09A
:2004A00070E0F80181918F010E940902682F70E00E151F05B1F7898590E06817790781F4DC
:2004C000A981BA8124E630E00E942F08DC01CB0124E0B695A795979587952A95D1F702C0FF
:2004E00085E590E029960FB6F894DEBF0FBECDBFDF91CF911F910F91FF90EF90DF90CF9020
:200500000895EF92FF920F931F93CF93DF9300D000D01F92CDB7DEB7FE01319625E0DF01EF
:200520001D922A95E9F7219A299ABFEF20E732E0B15020403040E1F700C000002998A7EE69
:20054000B3E01197F1F700C00000299A2198BAE6BA95F1F700C0199B02C08FEF64C025ED7B
:200560002A95F1F70000199BF8CF35ED3A95F1F700008E010A5F1F4FEE24E394F12C27E06D
:2005800030E040E0A9ECB0E0199903C01197E1F7E4CF50E55A95F1F7199B07C0D701022ECF
:2005A00001C0AA0F0A94EAF74A2BA9ECB0E0199B03C01197E1F7D1CF2150310918F7419383
:2005C0000E171F07E1F6219A299ABFEFE0E7F2E0B150E040F040E1F700C0000049815A81A6
:2005E0005427452754272B813C81322723273227F981EA81EF0FFB81EF0FFC81EF0FFD81DE
:20060000EF13ABCF37FF08C03F77319521953109DC012D933C9303C0FC0131832083DB0195
:200620004D935C9380E00F900F900F900F900F90DF91CF911F910F91FF90EF900895CF9343
:20064000DF9300D0CDB7DEB71A821982BC01CE0101960E9481020F900F90DF91CF91089515
:200660008BE591E00E941F0341E06091670189E691E00C94750760EF7AE080915D01909126
:200680005E010E94E20490935A018093590140E06091680189E691E00E94750740E06091FF
:2006A000670189E691E00E94750741E06091CB0189E691E00C9475078F929F92AF92BF9216
:2006C000CF92DF92EF92FF920F931F93CF93DF93CDB7DEB761970FB6F894DEBF0FBECDBFB6
:2006E00020915D0130915E010AE010E0C901B8010E940C089F938F93CB01B8010E940C0829
:200700009F938F9384E6C82ED12CC901B6010E940C08CB01B8010E940C089F938F9398EEDC
:20072000892E93E0992EC901B4010E940C08CB01B8010E940C089F938F9382E191E09F93FE
:200740008F93CE0101965C019F938F930E94C30720915B0130915C01C901B8010E940C0890
:200760009F938F93CB01B8010E940C089F938F93C901B6010E940C08CB01B8010E940C0824
:200780009F938F9388E191E09F938F937E019EE0E90EF11CFF92EF920E94C307209159014D
:2007A00030915A01C901B8010E940C089F938F93CB01B8010E940C089F938F93C901B60180
:2007C0000E940C08CB01B8010E940C089F938F93C901B4010E940C08CB01B8010E940C0864
:2007E0009F938F93C90160E177E20E940C087F936F938FE191E09F938F936E0188E0C80E95
:20080000D11CDF92CF920E94C3070FB6F894DEBF0FBECDBF0E940F0601E024E040E060E06A
:2008200081E790E00E94A10640E066E0C5010E94240624E040E064E288E690E00E94A1060E
:2008400040E069E285E291E00E94240625E041E060E08CE690E00E94A10641E066E0C701C9
:200860000E94240644E060E087E291E00E94240644E06EE1C6010E9424060E94F00640E0E4
:200880006091CB0189E691E00E94750761960FB6F894DEBF0FBECDBFDF91CF911F910F913F
:2008A000FF90EF90DF90CF90BF90AF909F908F90089580915801811106C00E941B0281E001
:2008C0008093580108950E94DA01882379F00E94230290935E0180935D010E941B0241E0E4
:2008E0006091680189E691E00C947507089589E691E00E943A0769E574E089E691E00E941E
:200900005A078093680160E373E089E691E00E945A07809367016BE373E089E691E00E94E3
:200920005A078093CB016CE573E089E691E00E945A078093CA016091680120E0462F89E6D4
:2009400091E00E947A076091670120E0462F89E691E00E947A0721E0409168016091CB013A
:2009600089E691E00E947A0721E0409167016091CB0189E691E00E947A0721E04091CB01DC
:200980006091CA0189E691E00E947A070E94EB050E940F0640E060E08DE291E00E94240643
:2009A00041E060E08CE391E00E94240642E060E08AE491E00E9424060E94F00689E691E0A5
:2009C0000E94A907CF92DF92EF92FF920F931F93CF93DF938B01081B190B20E030E0D02FD7
:2009E000C12FF22FE32F8091630190916401A0916501B0916601800F911FA21FB31F811532
:200A000040E19407A105B10524F08FEF9FE0A0E0B0E08093630190936401A0936501B093C2
:200A200066018091630190916401A0916501B09166018130904FAF4FBF4F64F481E090EF41
:200A4000AFEFBFEF8093630190936401A0936501B09366018091630190916401A091650176
:200A6000B091660144E0B595A795979587954A95D1F740915F01509160016091610170916E
:200A8000620168017901C41AD50AE60AF70AB701A601689413F8440F551F661F771F169470
:200AA000D1F7689413F875956795579547951694D1F700935F011093600120936101309358
:200AC00062010D2F1C2F2F2F3E2F0115E0E11E072105310524F00FEF1FE020E030E0811552
:200AE000E0E19E07A105B10564F48130E0EF9E07EFEFAE07BE074CF481E090EFAFEFBFEFF3
:200B000004C08FEF9FE0A0E0B0E04115E0E15E076105710564F44130E0EF5E07EFEF6E075C
:200B20007E074CF441E050EF6FEF7FEF04C04FEF5FE060E070E0800F911FA21FB31F840F8E
:200B4000951FA61FB71FB595A79597958795811528E09207A105B10564F4813048EF94070A
:200B60004FEFA407B4074CF481E098EFAFEFBFEF04C08FEF97E0A0E0B0E08150984FAF4FDE
:200B8000BF4FDF91CF911F910F91FF90EF90DF90CF9008955D98882311F05A9A18C05A984F
:200BA00016C0962F982311F05B9A01C05B985C9A000000000000000000000000000000003F
:200BC0005C9886952150310961F75D9A089528E030E080E8E6CF549A539A529A559A8FE213
:200BE00095E70197F1F700C000005D9A61E280E00E94CA0563E180E00E94CA0566E080E073
:200C00000E94CA0565EA80E00E94CA0560E280E00E94CA056CE080E00E94CA0508952CEC5E
:200C200031E042ED51E00AC010823696E817F907D9F72F5F3F4F4217530729F0C9018850C2
:200C40009E4FF901F1CF0895DF92EF92FF920F931F93CF93DF93CDB7DEB762970FB6F89442
:200C6000DEBF0FBECDBF8C0182E1E0E0F1E0DE01119601900D928A95E1F7F8012081A22FE5
:200C8000B0E0109709F44FC0E980F12CD12C70E050E03BC09F5F923131F0219130E02A172E
:200CA0003B07C1F73AC09D01220F331F2A0F3B1F220F331FF901EB54F0408D2D90E0DC0199
:200CC000AA0FBB1F8A0F9B1F880F991F860F971FDC01AA0FBB1FA80FB91FAA0FBB1FA40F4F
:200CE000B51FA453BE4F2554304084918C9331961696E217F307C9F7D394F801ED0DF11D71
:200D00002081A22FB0E0109771F0EA16FB0621F0FE01329691E0C1CF90E0292F30E0D9013D
:200D2000A058BF4FC0CF62960FB6F894DEBF0FBECDBFDF91CF911F910F91FF90EF90DF9042
:200D40000895BF92CF92DF92EF92FF920F931F93CF93DF937C01C02ED12CC114D104B1F1E5
:200D6000862F90E0BC01660F771F860F971F880F991FBC01640F711DAB0144535E4FC22F4D
:200D8000D0E08E01000F111F0C0F1D1F000F111F80E090E060E070E00FC0B490BC923196B7
:200DA0001696A217B307C9F76C0F7D1F01964F5F5F4F8C159D0551F02097C1F3F701E60F6E
:200DC000F71F9A01200F311FDA01E7CFDF91CF911F910F91FF90EF90DF90CF90BF9008956A
:200DE000DF92EF92FF920F931F93CF93DF930F2EFCECEF2EF1E0FF2EF02DD12C6D2D606490
:200E000080E00E94CA0560E880E00E94CA05870108501E4FE701688181E00E94CA0526963C
:200E2000C017D107C1F7D3948FEFE81AF80A86E0D812E4CFDF91CF911F910F91FF90EF9031
:200E4000DF90089548E050E062E070E00E9436080895CF93DF93EC01FC011192CF0148E0C6
:200E600050E062E070E00E9436081A861986DF91CF910895EF92FF920F931F93CF93DF93EA
:200E80007C010E942207E70128968701005A1F4FCE010E9429072B96C017D107C9F7F7014B
:200EA000E05AFF4F1082DF91CF911F910F91FF90EF9008959C01FC01E05AFF4F8081883072
:200EC00098F4F9019BE0899FE00DF11D1124728B618BD901A80FB11D1C928087F901E05A88
:200EE000FF4F91E0980F90830895860F911DFC01408308953BE0639F800D911D1124FC01B2
:200F0000E40FF11D21870895DC012BE0629FA00DB11D11241996FC019C01285F3F4F9D9166
:200F2000923019F08081981306C03196E217F307B1F781E0089580E008952BE0629F800D7E
:200F4000911D1124DC015196ED91FC915297099508958C017C0180E6E80EF11CF70180814F
:200F60008823E1F3C0E06C2FC8010E948407882321F06C2FC8010E949D07CF5FF701808134
:200F8000C81788F3EBCF0F931F93CF93DF93CDB7DEB76F81788509851A85DE011B9691E0E1
:200FA00020E027C0853249F4FB01E30FF11D8C91805D80832F5F12961BC0843241F4FB0165
:200FC000E30FF11D8C9180832F5F129611C0863251F4F801E40FF51F8181FB01E30FF11DEF
:200FE00080832E5F05C0FB01E30FF11D80832F5F9F5F3FEF390F422F50E0F801E40FF51FFA
:2010000080818111CFCFFB01E30FF11D1082DF91CF911F910F910895AA1BBB1B51E107C0C0
:20102000AA1FBB1FA617B70710F0A61BB70B881F991F5A95A9F780959095BC01CD010895BF
:20104000A29FB001B39FC001A39F700D811D1124911DB29F700D811D1124911D08950E94BD
:201060002008B7FF0895821B930B0895DC0101C06D9341505040E0F70895F894FFCFB9E6F1
:20108000EAB3F1F39C9FBFA5C6CAA3D1D38C8FAF25252E25250025252E2526250025252576
:2010A00025250043007069643A20005363686564756C65722074657374006E353131302038
:1610C0006C6364206C696200526561642074656D702068756D00D4
:00000001FF
