:1000000009C022C020C06CC01EC01DC0A9C01BC03A
:1000100042C019C011241FBECFE9CDBF10E0A0E639
:10002000B0E0EAE4F2E002C005900D92A236B1071A
:10003000D9F720E0A2E6B0E001C01D92A137B207D7
:10004000E1F78CD000C1DCCF1F920F920FB60F9258
:1000500011242F933F934F935F936F937F938F93CD
:100060009F93AF93BF93EF93FF93E0916F00F09155
:1000700070000995FF91EF91BF91AF919F918F9182
:100080007F916F915F914F913F912F910F900FBE94
:100090000F901F9018951F920F920FB60F92112478
:1000A0008F939F93AF93BF9380916B0090916C005F
:1000B000A0916D00B0916E000196A11DB11D8093BD
:1000C0006B0090936C00A0936D00B0936E00BF9195
:1000D000AF919F918F910F900FBE0F901F90189529
:1000E0001F920F920FB60F9211248F939F93AF938D
:1000F000BF938091670090916800A0916900B091D2
:100100006A000196A11DB11D80936700909368005D
:10011000A0936900B0936A00BF91AF919F918F91B6
:100120000F900FBE0F901F90189583B7826083BF0A
:100130008FB583608FBDF894A89580E481BD7894D5
:1001400013BE83B7826083BF89B7826089BF12BE46
:10015000789417B886B1826886B90895E6DFFFCF34
:100160001F920F920FB60F9211242F933F934F932C
:100170005F936F937F938F939F93AF93BF93CF932F
:10018000DF931F92CDB7DD272091600081E090E0E2
:1001900001C0880F2A95EAF786BB809162004091E2
:1001A000630050916400609165007091660090E07A
:1001B000A0E0B0E0481759076A077B07C0F48FEF4B
:1001C000898389B78B7F89BF89818F3FC9F1298155
:1001D000263050F437B381E090E001C0880F2A95B3
:1001E000EAF78095832387BB8FEF8093600020918F
:1001F00062008091630090916400A0916500B091CD
:100200006600821B9109A109B10980936300909354
:100210006400A0936500B093660012BE0F90DF915A
:10022000CF91BF91AF919F918F917F916F915F918E
:100230004F913F912F910F900FBE0F901F901895E7
:0A02400020916000C5CFF894FFCFB5
:02024A00FF00B3
:00000001FF
