S01400007374373932305F74657374302E7372656308
S11300000C94B4010C94D1010C94D1010C94D10141
S11300100C94D1010C94D1010C94D1010C94D10114
S11300200C94D1010C94D1010C94D1010C94D10104
S11300300C94D1010C94D1010C94D1010C94D101F4
S11300400C94D1010C94D1010C94D1010C94D101E4
S11300500C94D1010C94D1010C94D1010C94D101D4
S11300600C94D1010C94D101083E22223E08087F51
S11300702214087F7F0814227F087F7F00007F7F7F
S113008000586404645800807C40403C22222222B0
S1130090223E3E222222222208080808080838406C
S11300A04030404030404030403800807E01493686
S11300B000062979290600000000000000607E0A7D
S11300C0353F002A1C361C2A00E0514F41FF007FB7
S11300D0404040FF007F407F40FF00E0544C44FC20
S11300E00018247E2418007C404040FC007C407CA6
S11300F040FC0014B6FFB6140004067F060400108A
S1130100307F30100008083E1C0800081C3E080818
S113011000784040404000083E083E0800303C3F24
S11301203C3000030F3F0F030000000000000000FC
S1130130005E000000000600060000287C287C28E1
S1130140004854D6542400422018044200344A5A29
S1130150245000000A060000000018244200000099
S1130160422418000014083E08140010381000003F
S11301700000A060000000101010100000000040FB
S11301800000000060180600003C464A523C000093
S1130190447E400000645252524C0024424A4A3485
S11301A0001814527E50002E4A4A4A32003C4A4AF1
S11301B04A3200020262120E00344A4A4A34004CA7
S11301C05252523C00000024000000004024000071
S11301D000102844000000002828280000004428BB
S11301E01000000402520C00007C82BAA65C007C61
S11301F01212127C007E4A4A4A3C003C424242248B
S1130200007E4242423C007E4A4A4A42007E0A0A3A
S11302100A02003C424A4A3A007E0808087E00006E
S1130220427E420000224242423E007E081824429E
S1130230007E40404040007E0408047E007E0408A6
S1130240107E003C4242423C007E1212120C003CE2
S11302504252225C007E1212324C00244A4A52243A
S11302600002027E0202003E4040403E001E20404A
S1130270201E003E403C403E00422418244200021E
S11302804C704C020066524A46620000007E4200F6
S1130290000006186000000000427E000000040216
S11302A004000040404040400000020400000020E0
S11302B054545438007E4444443800384444442858
S11302C000384444447E00385454541800087C0ACE
S11302D00A000098A4A4947C007E0808087000001A
S11302E0487A4000004080887A00007E106844000C
S11302F00000427E4000007804780478007804040A
S11303007C0000384444443800FC24444438003819
S1130310444424FC00007804040800485454542045
S113032000043E442400003C4040207C001C20404B
S1130330201C003C4030403C004428102844008CE1
S11303409060100C004464544C4400000836410092
S1130350000000FE00000000413608000008082AE2
S11303601C08003C2623263C11241FBECFEFD8E0F6
S1130370DEBFCDBF11E0A0E0B1E0E8EAF7E002C0E3
S113038005900D92AE30B107D9F725E0AEE0B1E0AB
S113039001C01D92AE30B207E1F70E946A020C94CC
S11303A0D2030C9400005A9A529A5D98559A6AD0D6
S11303B064D05A9867D080FD5A9A80FF5A9862D0C8
S11303C05A9860D067FD5A9A5DD05A9866FD5A9A39
S11303D059D05A9865FD5A9A55D05A9864FD5A9A3C
S11303E051D05A984AD05A9863FD5A9A4BD05A9889
S11303F062FD5A9A47D05A9861FD5A9A43D05A9846
S113040060FD5A9A3FD05A9838D059D05AD008959E
S11304105A9A529A5D98559A35D02FD05A9A32D01A
S113042080FD5A9A80FF5A982DD05A982BD067FD98
S11304305A9A28D05A9866FD5A9A24D05A9865FD3B
S11304405A9A20D05A9864FD5A9A1CD05A9815D0BA
S11304505A9863FD5A9A16D05A9862FD5A9A12D045
S11304605A9861FD5A9A0ED05A9860FD5A9A0AD049
S11304705A9803D024D025D0089504D003D002D0B4
S113048001D008955D9A5D9A5D98089503D002D0D5
S113049001D000D000D003D002D001D000D000D0D1
S11304A003D002D001D000D000D003D002D001D0BC
S11304B000D000D003D002D001D000D000D003D0AF
S11304C002D001D000D000D003D002D001D000D09F
S11304D000000895CF93DF93CDB7DEB72C970FB606
S11304E0F894DEBF0FBECDBF0E944F0260E380E0F0
S11304F00E94D3010E945D0260E380E00E94D30168
S11305000E945F026CE080E00E94D3010E945D02C1
S113051061E080E00E94D3010E94530264E080E025
S11305200E94D3010E94590264E380E00E94D30137
S11305300E945E0266E380E00E94D3010E945002A2
S113054080E00E94DC020E949B030E9446020E94FB
S1130550CB020E949B030E944F028CE0E2E0F1E098
S1130560DE01119601900D928A95E1F78981882325
S113057069F010E00E9485031F5FE1E0F0E0EC0FFA
S1130580FD1FE10FF11D80818111F4CF0E94500203
S11305900E949B03FFCFEEE0F1E02EE035E008C0BF
S11305A01192E817F907E1F7FC012817390719F048
S11305B0CF014096F5CF08954EE051E030E00CC0F5
S11305C0811101C090839F5F31969213F9CF3F5FF1
S11305D0405F5F4F303441F0232F2695269591E0FC
S11305E0920F2F5EFA01ECCF08954F925F926F92B3
S11305F07F928F929F92AF92BF92CF92DF92EF92AF
S1130600FF920F931F93CF93DF934C01B62E862F47
S113061090E00696813891050CF066C0842F90E036
S11306200896813491050CF05FC0A42EE12CF12CC6
S1130630A1E0B0E056E0560FC62FD0E02E014818D6
S1130640590807E010E09A2F0E2C01C0990F0A9464
S1130650EAF7F4018B2D20E1A29EB0011124625F20
S11306607E4F92012E0F3F1F332314F4295F3F4F17
S1130670359527953595279535952795482F4770B6
S1130680D490D92299F46B01C20ED11C9801241B79
S11306903109ED0102C0CC0FDD1F2A95E2F79E015E
S11306A02095E60138812323288311C06B01C20EF3
S11306B0D11C9801241B31093D0102C0660C771C32
S11306C02A95E2F79301E6013881232B28838F5F73
S11306D031968513C6CFDFEFED1AFD0AA39428E007
S11306E0E216F10409F0AFCFDF91CF911F910F9182
S11306F0FF90EF90DF90CF90BF90AF909F908F903E
S11307007F906F905F904F90089590E09C01220F2E
S1130710331F820F931F880F991F4091000160912E
S1130720010188599F4F0E94F502809101018A5F5F
S1130730809301010895FF920F931F93CF93DF934A
S1130740CEE0D1E0F12C8FE18F1550F06F2D606871
S113075080E00E94D30160E880E00E94D30118C0C9
S113076060EE6F0D606880E00E94D30168E880E06D
S11307700E94D3010DC0699181E00E94D301C0178A
S1130780D107C9F7F394E80180E4F812DCCF04C080
S11307908E01005F1F4FEFCFDF91CF911F910F911B
S10B07A0FF900895F894FFCFC7
S11107A80101535437393230207465737400E4
S9030000FC
