:100000000EC01BC078C05CC066C017C016C015C04B
:1000100014C013C012C011C010C00FC00EC01124F4
:100020001FBECFEDCDBF20E0A0E6B0E001C01D9225
:10003000A836B207E1F71FD098C0E2CF84E088BBB2
:1000400085E087BB089585E58DBD1EBC9BE890BF0C
:1000500094E499BF92E095BB9BB790629BBF80935D
:1000600065007894089588E184BB87E886B983E0C9
:1000700087B9369A0895E2DFF6DFE5DFE1E6F0E0E2
:100080008081918196958795969587959695879588
:100090008EBD809167008F5F893C18F48093670064
:1000A00003C010926700C29A809167008A3009F4F9
:1000B000C2988FE097E20197F1F700C00000E0CF0F
:1000C0001F920F920FB60F921124C0980F900FBE7F
:1000D0000F901F9018951F920F920FB60F92112438
:1000E0008F93C0981FBC84E488BF8F910F900FBE80
:1000F0000F901F9018951F920F920FB60F92112418
:100100008F939F93B1992AC01FBC809160008F5F2D
:1001100080936000843668F48EB5882311F0C09A0D
:1001200001C0C09883E087B980916000813031F0D0
:100130000CC082E087B91092600007C084B195B10D
:10014000909364008093630006C084B195B190934E
:10015000620080936100369A84E488BF9F918F91FA
:0E0160000F900FBE0F901F901895F894FFCFD0
:00000001FF
