S0130000626F6F746C6F61646572302E73726563B6
S113000012C017C016C015C014C013C012C011C04E
S113001010C00FC00EC00DC00CC00BC00AC009C078
S113002008C007C006C011241FBECFEDCDBF02D04B
S10D003002C0E6CF67D3F894FFCFB7
S11306DE12C008955D9BFECF8CB908955F9BFECF2B
S11306EE8CB10895FBDF803219F088E081BDFFCF15
S11306FE8BE3F0DF0895F89411248AB188618AB9E6
S113070E83B1866083B98CE089B982E6E3DF0F2E6C
S113071EF3E0BF2EF02DDD24D3940F2EF5E0CF2E73
S113072EF02DDCDF813499F4D9DF082F10E0000FAF
S113073E111F02951295107F1027007F1027D2DF0C
S113074E82E0C8DF812FC6DF802FC4DF4FC0803523
S113075E09F036C0C3DFC82F88248A94880E912CE2
S113076E81E6880E911C0F2EF0E6EF2EF12CF02D63
S113077EB5DFF70181937F01E815F905C9F7B2DFFB
S113078E80E0A8DF9801F801B0925700E89507B60B
S113079E00FCFDCFF901A0E6B0E08D919D910C0116
S11307AED0925700E8951124C2503296C111F5CF5C
S11307BEF901C0925700E89507B600FCFDCF16C0AC
S11307CE823579F48BDFF82E8DDF8F2D83DFE801F0
S11307DEFE018591EF017EDF8F2DFA948111F8CF02
S11307EE05C0813519F47EDF80E074DF8AE372DFA1
S10507FE98CF8E
S9030000FC
