S01600006D6963726F5F6C61646F776E696B2E737265633C
S11300000EC01BC0C4C0A8C0B2C017C016C015C063
S113001014C013C012C011C010C00FC00EC01124F0
S11300201FBECFEDCDBF20E0A0E6B0E001C01D9221
S1130030AC36B207E1F71DD013C1E2CF84E088BB30
S113004085E087BB089585E58DBD1EBC8BE880BF28
S113005084E489BF82E085BB8BB780628BBF10923A
S113006066007894089587E886B983E087B9369A5C
S11300700895E4DF87E0DFD0F6DF83E0C29A2FEF54
S113008031EE94E0215030409040E1F700C0000090
S1130090C2982FEF31EE94E0215030409040E1F7C8
S11300A000C00000815051F7CEDF8FEF80936800CD
S11300B0C3E0DAE02091630030916400243883E0E7
S11300C0380718F0109266000DC08091610090917D
S11300D06200969587959695879580956C2FB4D0F8
S11300E08093660080916900883C18F48F5F809348
S11300F0690080916B00882321F010926B001092AC
S1130100690080916900811101C0C29A2D3B92E07F
S1130110390788F0C9018C5B9240893C910530F421
S11301208A30910528F48AE090E002C088EC90E0DF
S113013080936A0002C0D0936A0090916900809114
S11301406A00891708F4C2988FE19EE40197F1F7D9
S113015000C0000077D0AECF1F920F920FB60F925F
S11301601124C0980F900FBE0F901F9018951F92E6
S11301700F920FB60F9211248F93C0981FBC84E482
S113018088BF8F910F900FBE0F901F9018951F92EC
S11301900F920FB60F9211248F939F93B19944C07D
S11301A08FB5873408F440C01FBC809166008EBDB3
S11301B0809160008F5F80936000893C48F01092CA
S11301C0600081E08093680080936B0082E001C04E
S11301D083E087B9B49903C086E98093680080916D
S11301E06800882339F0C09880916800815080931A
S11301F0680006C08EB5833010F0C09A01C0C09864
S113020080916000813039F484B195B19093640099
S11302108093630006C084B195B19093620080938B
S11302206100369A84E488BF9F918F910F900FBE2E
S11302300F901F901895A89591B5986191BD88600D
S113024081BD0895A8950895991B79E004C0991F6C
S1130250961708F0961B881F7A95C9F7809508951C
S1070260F894FFCF3C
S9030000FC
