S00F0000706970656B72632E7372656327
S113000009C016C015C015C013C012C011C010C05D
S11300100FC00EC011241FBECFE9CDBF20E0A0E663
S1130020B0E001C01D92AB36B207E1F7FDD088C144
S1130030E7CF1F920F920FB60F921124DF92EF9227
S1130040FF920F931F932F933F934F935F936F935D
S11300507F938F939F93AF93BF93CF93DF93EF934C
S1130060FF93E0916100F09162003D96D0906300AF
S1130070E0906400F09065000091660010916700C4
S1130080D0916800C0916900B0916A002D2D3E2D79
S11300904F2D502F612F7D2F8C2F9B2FA1E02FD11F
S11300A0E93EA3E0FA0758F0E85EF340D22EE32ECF
S11300B0F42E052F162FD72FC82FB92FE7CFF09383
S11300C06200E0936100D0926300E0926400F092D9
S11300D065000093660010936700D0936800C09396
S11300E06900B0936A00FF91EF91DF91CF91BF91C6
S11300F0AF919F918F917F916F915F914F913F91BC
S11301002F911F910F91FF90EF90DF900F900FBEF2
S11301100F901F901895F89420916300309164001B
S1130120409165005091660060916700709168008D
S11301308091690090916A00789408952F923F927B
S11301404F925F926F927F928F929F92AF92BF92E3
S1130150CF92DF92EF92FF920F931F93F894209027
S113016061003090620020916300309164004091FE
S113017065005091660060916700709168008091FD
S1130180690090916A007894E8EEAE2EF3E0BF2EF9
S1130190C12CD12CE12CF12C00E010E079D05101DC
S11301A0A5D01F910F91FF90EF90DF90CF90BF905B
S11301B0AF909F908F907F906F905F904F903F9003
S11301C02F90089570E026B330E0082E02C03595D4
S11301D027950A94E2F7217033272617370799F7F2
S11301E0ADCFAF92BF92CF92DF92EF92FF920F9377
S11301F01F93CF93DF93C82FD62FE4DF59016A01F1
S11302007B018C0161E0D13009F460E08C2FDADFEE
S113021082D0DF91CF911F910F91FF90EF90DF90EB
S1130220CF90BF90AF90089580E886BD86B5836077
S113023086BDBB9A83B7836083BF89B7826089BF59
S113024085B5816085BD85B7877C85BF61E084E025
S1130250C8DF2C3D35404105510561057105810517
S1130260910529F020F081E08093600003C0109292
S11302706000C39850DFE0916000E13039F7A0E0FE
S113028053D021F3B49B02C0C398E0CFC39ADECF0E
S1130290DF93CF939F92A0E49A2E0024D001E00133
S11302A0F00116950795F794E794D794C794B794FB
S11302B0A79448F41068A20FB31FC41FD51FE61FEC
S11302C0F71F081E191E220F331F441F551F661FD8
S11302D0771F881F991F9A9421F79D01AE01BF01D2
S11302E0C00111249F90CF91DF9108952A0D3B1DE9
S11302F04C1D5D1D6E1D7F1D801F911F08950024E0
S1130300A7FD00942A0F301D401D501D601D701D57
S1130310801D901D08952A193B094C095D096E0939
S11303207F09800B910B08950024A7FD00942A17E0
S11303303005400550056005700580059005089559
S1070340F894FFCF5B
S9030000FC
