:100000008FC100009FC100009DC100009BC1000086
:1000100099C100000C94B32295C1000012C70000E2
:1000200091C100008FC100000C94E6180C94972237
:100030000C94A5220C94C01885C1000083C1000057
:100040000C9471227FC100007DC100007BC10000C3
:1000500079C10000F7C6000075C1000073C100003F
:1000600071C100006FC10000E62FF72F903009F436
:100070009395E5B8C4B8B6EFB0937A00A5E0A09325
:100080007B00A8E0A093810010928000AFEFA093C6
:100090008500A0938400A6E0A093360010928B0008
:1000A00010928A00B3E0AFE3A91B51E0392F33303F
:1000B0002AF0A05CBC4F53953350F9CFB093890020
:1000C000A0938800A0917A00A4FFFCCFB6EBB09378
:1000D0007A00A2E0A0936F00A9E0A093810062E003
:1000E000A0E0A0937B00A1E0A09353008895E5B821
:1000F000C4B884FF1AC0A8E10000AA95F1F7EF93F5
:10010000FF93E7B1F8B1A4E0C2FCA2E0C0FCA1E01B
:10011000BF2FBA2BAE2BB8B904B9A7B9E7B9F8B954
:10012000FF91EF910BC00C947300ACE10000000054
:10013000AA95F1F725B9E5B8000004B9A0918400AB
:10014000A0918500B0918900A395AB1760F7A091AD
:100150007A00A4FFF3CFB6EBB0937A006A9571F7FB
:100160006091780070917900308186FD630F619312
:10017000308186FD731F80FF7193652F4A9579F753
:1001800010926F0010928100B6E0B0937A0008954B
:100190000104100102044E6F742063616C69627285
:1001A000617465642120466F72FF63616C696272DD
:1001B0006174696F6E20636C616D70207468652076
:1001C00033FF70696E7320746F67657468657220A1
:1001D000616E64207374617274207769746820742E
:1001E0006865FF6B65792E2041636B6E6F776C6578
:1001F000646765207468652073656C662D7465732B
:1002000074207769746820746865206B657920773D
:10021000697468696EFF32732E20446973636F6E70
:100220006E6563742070696E7320616674657220F8
:10023000746865FF6D657373616765202269736F0C
:100240006C617465FF50726F6265212220697320B2
:1002500073686F776E2E20536F66747761726520B6
:10026000616E6420646F63756D656E746174696F2F
:100270006E2069732061742073766E3A2F2F206D83
:10028000696B726F636F6E74726F6C6C65722E2027
:100290006E65742F7472616E736973746F722074FB
:1002A00065737465722000B903870358032E030732
:1002B00003E402C302A40288020000140029003EE5
:1002C000005300690080009700AE00C600DF00F810
:1002D0000012012D01490165018201A001BE01DE6C
:1002E00001FF012102440268028E02B502DE02090A
:1002F00003350364039403C803FE0337047304B493
:1003000004F90443059305EA054906B3062907AE37
:10031000074808FF08DE09FD0A930C480F991B00E7
:1003200011241FBECFEFD8E0DEBFCDBF21E0A0E09B
:10033000B1E001C01D92A23CB207E1F70E94E12D9D
:100340000C9456355DCE80FD5C9A80FF5C98549A83
:1003500000005D9A559A589859985A985B9864FD90
:10036000589A509A65FD599A519A66FD5A9A529A2E
:1003700067FD5B9A539A00005D9863D387FD10C0B8
:100380005D9A589859985A985B9860FD589A61FD03
:10039000599A62FD5A9A63FD5B9A00005D9851C3B9
:1003A000089580914201809300018091A90180937A
:1003B00002010895909142019F5F90934201682F3E
:1003C00081E0C1DF35D3A89508958F5CF3CF089500
:1003D00080E2F0CF0895A1E0B0E0E1EFF1E00C940D
:1003E000A53418162CF48983F3DF89818150F9CF65
:1003F0002196E2E00C94C1348DE3DCCF0895682FA0
:1004000080E0A1DF15C308951092A90180E8F7DF0D
:1004100010924201089581E08093A90180ECEFDF02
:1004200010924201089582E08093A90184E9E7DFF8
:1004300010924201089583E08093A90184EDDFDFEB
:10044000109242010895982F862F609342019130B7
:1004500011F4805409C0923011F48C5605C09330C9
:1004600011F48C5201C08058CACF089560910001E8
:1004700080910201E8CF089581E0C1DF82E0E3D2FC
:10048000C3CF0895CF93DF93EC018991882311F0B6
:1004900091DFFBCFDF91CF910895CF93DF93EC01F4
:1004A000FE018491982F9F7719F084DF2196F8CF71
:1004B000DF91CF910895CF93DF93EC01CE010E949D
:1004C0002835982F9F7719F075DF2196F7CFDF91A8
:1004D000CF9108950F931F93CF93DF93EC0128964C
:1004E0008C010F5F1F4F0E94283564DFC8010C1775
:1004F0001D07B1F7DF91CF911F910F91089584E10E
:10050000A2D283E37CDF82E37ADF82E09CD280E2C6
:1005100076DF80E274DF88E672DF89E070DF8AE2EE
:100520006EDF88E06CDF86E06ADF82E068DFA4DFF0
:1005300081E089D28CE063DF88E461DF84E690E0CB
:10054000C9DF80E55CDF8CE590E0C4DF88E557DF3C
:100550008CE690E0BFDF88E752DF84E590E0BADF09
:1005600080E74DDF8CE490E0B5DF80E648DF8CE388
:1005700090E0B0DF88E643DF84E390E0ABDF80E427
:100580003EDF84E490E0A6CF08959091420184E19B
:10059000891B21CF0895A1E0B0E0E1EDF2E00C94D9
:1005A000A5348983F2DF9091A9019F5F9093A901FF
:1005B0008981943038F093E09093A90191E0909371
:1005C000450102C010924501682F8091A9013BDFCF
:1005D0002196E2E00C94C134DEDF8EC3089514DF6F
:1005E000D4DF12CF089517DFD0DF15CF0895089517
:1005F0000F9383E891E05FDF40918D014D3F64F4FC
:1006000060917B0170917C0180917D0190917E01D0
:1006100003E026E4EAD002C08FE3CCDE0F91089518
:10062000909120019F70923071F4D6DF84E790E0C2
:1006300042DFE0914301F091440122E044E06FEF9A
:1006400084819581BBC1089597FF09C08F939F93C3
:100650008DE2B0DE9F918F91909581959F4F68E2DA
:1006600071E04AE050E00E94F5340CCF0895ECDFD1
:1006700001C0EADFADCE0895EF92FF920F931F9372
:10068000182F062FF42E82E791E015DFEE24E0917B
:100690004301F09144018685E81611F4812F09C0C9
:1006A0008485E81611F4802F04C08585E81611F4BE
:1006B0008F2D80DEE3948E2D833049F71F910F91AB
:1006C000FF90EF900895682F80E092E0662309F490
:1006D00091E0623009F481E008950F93082FEAEA6F
:1006E000F1E0880F880FE80FF11D60817181828130
:1006F0009381643671058105910570F420910101A3
:1007000027FD0AC0802FDFDF692F0E94271E6EEFB2
:1007100023E044E053D104C04FEF04E024E065D06F
:1007200057DE0F910895863058F4EDE9F1E0E80FB7
:10073000F11DE80FF11D8081918163E04AD148CE1F
:1007400008951F93182F80917601882319F040DEB9
:1007500080E030DE60DE89E691E0ADDE812F8295BB
:100760008F70E1DF812F8F70DEDF1F910895809100
:100770000D0182958F7019D080910D0183701CD06E
:1007800080910D01DECF0895E1E9F1E0E80FF11D60
:100790000895CF93F9DF9081C681C91710F405D071
:1007A00001C013D015DECF910895EEDF8F938081C5
:1007B0000CDE8F9101C008958F9387E391E07BDE7B
:1007C0008F91E2DF868101CE0895DEDF8F938681EF
:1007D000FCDD8F9101C008958F9383E391E06BDE80
:1007E0008F91D2DF8081F1CD0895AEE0B0E0EBEFE4
:1007F000F3E00C949534142F622E702E6B017C0163
:100800000F7080E389838A838B838C838D838E83AF
:10081000F7FE0BC08DE2CEDDF094E094D094C0944E
:10082000C11CD11CE11CF11C04C075FE02C08BE28E
:10083000C1DD033061F1043099F00530C1F00630BC
:10084000F1F074E6872E912CA12CB12C073029F5FC
:1008500030E8832E36E9932E38E9A32EB12C1DC043
:1008600060E1862E67E2962EA12CB12C16C050EACC
:10087000852E56E8952EAA24A394B12C0EC040E4F0
:10088000842E42E4942E4FE0A42EB12C06C088EEB4
:10089000882E83E0982EA12CB12C2AE0222E312C18
:1008A000412C512CC814D904EA04FB0470F0C70190
:1008B000B6016B5F7F4F8F4F9F4FA20191010E9446
:1008C000AD3369017A011F5FEDCF81E1810F9BEAB2
:1008D000899F812D1124A82EA69486E0811B899FD3
:1008E000112D11241695912F990F190F811B182F77
:1008F0004E0187E0880E911C2AE0A401C701B601D1
:100900000E94D434F40101900020E9F731977F016F
:10091000E818F9089E2C6701DD24812F90E00496E9
:100920008C159D0514F4A3941D5F8A2D90E0845DC1
:100930009F4F0E942835A82E74FE04C0901610F414
:100940000E1901C000E09E2C911A900E191424F08B
:100950008EE230DD012F0E19111102C098EF992E91
:10096000812C10E0C00ED11EE92C092C000CFF08D0
:10097000482D50E04C155D05ACF4FA013696E01BAD
:10098000F10B81E090E08C0F9D1FE80FF91F808133
:1009900011DD8394882D90E08E159F0549F78EE236
:1009A00009DDE6CFAA2011F08A2D04DD662011F0C2
:1009B000862D00DD2E96E2E10C94B1340F93362F94
:1009C000BC0180E090E0022F242F432F0EDF0F9117
:1009D00008950F93062FBC0180E090E026E54DEFCF
:1009E00004DF0F9108950F93042F28E440E0FDDE0B
:1009F0008AE7E0DCEDDC0F910895089503D002D082
:100A000001D000D000D003D002D001D000D000D05F
:100A100003D002D001D000D000D0A89503D002D0DE
:100A200001D000D000D003D002D001D000D000D03F
:100A300003D002D001D000D000D003D002D001D02A
:100A400000D00000089590E0893C28F0885C48ECD4
:100A5000849FC0011124009709F40895209181001A
:100A6000277019F0DADF0197F6CF8130910519F080
:100A700002973EE303C037E180E090E02091B200AE
:100A8000230F2093B30042E04093700027E023BF80
:100A9000889526E023BF10927000A895DCCF8F9335
:100AA00084E0D1DF07C08F9382E0CDDF03C08F9356
:100AB00081E0C9DF8F911F93182F106410937C0081
:100AC000E12FE07880913301E81759F0E09333018A
:100AD000AEDF8EE980937A0083E083BF889582E061
:100AE00083BF20E030E0A901E0E01FC08EE98093E1
:100AF0007A0083E083BF889582E083BF60917800AD
:100B000070917900260F371F411D511DE43061F4AB
:100B100080913501803041F084E02030380720F4A6
:100B200017FD02C01068CACFEF5F80913201E8174D
:100B3000E8F2609136017091370117FF04C06091AF
:100B400034017091350180E090E00E946B332FEF0B
:100B500033E040E050E00E94AD33B901CA0120917A
:100B6000320130E040E050E00E94AD33C9011F91F6
:100B700008959B01281B390B50F0C9010895BC0151
:100B800080913601909137016817790718F4861B18
:100B9000970B089580E090E0089599B193FB992711
:100BA00090F94999926080911801843050F08EE05C
:100BB00080931401909315011092190181E08093A4
:100BC000180180911801E82FF0E0EC5EFE4F3081B3
:100BD000391729F191111AC0E3E0E80FE370209171
:100BE0001901323041F4F0E0EC5EFE4F30813330D9
:100BF00069F42F5F09C0313049F4F0E0EC5EFE4F3C
:100C00003081333019F4215020931901E1E0E80FCD
:100C1000E370E0931801F0E0EC5EFE4F908380916A
:100C2000190187FD819580931A010895A0E0B0E035
:100C3000ECE1F6E00C949E34E82ED92E53985198AE
:100C4000F1DE10921901E0911801F0E03196E370A5
:100C5000FF27EC5EFE4F80EF8083C5E6D9E19DDF84
:100C60004F9905C0E3DED150D1F7C150B9F7CE2D71
:100C7000DD2DF12C15E500E0BB24B394D7FD36C083
:100C800082E3C82E8ADFD2DECA94C110FBCF110FD7
:100C90004F9B1F5F1F731F3349F4011103C0CE2DFB
:100CA000DD2D04E00F5F083C28F020C0111102C0C8
:100CB00001111CC0A8951C161D0624F42A9711F4D6
:100CC000CFEFDFEF80911A01882339F0F394809100
:100CD0007701811102C0B092770184E18F1570F61F
:100CE00080911901811102C0F12CC8CF802FCDB79E
:100CF000DEB7E9E00C94BA34CF9353DBC82F809170
:100D00004501882301F1813051F4C33041F463E19E
:100D100083E099DB8BE24EDB63E183E094DB80E4EC
:100D20009FE184DF811104C080911A018111F7CF06
:100D3000C33041F480914501813021F460E083E0CB
:100D400082DB23DC93DBCF9108958FE493E00E9454
:100D50002835382F80E593E00E94283520913A010C
:100D6000230F30913B01381F20931D0130931E014A
:100D700083E0283E380720F0C901885E934002C016
:100D800080E090E062E370E00E948633683008F013
:100D900067E0E7EAF2E0E60FF11DE60FF11D45918D
:100DA00055912591359162E3681B421B530B649F5B
:100DB000C001659F900D1124499662E370E00E9486
:100DC0008633620F731F70937A016093790181E516
:100DD00093E00E942835992787FD909560913A010C
:100DE00070913B01860F971F9093350180933401DA
:100DF00090937501809374010895CF93DF9324E15C
:100E000030E0B9010E948633DC01E9EBF2E0E60F45
:100E1000F71FE60FF71FC591D591459155914C1BD2
:100E20005D0B4A9FC0014B9F900D5A9F900D11245E
:100E3000B9010E9486336C0F7D1FCB01DF91CF91EA
:100E40000895189518950F931F93CF93DF934091B2
:100E50001F01C0914301D0914401A1E9B1E020E01C
:100E600030E0822F2417C0F489015D912F5F3F4F3E
:100E70009C855917B1F3B9016F567E4FFB0155811F
:100E8000591779F3F801EE0FFF1FE356FE4F20814B
:100E90003181293E334008F084E1DF91CF911F91E9
:100EA0000F9108951092210110921F0110926F016D
:100EB000109255011092200110924101109276017A
:100EC000EAE5F1E0108211821282EBE7F1E0108A8C
:100ED00082E0818B1092010117861686148215829A
:100EE0001682178281EF838B08955E988ADD80E0F9
:100EF00090E09CCE0895A1E0B0E0E1E8F7E00C942A
:100F0000A33417B818B8E82FF0E0E057FE4F9491DB
:100F100095B9262F281BE20FF11D27FDFA95E491C4
:100F2000E92BE4B96983C7DD8C016981862FC3DDB4
:100F3000AC01209136013091370136952795B901E2
:100F400063507109C8014E966817790770F4255EE1
:100F50003F4F0217130748F4CA014E9668177907E6
:100F600020F481E04217530708F080E014B821967E
:100F7000E4E00C94BF34CF9361E080E0BCDFC82F85
:100F800062E080E0B8DFC80F62E081E0B4DF8C0F80
:100F9000CF910895A3E1B0E0E0EDF7E00C94953433
:100FA000B82E10922101807FA9F4E5DF833009F08B
:100FB000C1C362DA83E592E07EDA2DDA8FE3FAD9F3
:100FC00080ED97E033DE8B30C0F456DA85E091E0B7
:100FD00072DAB0C306E910E04FDA81EB91E06BDA28
:100FE000CADF833021F41F5F143010F006C010E018
:100FF00088E229DD015081F763C00DDA0E944719AC
:1010000081EC90E058DA60E088E293E00E943535A8
:1010100060E089E293E00E94353560E087E293E08A
:101020000E94353560E082E00E94271E6C019A83A1
:10103000898361E082E00E94271E7C019C838B8370
:1010400060E081E00E94271E8C019E838D8323E057
:1010500040E26EEFC601B2DC23E040E26EEFC70172
:10106000ADDC23E044E06EEFC801A8DC2AE5C2163F
:10107000D10424F084E190E09A838983698188E235
:1010800093E00E9435358AE5E816F10424F084E106
:1010900090E09C838B836B8189E293E00E943535DD
:1010A0000A35110524F084E190E09E838D836D81E3
:1010B00087E293E00E94353582E0809345011CDE93
:1010C000EB2DEF70EF87E13011F018E76FC101E011
:1010D00010E068EB862E62ED962E67E4A62EB12C0A
:1010E00072E0F72EE8E0EE2EFCE02F2EA4EC4A2E64
:1010F000A6E35A2E612C712CC12C302E50E2D52E35
:1011000072DA6DDA84E556D9C801A9DA61D90130FD
:101110001105B1F484EF90E0CED964E080913A01FA
:1011200090913B0156DC77D98FEE90E0C4D9809145
:10113000790190917A0193DA8EEB8093320172C03B
:10114000F2E03F1242C02091360130913701A8E50C
:10115000BBE10E94EB33A30192010E94CF3381E0F7
:1011600085B985E084B980E0288B398B4A8B5B8B0D
:1011700096DC288939894A895B89821B930B9A837B
:10118000898381E184B980E0288B398B4A8B5B8B22
:1011900086DC288939894A895B89821B930B9C8369
:1011A0008B8384E085B984E184B981E0288B398B15
:1011B0004A8B5B8B74DC28893989821B930B9E8355
:1011C0008D8389ED90E077D93AC0E3E03E122AC0E2
:1011D000F5B8FAE0F4B980E062DC20913601309194
:1011E00037013695279538872F83821B930B9A8377
:1011F000898322E224B980E052DC2F813885821B6A
:10120000930B9C838B83E5B888E284B981E047DC4B
:101210002F813885821B930B9E838D838BEC90E00E
:101220004AD924C00430110551F485E492E043D931
:10123000A2DE882309F444C0B2E0CB2E41C00530C1
:101240001105A1F415B8F4B880E029DC9A838983EC
:10125000E4B881E024DC9C838B83D4B882E01FDC7B
:101260009E838D838BEE90E026D96EC006301105EB
:1012700039F5F4B8F5B880E012DC209136013091F0
:101280003701821B930B9A838983E4B8E5B881E028
:1012900006DC2091360130913701821B930B9C8331
:1012A0008B83D4B8D5B882E0FADB20913601309137
:1012B0003701821B930B9E838D8387EE90E042C0A3
:1012C0000730110509F040C02091360130913701F7
:1012D000A8E5BBE10E94EB33A50194010E94AD3368
:1012E000F5B8E3E0E4B980E0288B398B4A8B5B8B5F
:1012F000D6DB288939894A895B89821B930B9A83BB
:101300008983E5B824B881E0288B398B4A8B5B8BC5
:10131000C6DB288939894A895B89821B930B9C83A8
:101320008B83D5B8F0E3F4B982E0288B398B4A8BF4
:101330005B8BB5DB28893989821B930B9E838D8358
:1013400085EC90E0B8D803C00130110561F063D896
:1013500089819A8179D93CD88B819C8175D938D87B
:101360008D819E8171D917B818B814B815B888EE58
:1013700093E05CDC0430110511F08B3028F4C39449
:1013800023E02C1508F0BCCE88EE93E04FDC0F5F15
:101390001F4F0830110509F0AFCE97CE24D985E450
:1013A00092E089D884E64FDB115019F0E4DD811119
:1013B000F5CF62D88AEB90E07ED823E044E06FEF6F
:1013C0008091380190913901F9DA25D883EB90E0CA
:1013D00072D823E044E06FEF80913F01909140018B
:1013E000EDDA82E08093450187DC1092210144D838
:1013F0008FEA90E060D860E082E00E94EF15809074
:10140000830190908401A0908501B09086019C8614
:101410008B8661E082E00E94EF15C0908301D0903E
:101420008401E0908501F0908601DE86CD8660E043
:1014300081E00E94EF1500918301109184011E83C9
:101440000D8362E080E00E94EF158091830190910E
:1014500084019C838B8362E081E00E94EF15809180
:101460008301909184019A87898761E080E00E94DE
:10147000EF1520918301309184013A8329838F8570
:10148000813021F080913E01823029F42E5F3F4F60
:1014900038872F8307C038872F8310923E018CE056
:1014A0000E94FF01C401E5D8C601E3D8B801110FBD
:1014B000880B990B03E026E444EF97D98E010F5F68
:1014C0001F4F6E01EFE0CE0ED11CF801819191917A
:1014D0000A97853B9105D8F4EC15FD05B9F748E46A
:1014E000E42E43E0F42EF80160810E5F1F4F6E5E24
:1014F000C7010E943535FFEFEF1AFF0A0C151D05D5
:1015000091F70E940B0288EA91E00E945B0282E060
:1015100080934501F1DB0E94832A2F85213029F039
:1015200080913E01823009F0EDC00E943C0280E0D3
:101530000E94E5018BE591E00E945B0282E00E943F
:10154000E50184E290E00E945B0220E4F22E10E0CC
:101550003AE0832E912CA12CB12CA4DC1092210115
:1015600060E082E00E94EF1500918D0160917B01A7
:1015700070917C0180917D0190917E01073F44F440
:101580000F5FA50194010E94AD33CA01B901F6CFE6
:1015900000938D0160937B0170937C0180937D01AA
:1015A00090937E01073F09F096C0DC01CB01805685
:1015B0009109A109B10980399545A105B10508F046
:1015C0008AC060918F0170919001CB018B569F4F23
:1015D0008B32914008F07FC01F5F153008F47CC04B
:1015E0008FE493E00E9443350E943C028DE190E03D
:1015F0000E945B0280918F019091900125D8A5DB1C
:1016000018B881E087B980E284B982E054DA853D78
:101610009340DCF714B8109235011092340182E047
:101620004ADA8C0180917401909175019093350193
:101630008093340182E03FDA7C01EE0CFF1C1092B3
:1016400035011092340182E036DAC0907401D090F6
:101650007501D0923501C0923401800F911F8C0129
:101660000E191F090E940B0286E190E00E945B02A6
:1016700081E593E00E94283593E0B92EB80E9601DB
:10168000D8010E94FA3397010F2C000C440B550B24
:101690000E94CF331B2D120F612F81E593E00E9432
:1016A0003535812F012E000C990B0E9424034DDB50
:1016B00082E08093450120DB10923E018CE00E9485
:1016C000FF0188E493E00E942835682F8BE493E0C3
:1016D0000E94353517C010E00E940B0260917B011B
:1016E00070917C0180917D0190917E0104E026E45F
:1016F00040918D017AD80E94C50288E2A4D9FA945B
:10170000F1102BCF89E18093320180E00E949B2D64
:101710000E943C0285E091E00E945B020E940B0265
:1017200088E392E00E945B021092210182E08093A4
:101730004501E2DA6396E2E10C94B13480913E0116
:1017400081110DC088E493E00E94283561E0680FA4
:101750008BE493E00E94353581E080933E0108954B
:10176000A1E0B0E0E6EBFBE00C94A034E82FF0E061
:10177000ED56FE4FE491E8B9E7B915B8E62FF0E071
:10178000E057FE4FE491E4B988E8E82E83E1F82EB3
:10179000DE2EDD0C862F698382D98C01D4B8698155
:1017A0008E159F0510F47801F5CF892BE1F00E948A
:1017B0001B028BE391E00E945B02D80120EA36E82D
:1017C00041E050E00E94003428E937EB40E050E06F
:1017D0000E94AD33DA01C90122E041E467EFEED89F
:1017E00017B818B814B82196E7E00C94BC34CF931E
:1017F000DF93DC019C01261B370BE0E090E0B90190
:10180000690F711D672F7727920F260F371FBA01B7
:101810006E0F711D672F7727E40FEB01CC0FDD1FD3
:101820004C0F5D1F6B3E710528F4A217B30738F704
:10183000CA0102C080E090E0DF91CF910895ABE152
:10184000B0E0E5E2FCE00C9495348B8F162F4983D1
:10185000A895E62FF0E0E057FE4F24912987220F4C
:10186000298B339634913A83E42FF0E0E057FE4F12
:1018700024903396B490E82FF0E0E057FE4F0491A7
:10188000402F440F4E87339664916A8F25B889851F
:1018900082298C8784B967B968B9812F08D99B8759
:1018A0008A87998594B9812F02D94C0114B8B4D88C
:1018B00015B8EC85E4B9812FFAD86A857B8559D9AA
:1018C0003C01FA81F7B918B8202F22292B8325B9BA
:1018D00024B98B8DECD853D96C0115B89DD805B9B6
:1018E0008B8DE5D84CD97C0104B98B8DE0D847D9D4
:1018F000582EA92EB701C6013CD9803231E093079A
:1019000030F440E2641641E0740608F46BC56E0CD6
:101910007F1CEA85FB858E0F9F1F6816790620F4D1
:10192000FB86EA86852C9A2C2091550180916F01C7
:1019300090E0820F911D02974CF0213009F052C5C2
:101940009091520180916C0198134CC5A22CAA0C65
:101950003A2C302A2A853B852437310508F478C192
:10196000C901880F991F44968816990608F070C11E
:101970003A8D37B938B989858A2984B9812F93D8A6
:101980007C01898198D86C01A5B8812F8CD89701EA
:10199000295A3D4F18B82817390708F09EC04A81C8
:1019A00047B934B835B889817ED888349F4028F04B
:1019B00085E08093210182E204C085E080932101CB
:1019C00084E280932001F0924B01E0924A01B6013B
:1019D000C701DAD890935101809350019701A0E19B
:1019E000B7E20E94EB3320911B0130911C0140E0D3
:1019F00050E00E94AD3330934D0120934C01898912
:101A00008A2984B915B88A8D87B988B9898153D84C
:101A10007C01812F48D8B701B7D89C0190934F0122
:101A200080934E01909120019F70943069F5409110
:101A30004C0150914D016091500170915101C901CB
:101A4000D6DE0097E9F0A4B89A8DEA819E2B97B96B
:101A5000812F29D87C0117B89C01A0E1B7E20E9430
:101A6000EB3320913F013091400140E050E00E9473
:101A7000AD33A901B70180914E0190914F01B7DEBE
:101A800090934B0180934A01809120018F708430A4
:101A900009F4A0C418B88A808B2887B804B9FB81E0
:101AA000F5B98B8D04D86C016AD87C01812F03D8DD
:101AB000A0902201B0902301BC01C60165D89C0111
:101AC000D5010E94EB33970140E050E00E94AD3316
:101AD00030934B0120934A017DC42A8127B934B841
:101AE00035B88B8D0E9453057C0189810E945B056E
:101AF0006C0105B98B8D0E945305895A9D4F8E1537
:101B00009F0508F06FC43A8D38B937B989810E94B2
:101B10005305813D934028F485E08093210182E3C1
:101B200004C085E08093210184E380932001B70104
:101B3000C6012AD890936B0180936A01C7011FD810
:101B40009C01A0E1B7E20E94EB3320912201309189
:101B5000230140E050E00E94AD33309367012093B1
:101B6000660118B86A8167B98E858A2984B985B9F2
:101B70008B8D0E945B057C0189810E945305B70112
:101B800003D89C0190936901809368019091200192
:101B90009F70943091F5409166015091670160917A
:101BA0006A0170916B01C90122DE009711F1A5B89D
:101BB000A4B88A8D88B98A80882A87B88B8D0E94BC
:101BC00053050E94BF057C0117B89C01A0E1B7E254
:101BD0000E94EB33209138013091390140E050E010
:101BE0000E94AD33A901B70180916801909169010C
:101BF000FEDD9093650180936401809120018F70D8
:101C0000843009F4C9C19A8DB92AB8B8B7B815B8E3
:101C1000EB81E4B98B8D0E9457055C01812F0E94F6
:101C20005B057C01C0901B01D0901C01BC01C5016B
:101C30000E94C4059C01D6010E94EB33970140E04D
:101C400050E00E94AD333093650120936401A4C13C
:101C500018B8FA81F7B905B934B88B8D0E945705C9
:101C6000988B8F870E94BF059E838D8389810E94F8
:101C70005B0598878F83240124E6420E511C8D81D9
:101C80009E81B40148165906D0F40E94C4057C0117
:101C9000209122013091230140E050E060E871EA98
:101CA00083E09CE10E94AD33D7010E940034EF81B4
:101CB000F8856F01E12CF12CA701960123C08D81DD
:101CC0009E810E94C4057C01FB81F4B98B8D0E942A
:101CD0005705988B8F870E94BF059E838D838981CE
:101CE0000E945B0598878F83BC01C7010E94C405D1
:101CF0009C01A4E6B0E00E94EB33EF81F8859F01E0
:101D000040E050E00E94AD3369017A0114B815B883
:101D1000FA8DF8B9F7B981E00E9423052C8524B922
:101D2000812F0E945705B984BA288F359D4008F449
:101D300039C1B4B8812F0E9453053C0189810E94AA
:101D40005B059B8B8A8B8B8D0E945B059D8B8C8B9F
:101D50008A899B89813D974008F4B1C084E08093D3
:101D600021018DE08093200153018614970410F423
:101D7000A818B90820901B0130901C01412C512C4F
:101D800060E871EA83E09CE1A20191010E94AD3319
:101D9000D5010E940034EA89FB899F0140E050E0B0
:101DA0000E94AD3380916F01882369F080916001BA
:101DB00090916101A0916201B09163018217930734
:101DC000A407B50708F520936001309361014093A3
:101DD0006201509363019301A0E1B7E20E94EB33EB
:101DE000A20191010E94AD333093670120936601F7
:101DF0006A897B898C899D890E94C40590936501BD
:101E00008093640181E001C080E0409160015091C5
:101E1000610160916201709163014C155D056E0571
:101E20007F0538F5C0926001D0926101E0926201B5
:101E3000F09263016F8178858F8598890E94C4052F
:101E400090936501809364012D813E81A0E1B7E20A
:101E50000E94EB33209122013091230140E050E0B9
:101E60000E94AD33205F384D3093670120936601A7
:101E700003C0882309F492C3C0901B01D0901C01B9
:101E8000E12CF12C9401A0E1B7E20E94EB33A70111
:101E900096010E94AD3330936901209368012A8531
:101EA0003B85A0E1B7E20E94EB33A70196010E94B7
:101EB000AD3330936B0120936A0181E06FC3F1E68B
:101EC0008F16910408F06EC021ED621627E07206AD
:101ED00008F468C085E08093210182E180932001AD
:101EE000C30186509F4FEC89FD898E179F0720F410
:101EF00083E18093200116C0E0901B01F0901C014B
:101F0000B3018C899D890E94C4059C01D7010E9460
:101F1000EB33930140E050E00E94AD333093650114
:101F200020936401FA81F770AF2E898180648093D9
:101F30007C000BE0EE24E394F12CCC24CA9483E0E3
:101F4000D82EA89561E0822D5CD5B4B886B18A21DF
:101F5000E9F3298524B980917A00806480937A001E
:101F600080917A0086FDFCCF809178009091790075
:101F7000F601E81BF90BEE0EFF1E015011F7C70129
:101F8000880F991F880F991F69E070E00E948633BF
:101F900070936B0160936A0180916F018F5F8093F2
:101FA0006F018BCFB4B8A5B8812F0E9457055C0193
:101FB00089810E945B059E838D830E94BF057C0101
:101FC0004A145B04A8F4B401C5010E94C4056C0165
:101FD00020911B0130911C0140E050E060E871EA63
:101FE00083E09CE10E94AD33D6010E9400341DC005
:101FF000FC85F4B925B8812F0E9457055C018981C1
:102000000E945B059E838D830E94BF057C01C501F4
:102010008A149B0410F488199909B7010E94C40519
:102020009C01A4E6B0E00E94EB33970140E050E051
:102030000E94AD3329013A012A8127B918B83B81A2
:1020400034B935B98B8D0E9457056C0189810E9486
:102050005B0598878F83812F0E945B057C0140E39D
:10206000C41641E1D40608F0BBC105B98B8D0E94AE
:1020700057059C0104B98B8D288F398F0E94570515
:10208000AC0115B881E04E8B5F8B0E94230505B92A
:102090008B8D0E9457054E895F89288D398D40347C
:1020A000564008F05BC08133914108F457C0C60127
:1020B0008A569F4F2817390708F050C086E0809352
:1020C0002101809155018F5F80935501B7018F8168
:1020D00098850E94C40590934B0180934A01B701F3
:1020E000C6010E94C405909351018093500114B819
:1020F00015B8FA81F8B981E00E94230504B98B8DE7
:102100000E945705853F910508F058C22B8124B9DC
:1021100089810E945705813D934008F44FC28B8D01
:102120000E945B058D3D924008F448C204B98B8D36
:102130000E9457058D3D924008F440C205B981E0E8
:102140000E94230515B88B8D0E945705853F910588
:1021500008F034C287E08093210130C28A8187B9B8
:1021600024B825B881E00E94230534B835B88B8D9A
:102170000E9457056C010E94BF057C0189810E9465
:102180005B0598878F830E94BF059D878C87812F71
:102190000E945B059C838B83EC85FD85EE3FF940B7
:1021A00008F4B1C084E0809321018CE08093200189
:1021B000B401C7010E94C4056C0120912201309135
:1021C000230140E050E060E871EA83E09CE10E9476
:1021D000AD33D6010E940034EC85FD859F0140E0BF
:1021E00050E00E94AD3380915501882369F08091C1
:1021F000460190914701A0914801B0914901821791
:102200009307A407B50728F52093460130934701AB
:1022100040934801509349016B817C818F8198855F
:102220000E94C40590934B0180934A019701A0E15D
:10223000B7E20E94EB33209122013091230140E06C
:1022400050E00E94AD3330934D0120934C0181E06A
:1022500001C080E0409146015091470160914801E2
:1022600070914901441555056605770528F540929A
:102270004601509247016092480170924901B501B0
:102280008D819E810E94C40590934B0180934A01E9
:102290009501A0E1B7E20E94EB3320911B01309140
:1022A0001C0140E050E00E94AD33205F384D309378
:1022B0004D0120934C0103C0882309F480C194018F
:1022C000A0E1B7E20E94EB3320911B0130911C0189
:1022D00040E050E00E94AD3330934F0120934E0117
:1022E0002A853B85A0E1B7E20E94EB3320912201D1
:1022F0003091230140E050E00E94AD333093510112
:10230000209350015BC1F1E68F16910408F068C07C
:1023100029E4E2162DE0F20608F462C085E080931D
:10232000210182E0809320018B819C8186509F4F08
:102330008C159D0520F483E08093200116C06090E9
:102340002201709023016B817C81C6010E94C4052B
:102350009C01D3010E94EB33970140E050E00E94C2
:10236000AD3330934B0120934A013A8D3770D32E11
:102370008981806480937C00EBE0CE2EEE24E39490
:10238000F12CA89560E0822D3CD334B835B886B1E5
:102390008D21E9F704B980917A00806480937A00F6
:1023A00080917A0086FDFCCF809178009091790031
:1023B000E80EF91ECA94C110E4CFC701880F991F17
:1023C000880F991F69E070E00E9486337093510175
:1023D00060935001809155018F5F80935501EEC04D
:1023E00017B818B814B815B817B847EC841641E0F8
:1023F000940608F4C5C018B86E8564B968ECF62E6A
:10240000EA808A8DE82AE7B881E00E9423059A8154
:1024100097B98B8D0E945B05429718F0FA94F110E2
:10242000F2CFEE85E4B9E5B961E0822DEAD28B8D79
:102430000E9457053C01F989F4B915B82A8D27B9CE
:1024400028B960E0822DDDD2812F0E9457050E94BD
:10245000BF057C01398534B9812F0E945B056C0171
:102460008B8D0E945705B6010E94C4056C01812F17
:102470000E945B055C018B8D0E945705B5010E948F
:10248000C40596012C5E3F4F2817390708F47BC01E
:1024900018B84A8147B904B905B961E0822DB1D2B3
:1024A000812F0E945B055C018B8D0E945705B50151
:1024B0000E94C4055C01C816D90650F46E8564B943
:1024C00065B98B8D0E9457059C01730165010FC092
:1024D000898984B915B89A8D97B998B960E0822D29
:1024E00090D2812F0E9457050E94BF059C01E8EE03
:1024F000CE16E3E0DE0630F4C60164E670E00E942A
:10250000863306C0B60154E0769567955A95E1F793
:10251000C601875991098938914190F52C153D05DF
:1025200078F5C70143E0969587954A95E1F7893C90
:10253000910510F088EC90E08E0D9F1D8C159D0587
:10254000F8F46E157F05E0F480912101833018F4D2
:1025500083E08093210120911F01822F90E0FC01F4
:10256000EF56FE4F3B8D30831683880F991FFC0179
:10257000E356FE4FD182C0822F5F20931F0103C01C
:10258000612F8B8D2CD017B818B814B815B88EE2FF
:102590000E94DA016B96E2E10C94B13490916F01E4
:1025A0009F5F90936F01882371F3498140936C0181
:1025B00010936D016B8D60936E01E5CF81E090917A
:1025C00055019F5F909355018823E9F2898180939B
:1025D00052019B8D9093530110935401D4CFA0E0EE
:1025E000B0E0E5EFF2E10C949534A895062F10E0E9
:1025F000F801E057FE4FB49033969491482F50E085
:10260000FA01E057FE4FD4913396C49170916F0157
:102610002091550130E0270F311D232B09F0ECC12B
:10262000A8952091250130912601220F331F220FFA
:10263000331F30933701209336012091740130917C
:102640007501220F331F220F331F30933501209362
:1026500034012EEB2093320170911F01F1E9EF2E2E
:10266000F1E0FF2EA7E9B1E0F701400F511F2E2F37
:102670002E19271748F411912D9130E0210F311DAB
:1026800024173507A1F74EC0662E782E18B897B9D3
:10269000D4B9D5B9B8E1FB2EC12CD12C862D0E941E
:1026A0005705982E892E872D0E945B058C018C1969
:1026B0009D0997FF03C0919581959109039734F087
:1026C000A895FA946801F110E9CF2CC0DD0F15B878
:1026D000D4B9872D0E9457058135910518F5D5B9D4
:1026E000872D0E9457056C01C7B9C8B915B8B4B891
:1026F000A8E1AA2E412C512C872D0E9457057C0160
:10270000862D0E945B05EC018419950997FF03C093
:102710009195819591090397CCF0A895AA942E01E3
:10272000A110EACF80912501909126019093370165
:1027300080933601809174019091750190933501D9
:102740008093340189E18093320156C1BB0CB4B847
:10275000862D0E9457055C01003C84E4180730F484
:1027600025E8C21621E0D206E8F605C080EBC816BF
:102770008DE4D806B8F6C43A22E0D20708F06CC05F
:1027800088E9A816B10470F2C6010E94BF05AC0129
:102790009601A8E9B7EB0E94EB339A0140E050E0C4
:1027A0000E94AD3319012A01C5010E94BF059C0199
:1027B000A8E9B7EB0E94EB33850120E030E0A901E6
:1027C00098010E94AD3388E7C8168FE0D80680F4E0
:1027D000D201C101F2E0880F991FAA1FBB1FFA9511
:1027E000D1F7BC01CD01620F731F841F951F14C068
:1027F00088E7A8168FE0B806B0F4DA01C901E2E074
:10280000880F991FAA1FBB1FEA95D1F7BC01CD0104
:10281000620D731D841D951D25E030E040E050E001
:102820000E94AD330CC0DA01C901820D931DA41DB5
:10283000B51D9C01AD015695479537952795A4E6A2
:10284000B0E00E9400344B015C012CEA820E2DE0C6
:10285000921EA11CB11C78C0692D782D0617170790
:1028600008F4B8016E01CE15DF0508F467017B019D
:102870006017710708F4780100912201109123017B
:10288000C7010E94C4059C01D8010E94EB334B0193
:102890005C01C7010E94BF059C0140E050E0C501FA
:1028A000B4010E94AD3349015A018601CC15DD0502
:1028B00008F48E01C0911B01D0911C01B801C60122
:1028C0000E94C4059C01DE010E94EB33980140E0A8
:1028D00050E00E94AD3388E7E8168FE0F80680F4F8
:1028E000D501C40162E0880F991FAA1FBB1F6A951A
:1028F000D1F7BC01CD01620F731F841F951F13C058
:1029000008378FE01807C0F4DA01C90132E0880FF8
:10291000991FAA1FBB1F3A95D1F7BC01CD01680DC5
:10292000791D8A1D9B1D25E030E040E050E00E94AB
:10293000AD3349015A0108C0820E931EA41EB51E74
:10294000B694A7949794879410912101143008F0BD
:10295000E9CE7A94670C262D30E0E901C65ADE4FA5
:102960008881220F331F220F331FF901E655FE4FD6
:102970008823D9F1C080D180E280F380A501940141
:102980002C193D094E095F0957FF07C05095409526
:10299000309521953F4F4F4F5F4FAAE0B0E00E9426
:1029A000003424E6C20ED11CE11CF11CA7019601E3
:1029B000280D391D4A1D5B1D0E94AD33232B242B8E
:1029C000252B09F0AFCE133019F081E0809321015F
:1029D00082E0888380917601E82FF0E0E35AFE4F91
:1029E00060828F5F809376019DCE80829182A282E9
:1029F000B38281E0888396CECDB7DEB7E2E10C9456
:102A0000B134CF93C82FC09595B160FF02C0982B09
:102A100001C09C2395B994B1892B84B982E00E94AE
:102A2000230584B18C2384B985B18C2385B9CF91DA
:102A30000895AF92BF92DF92EF92FF920F931F9390
:102A4000CF93DF931AE08FE3D82E09E017B818B8B8
:102A500015B8D4B880E00E9457057C0181E00E943F
:102A60005B05EC0182E00E945B059C0180912101E5
:102A7000893079F417B814B8F0920401E092030198
:102A8000D0930601C09305013093080120930701FC
:102A90005CC084E0E816F10440F4C430D10568F469
:102AA0002430310538F391E00CC091E088EEE8164F
:102AB00083E0F80618F090E001C091E0C83ED340F2
:102AC00008F49260283E334008F4946097B9C0E05F
:102AD000D0E0A89580E00E944F055C0181E00E9453
:102AE0005B057C0182E00E945B0524E1A21625E0E3
:102AF000B20608F4389A24E1E21625E0F20608F45A
:102B0000399A843125E0920708F43A9A26E0A21611
:102B1000B10430F426E0E216F10410F4069738F020
:102B20002196C43F81E0D807A1F600932101E12C52
:102B3000F12CEC16FD0631F00E9412052FEFE21A7F
:102B4000F20AF7CF115009F081CFDF91CF911F9199
:102B50000F91FF90EF90DF90BF90AF900895CF92CC
:102B6000DF92EF92FF92CF9320917B0130917C0115
:102B700040917D0150917E01C0918D018AE0C82E67
:102B8000D12CE12CF12C8C2FCF5F213A96E839071C
:102B900091E04907510538F0CA01B901A701960132
:102BA0000E94AD33F0CF80938D01A0913601B0919A
:102BB00037010E94003428E833E140E050E00E94F1
:102BC000AD3320937B0130937C0140937D01509382
:102BD0007E01CF91FF90EF90DF90CF900895A4E019
:102BE000B0E0E5EFF5E10C949B342FEF260F982F22
:102BF000990F980F920F90935701E82FF0E0E0574C
:102C0000FE4F9490262F30E0F901E057FE4FF490EC
:102C1000F901ED56FE4FD49090912101913009F4C5
:102C2000ABC290911F0147E951E001E911E0DA01DF
:102C30002A2F241B2917A0F42D9126130EC09D01C5
:102C400027503109F9012081281307C0F801248594
:102C500035852C3D354008F48FC20E5F1F4FE8CFFD
:102C6000162F082F109288011092870181EF809310
:102C70008D0110927B0110927C0110927D011092C7
:102C80007E01D7DE18B8D7B8F4B8F5B8802F0E9407
:102C90005B055C01812F0E945B05A81AB90A14B874
:102CA0001092590110925801809158019091590148
:102CB000843F914008F0AEC095B894B80E940C05CE
:102CC00014B815B80E941305A895802F0E945B05C3
:102CD0007C01EA18FB0880915801909159018E37C8
:102CE000910528F02BE4E216F1040CF493C07DE288
:102CF000E71671E0F70654F480915801909159015C
:102D000001969093590180935801CECFC70120912D
:102D1000580130915901232B09F0A1C1F5E1EF16BB
:102D2000F5E0FF060CF49BC184DE15B887E087B997
:102D300018B8F92CFF0CF4B880E480937B0084E58C
:102D400080BF802F806480937C0086E180937A002E
:102D50000E9416051092590110925801109280009D
:102D6000109285001092840087E286BB81E28093F6
:102D70006F0081E080937801F5B8909121018093F4
:102D80008100953009F04BC081E090E0002E01C039
:102D9000880F0A94EAF78095877087B9F89483B70B
:102DA000817F83BF80917801882389F083B7816018
:102DB00083BF7894889583B78E7F83BFF894A89556
:102DC00080915801909159018034964059F7789438
:102DD00010928100E0908600F090870010926F00C2
:102DE00086E980937A0014B815B8802F0E945B059D
:102DF00020913A0130913B01821B930B0C969093EA
:102E0000900180938F0180915801909159018032F7
:102E1000934038F017B818B814B815B8ADC1D7B882
:102E2000BDCF809158019091590190938601809374
:102E30008501F0928401E092830184EF80938D01FB
:102E4000809158019091590182349105C8F06091A8
:102E5000830170918401809185019091860124E61F
:102E600030E040E050E00E94AD3320938301309386
:102E70008401409385015093860186EF80938D01F4
:102E8000A0917901B0917A01209183013091840160
:102E900040918501509186010E94003420E233E088
:102EA00040E050E00E94AD332093830130938401D1
:102EB000409385015093860120937B0130937C01E0
:102EC00040937D0150937E014ADE80918D01843FC5
:102ED00009F070C0C0907B01D0907C01E0907D0132
:102EE000F0907E0120EAC2162FE0D206E104F10440
:102EF000C0F4A70196012C543F4F4F4F5F4F60EA3B
:102F00007FE080E090E00E94AD33C20ED31EE41E4D
:102F1000F51EC0927B01D0927C01E0927D01F0927F
:102F20007E01C0907B01D0907C01E0907D01F0900B
:102F30007E01C114D10471E0E706F10428F4D092B7
:102F4000BB01C092BA0106C081E090E09093BB0142
:102F50008093BA018091570190E0885B9C4F0E945A
:102F6000283590E0A0E0B0E08C159D05AE05BF05CA
:102F700068F4C81AD90AEA0AFB0AC0927B01D09207
:102F80007C01E0927D01F0927E0114C0E4E1CE0E5E
:102F9000D11CE11CF11CC816D906EA06FB0610F488
:102FA0000E949E0B10927B0110927C0110927D0179
:102FB00010927E0194B880917B0190917C01A09148
:102FC0007D01B0917E014997A105B10508F422CF9A
:102FD000C12CD12C80911F01882329F080912101DF
:102FE000853009F017CF88E08093210180918D0111
:102FF00090918E019817C4F089130CCF80907B01BB
:1030000090907C01A0907D01B0907E0140917F0165
:10301000509180016091810170918201481559059C
:103020006A057B0508F0F6CE40917B0150917C014A
:1030300060917D0170917E0140937F0150938001EA
:10304000609381017093820180938E01D0928A01F6
:10305000C092890110938B0100938C01DBCEC12CAF
:10306000D12C20915801309159012C153D0560F06B
:103070000E940D05802F0E945B058A199B09A89567
:103080002FEFC21AD20AEDCF5701A81AB90A1A14A3
:103090001B049CF479ECA716B1040CF0BBCE28EE0F
:1030A00033E0D5010E94FA3397010F2C000C440B3A
:1030B000550B0E94AD33690102C0C12CD12C809107
:1030C0005801909159010196A0E0B0E080938301EE
:1030D00090938401A0938501B0938601C7018A0D66
:1030E0009B1D96D0209183013091840140918501F0
:1030F00050918601DC010E9400346093830170933B
:103100008401809385019093860160937B01709385
:103110007C0180937D0190937E0187EF80938D01E8
:103120001EDD20917B0130917C0140917D01509109
:103130007E018BE293E029833A834B835C830E9478
:103140002835A8EEB3E0A81BB10987FDB395298106
:103150003A814B815C810E940A3424E630E040E0F1
:1031600050E00E94AD3320937B0130937C0140936B
:103170007D0150937E012ECF2496ECE00C94B73461
:103180001F920F920FB60F9211248F939F93B599B0
:1031900004C080917801811109C0B59B10C0809155
:1031A0008600909187008A3F910548F480915801EC
:1031B00090915901019690935901809358019F91E4
:1031C0008F910F900FBE0F901F9018951F920F9226
:1031D0000FB60F9211248F939F9310927801B09B9A
:1031E00010C080918600909187008A3F910548F435
:1031F00080915801909159010196909359018093C3
:1032000058019F918F910F900FBE0F901F901895AE
:103210000F9221E08C32920710F48CE291E08C52F4
:10322000914069E170E00E94863399E16B3210F0C1
:10323000982F6BE2981BECECF2E0E60FF11DE60F25
:10324000F11D9F93CF010E942835482F3196CF0161
:103250000E942835582F3196CF010E942835282FFB
:103260003196CF010E942835382F6F91421B530BA6
:10327000649FC001659F900D11240C9669E170E078
:103280000E948633620F731FCB010F900895A0E058
:10329000B0E0EDE4F9E10C949B3488E893E190937D
:1032A00026018093250190933701809336018EEBA0
:1032B0008093320118B880E187B90E941B0517B8C6
:1032C00084E00E945705AC018B5C9840833F91409D
:1032D000A0F481E0809341012091360130913701C3
:1032E000AFEBB9E00E94EB339A0140E050E00E945E
:1032F000AD333093260120932501809125019091D3
:10330000260190933701809336018EE00E945B0581
:103310008EE00E94570590933B0180933A010E94F2
:10332000A50687DB18B8C1E0C7B985E185B9C4B97E
:1033300080E00E9457058C0182E0D82ED7B8D4E0F7
:10334000D4B981E00E945705080F191FD7B990E141
:10335000C92EC4B882E00E945705080F191F15B87E
:10336000C8B9C7B9C4B980E00E9457050E94BF051B
:103370007C01D8B8D7B8D4B981E00E9457050E9423
:10338000BF05E80EF91ED8B9D7B9C4B882E00E94CB
:1033900057050E94BF05E701C80FD91F17B818B815
:1033A00014B840913601509137016A01CC0CDD1CF4
:1033B000C40ED51EC01AD10ACC1ADD0AE12CF12C9C
:1033C0009801A0E9BAE10E94EB33A70196010E949F
:1033D000AD3349015A013093400120933F019E01D2
:1033E000A0E9BAE10E94EB33A70196010E94AD3338
:1033F00030933901209338012057354E3093230103
:103400002093220180E7881A85EE980A90921C0189
:1034100080921B0189E180933201CDB7DEB7ECE0E9
:103420000C94B7340F931F93CF93DF93C82F162FAD
:10343000D42F0E94E50188E191E00E945B02CED189
:10344000612F8C2F0E941B2CC1E08091BE019091B6
:10345000BF01A091C001B091C101892B8A2B8B2B98
:1034600009F0C0E08091010187FD02C0C11104C0D4
:1034700084E191E00E945B02812F0E94E501C1116D
:1034800032C00E94E80180915D010E946D03DD233E
:1034900009F47CC080914201813128F490E0845B82
:1034A0009C4F0E945B0280E00E94EC02C11120C090
:1034B0006091BE017091BF018091C0019091C101E6
:1034C00003E028E447EF0E94F50387E291E00E94C1
:1034D0005B0281E693E00E94303523E046E464EF2E
:1034E0000E94DE041FC0D111D5CF80E00E94EC0203
:1034F00080915D010E946D03809101018E3F94F4E3
:103500008FE391E00E945B026091090170910A01D2
:1035100080910B0190910C0103E028E4409101019E
:103520000E94F5038091B6019091B701A091B80176
:10353000B091B901892B8A2B8B2BF1F080E00E948E
:10354000EC026091B6017091B7018091B801909141
:10355000B90104E028E440E00E94F50382E291E032
:103560000E945B0223E040E26FEF8091BC019091EA
:10357000BD010E94DE0407C080E00E94CB02809162
:103580004501811107C00E94C50204C080E00E946D
:10359000EC028ECFDF91CF911F910F91089584E8B7
:1035A00090E00E94A5260E94520760E082E017D8B2
:1035B00062E080E014D80E940402809176018823A2
:1035C00029F041E062E080E02DDF12C084E890E065
:1035D0000E945B0286E593E00E945B020E940B0260
:1035E0008FE30E94DA0180E00E94CB020E94C502B4
:1035F00088EE93E00E941606811104C080911A01A2
:10360000843088F20C943C020895EF92FF920F935D
:10361000CF93DF93D82F0E94040280918B010E94E8
:10362000E5018BE591E00E945B02B9D460918B01CA
:1036300080918C010CD39093880180938701C1E025
:103640008A3F9F4F08F0C0E0E0908901F0908A0126
:10365000CC2321F089E191E00E945B0280918C01F2
:103660000E94E501DD2359F09091420181E1891B1F
:103670000E94EB0189E790E00E945B0202C00E9479
:10368000C5020E940B0260917F01709180018091C0
:1036900081019091820104E026E440918E010E9414
:1036A000F503CC2369F08AE491E00E945B0222E0FA
:1036B00044E06EEF80918701909188010E94DE04C2
:1036C0000E94C5020E941302EF2869F083E491E092
:1036D0000E945B0222E045E26FEF809189019091A8
:1036E0008A010E94DE040E94C502DF91CF910F91F2
:1036F000FF90EF9008951F93CF93DF93C8E0D2EF30
:1037000011E10E94520760E082E069DAC093210172
:1037100080918D01843FE1F480917B0190917C0147
:10372000A0917D01B0917E0184369105A105B1057E
:1037300078F440E060E082E00E947C2960937B01A5
:1037400070937C0180937D0190937E01D0938D01D5
:1037500080918D01823FACF080938E0180917B013E
:1037600090917C01A0917D01B0917E0180937F01B9
:1037700090938001A0938101B093820181E045DFA5
:103780001CC00E9404028DE790E00E945B028091C1
:103790004201912F981B892F0E94EB0189E790E04D
:1037A0000E945B020E940B028FE30E94DA010E94DA
:1037B000C5020E9413020E94C50288EE93E00E9497
:1037C0001606811105C080911A01843008F499CF42
:1037D0000E943C02DF91CF911F910895A8E1B0E0D3
:1037E000E4EFFBE10C94953482E080930101809139
:1037F0002101813009F027C280917601813009F0E2
:1038000022C220915D01298B34E0239FF001112415
:10381000E655FE4F408051806280738049E0441637
:1038200042E554066104710408F00DC25B8A4A8ABD
:1038300010E08989123028F40E946303B82EA92E63
:1038400003C00E9463035C01EA2DF0E0ED56FE4FD9
:1038500024918B2D90E0FC01E057FE4FE49115B8C8
:1038600018B850EF4516510461047104B0F410FD0E
:1038700014C020901B0130901C0130E9231A3AE15A
:10388000330A41E050E00B2C02C0440F551F0A944C
:10389000E2F7CA01822B87B906C0E4B927B92090A4
:1038A0001B0130901C0104E18B2D288F0E945305D1
:1038B0004C018A2D0E945B05288D54E085169104E9
:1038C00010F4049710F0015079F780E480937B00A6
:1038D00094E590BF8B2D806480937C0036E130931B
:1038E0007A00E12CF12C1092800010928500109249
:1038F000840087E286BB288F0E941605012F017085
:10390000288D10FD05C081E88093810028B908C08A
:1039100028B90E941F0580E286BB81E88093810060
:1039200086B385FD0CC080FFFBCF41E046BBA89568
:1039300097012F5F3F4F79012035310589F718B87E
:103940001092810090E296BB209186003091870012
:10395000690140918400509185002417350738F49F
:1039600080FF05C051E056BB8FEFE81AF80A86E9E0
:1039700080937A0024E18B2D288F0E9453054C01FF
:103980008A2D0E945B05288D34E08316910410F483
:10399000049710F0215079F780903F0190904001FA
:1039A0004A895B89840E951E820C931C20911D010F
:1039B00030911E0150E925165AE13506B0F481EE2A
:1039C000C816D104E104F10438F4C60165E070E0E2
:1039D0000E948633645101C069E128523109261BD7
:1039E000310967FD339586E009C0C40160EB76E3D9
:1039F0000E94863387E0860F285D3F4F90E0A0E06D
:103A0000B0E08C159D05AE05BF0528F4C81AD90A8B
:103A1000EA0AFB0A03C0C12CD12C7601002329F04D
:103A200092E2C90ED11CE11CF11C40E5E416F10440
:103A300018F0C12CD12C76015BE0C516D104E1044D
:103A4000F10428F081E0C81AD108E108F10840919A
:103A5000360150913701A12CB12CA8EEB3E00E94A1
:103A6000EB336C8B7D8B8E8B9F8B9101DA010E94E7
:103A7000EB33A50194010E94AD33442755276C898F
:103A80007D898E899F890E94AD33C9010E94FD0600
:103A9000FC01A5019401C701B6010E946B334B01E3
:103AA0005C01CF01A0E0B0E073E0880F991FAA1F6E
:103AB000BB1F7A95D1F7BC01CD016B5F7F4F8F4F54
:103AC0009F4F2AE030E040E050E00E94AD33C50156
:103AD000B4010E94AD33E12FF0E0A1E0B0E0AC0F03
:103AE000BD1F94E0199FA00DB11D11242D933D938E
:103AF0004D935C931397011116C08CE0C816D10446
:103B0000E104F10480F03196EE0FFF1FEE0FFF1F6E
:103B100081E090E08C0F9D1FE80FF91F2083318317
:103B2000428353831F5FA8951F5F143008F481CE32
:103B300018B884E00E94230591E00D811E812F8139
:103B4000388549815A816B817C8140175107620712
:103B5000730708F090E00D851E852F85388949850B
:103B60005A856B857C85401751076207730710F4EF
:103B700083E001C082E0E92FF0E0EE0FFF1FEE0FBF
:103B8000FF1F21E030E02C0F3D1FE20FF31FD90192
:103B900034E0839FA00DB11D11240D911D912D9135
:103BA0003C9140815181628173810417150726077A
:103BB000370708F0892FE1E0F0E0EC0FFD1F44E04B
:103BC000849FE00DF11D1124408151816281738138
:103BD0004093090150930A0160930B0170930C010B
:103BE00080FD0AC080EF481651046104710420F47E
:103BF0008BEF8093010117C08CEF80930101CB0103
:103C0000BA016B5F7F4F8F4F9F4F2AE030E040E05B
:103C100050E00E94AD332093090130930A01409394
:103C20000B0150930C018091090190910A01A09120
:103C30000B01B0910C01892B8A2B8B2B11F4109264
:103C4000010117B814B86896E2E10C94B134AEE102
:103C5000B0E0EDE2FEE10C949534662EB82E860FAE
:103C6000898320912101283059F520917F013091DD
:103C70008001409181015091820157FD15C0109142
:103C80008E0109C0CA01B9012AE0312D412D512D03
:103C90000E94AD331F5F173FACF391F4243160E015
:103CA00036074105510518F48FEF9FEF45C1173FC7
:103CB00039F480E028178DE738074105410510F0F9
:103CC00020E03DE72C8B3D8B26EDA22EE3E9F1E0D1
:103CD000E60DF11D859180608E87E3E9F1E0EB0D43
:103CE000F11D859180608F87E0E9F1E0E60DF11D1F
:103CF0007590E0E9F1E0EB0DF11DC59090EC692ABB
:103D0000B92A81E0E82EF12C012D112D8E831F821E
:103D1000188619861A861B861C861D86188E198E93
:103D20001B8E1A8E0E94191580E088B960927C0063
:103D30000E9417053F8537B975B874B852E05A9597
:103D4000F1F70000000014B815B8DD243E8537B93E
:103D500075B874B860927C00A895A0927A008091A2
:103D60007A0086FDFCCF2090780030907900B092E8
:103D70007C004C2DE5D02091780030917900288B83
:103D8000398B3F8537B9C5B8C4B8A895B0927C00C7
:103D9000A0927A0080917A0086FDFCCF6091780035
:103DA0007091790060927C00472DCAD040917800D4
:103DB0005091790014B8CB01820D931DE80EF91EC5
:103DC000011D111DEA82FB820C831D83888999895C
:103DD000840F951F2E813F8168857985280F391FB3
:103DE000611D711D2E833F836887798722E3241725
:103DF000150650F075B874B80E94210514B815B8AE
:103E0000888D8395888F07C0483E73E0570718F068
:103E10008A8D83958A8F888999892817190660F079
:103E20003E8537B9C5B8C4B80E94210514B815B885
:103E3000898D8395898F07C0883E73E0970718F0B6
:103E40008B8D83958B8FD3945D2D5F3F49F05F37CA
:103E500031F45C2D550FC50E572D550F750E76CFCD
:103E600040903F0150904001440C551C9201E4E009
:103E7000240D351DEA95E1F72901570168016E808F
:103E80007F8088849984209121012830C1F46C8935
:103E90007D89812D912D65507040804090409B011F
:103EA000AC010E946B339B01AC0160E779E786E1CE
:103EB00090E00E94AD33621A730A840A950AA61430
:103EC000B704C804D90428F46A187B088C089D0834
:103ED00003C0662477244301B20180E090E093019F
:103EE000A4010E946B339501A6010E94AD3386E2C6
:103EF00093E07981870F911D0E942835682EC901B2
:103F000060E170E00E948633260F371FC9016816F2
:103F1000190618F4861991090FC08C5E9F4F8615FB
:103F2000910540F48C899D89843981E1980710F0CE
:103F30000E949E0B812D912D6E96E2E10C94B1347E
:103F4000109281001092800010926F0010928B00EE
:103F500010928A0057E056BB5FEF50938500509354
:103F6000840055E050937B0056EB50937A0051E06B
:103F70005093810058E25A95F1F7000045B944B9D1
:103F800055E05A95F1F7000014B815B81092810069
:103F900080917A0084FFFCCF80937A0008958F92FD
:103FA0009F92AF92BF92EF92FF920F931F93CF9386
:103FB000DF9300D000D0CDB7DEB78091890190911A
:103FC0008A01892B09F0B6C0E0918B01F0E0ED5633
:103FD000FE4F1491E0918C01F0E0E057FE4FF49019
:103FE0000E94191518B815B817B9F4B880918C014A
:103FF0000E945B058C0120918E018CE0820F843041
:1040000008F098C080917F0190918001A09181017A
:10401000B09182013FE0E32EE20E4AE0842E912C23
:10402000A12CB12CBC01CD016B5F7F4F8F4F9F4FF7
:10403000A50194010E94AD33DA01C901E39467E060
:10404000E612F0CF293863E136074105510508F043
:1040500071C02530310508F46DC0F5B8F4B8E12C15
:10406000F12CE216F30670F429833A834B835C83C8
:104070000E941D0582E0E80EF11C5C814B813A81B3
:104080002981EFCF14B815B8A89585E08093320147
:1040900080918C0129833A834B835C830E945B056A
:1040A00029813A814B815C810817190720F47C0132
:1040B000E01AF10A02C0E12CF12CA12CB12CA216BD
:1040C000B30670F429833A834B835C830E941D05F9
:1040D0006FEFA61AB60A5C814B813A812981EFCF36
:1040E00080918C010E945B0529E120933201A89503
:1040F0000817190718F4801B910B02C080E090E0AC
:104100008E159F0588F49701281B390B69F0A4EFE1
:10411000B1E00E94EB33970140E050E00E94AD33E4
:1041200030938A01209389010E94191517B818B895
:1041300014B815B80F900F900F900F90DF91CF919A
:104140001F910F91FF90EF90BF90AF909F908F9035
:104150000895A7E0B0E0EFEAF0E20C94953489E12D
:1041600092E0F3D58AE293E00E94283521E030E026
:10417000490102C0880C991C8A95E2F721E0821659
:10418000910451F06FE080E00E9423028FE20E94D0
:10419000DA01C4010E942F0330EF3B8354980E9440
:1041A000120514BC16BC10920E0110920F01109251
:1041B00010011092110161E065BB60936E001092D6
:1041C000800083E19AE790938B0080938A00E1E07E
:1041D000F0E0F0938900E09388001092850010923F
:1041E000840083B5816083BDF6E0F6BBF0936F0079
:1041F000789424E02093810012E31A820E940B0538
:10420000A8954F9902C031E03A8385B5811137C036
:1042100015BC86B580930E010E9413020E94C50250
:104220000E941B020E94C5020E94F30286E60E94C1
:10423000DA010E94FC018AE293E00E942835E1E065
:10424000F0E002C0EE0FFF1F8A95E2F7FF83EE83D6
:1042500020910E0130910F014091100150911101F8
:10426000DF010E94003447E00E94F30454988091DB
:104270008100882341F08FE30E94DA0104C01150CD
:1042800009F0BCCFC5CF1092810010926F00209131
:104290000E0130910F014091100150911101DA018E
:1042A000C9010197A109B109813F9048A105B10554
:1042B00008F001C1AAE0B0E00E940034DC01CB01AB
:1042C0000896A11DB11D23E0B695A79597958795F2
:1042D0002A95D1F7BC01660F771F70937101609327
:1042E000700154980E94120516BC10920E01109293
:1042F0000F01109210011092110121E025BB2093B3
:104300006E00109273011092720134E03BBB8091F9
:104310006800846080936800789480916D0080616B
:1043200080936D0019820E940B05A8954F9902C0D9
:1043300061E06A8380916D0084FF05C089818F5F91
:1043400089838A3F81F715BC80916D008F7E8093B1
:104350006D00809168008B7F8093680086B58093A4
:104360000E010E94130284E50E94DA010E94FC0102
:1043700060910E0170910F018091100190911101D7
:10438000E0917001F0917101FD83EC8328EA31E640
:1043900040E050E00E941034EC81FD815F01C12CAF
:1043A000D12CE12CF12C00E010E00E943934EE8198
:1043B000FF815F010E94393449013A011B012C0140
:1043C0002C813D812038310530F007E023E745EFAF
:1043D000B401C30116C084E6A82EB12CC12CD12C87
:1043E000E12CF12C00E010E09401C2010E9439346C
:1043F000F22FE42F07E023E747EF6F2F732F8E2F65
:10440000952F0E94F50339813A3F21F48FE30E94F2
:10441000DA0151C09401A301B101C201263E354B1E
:1044200041055105610571058105910509F008F403
:1044300042C00E941B0286E60E94DA010E94FC0133
:104440009401A301B101C201540163017101820110
:1044500021153A4C4A495B43610571058105910577
:1044600089F080F020E030E04AE85DE568E775E437
:1044700083E691E00E943934F22FE42F07E028E42C
:104480004AEF0FC020E030E44AE750E163EF7AE5FD
:1044900080E090E00E943934F22FE42F07E028E416
:1044A0004DEF6F2F732F8E2F952F0E94F5038AE704
:1044B0000E94DA01549810926E0080ED97E00E94FD
:1044C00016062A81820F49F480911A01833028F45C
:1044D0003B8131503B83311161CE2796E2E10C9450
:1044E000B1341F920F920FB60F9211248F939F93A6
:1044F000AF93BF93789480910E0190910F01A0919A
:104500001001B09111019F5FAF4FBF4F80930E011B
:1045100090930F01A0931001B0931101BF91AF913F
:104520009F918F910F900FBE0F901F9018951F9223
:104530000F920FB60F9211248F9386E085BD8F9155
:104540000F900FBE0F901F9018951F920F920FB6ED
:104550000F921124A8951092810015BC0F900FBEE8
:104560000F901F9018951F920F920FB60F92112463
:104570002F933F938F939F9380917201909173013A
:10458000892B11F481E085BD209172013091730176
:1045900080917001909171012817390730F015BC96
:1045A00080916D008F7E80936D008091720190915B
:1045B0007301019690937301809372019F918F9183
:1045C0003F912F910F900FBE0F901F9018958B3039
:1045D00008F08B50811103C087E292E036C0823030
:1045E00019F489E192E031C0813019F480E192E060
:1045F0002CC0833019F489EE91E027C0843019F47F
:104600008EED91E022C0853019F48FE890E01DC056
:10461000863019F484E890E018C0873019F48DE7EB
:1046200090E013C0883019F480ED91E00EC089301D
:1046300019F48EEB91E009C08A3019F48CEF91E007
:1046400004C0823421F485EF91E00E945B020C9457
:10465000C50208950F938FE890E077D3109221015F
:1046600060E082E08ED3809121018830C1F50E9404
:104670000B0283E40E94DA010E94FC0160917F0139
:1046800070918001809181019091820103E026E484
:1046900040918E010E94F5030E94C50260918B013A
:1046A00080918C01D4DA90938801809387010E94D5
:1046B00013028BE491E00E945B028091870190914C
:1046C00088018A3F2FEF920730F422E044E06EEF3A
:1046D0000E94DE0408C08FE30E94DA0104C00E9439
:1046E000F3020E9413020E94C50288EE93E00E942A
:1046F0001606811105C080911A01843008F4AECFEE
:104700000F9108950895A3E0B0E0E9E8F3E20C9476
:10471000953489EE91E019D380E180938000109266
:104720006F0081E090E09093890080938800109260
:104730008B0010928A0083E086BB1092820088E092
:104740008093810015B881E184B918B881E087B9F8
:10475000229A89E0809381002AE0298331E03A831C
:10476000812C912C5401839441E14B83EB81E23104
:1047700028F1C701B601A50194010E94AD336B0178
:104780007C018A8169810E947A33A92FB0E0A5015A
:1047900094010E940034C60ED71EE81EF91E1AC0EE
:1047A0005B81563108F4EAC05AE0598381E08A837C
:1047B000812C912C5401839491E19B838A8169819E
:1047C0000E947A33A92FB0E0A50194010E94003421
:1047D0006B017C010E940B02FA812981F21303C054
:1047E0003B81323138F44B81212C312C463138F069
:1047F00082E506C022242394312C8CE301C08EE391
:104800000E94DA010E94E8014B81C701B6010E94B3
:10481000F304C701B6017E5E85489F4FA70196014C
:10482000220F331F441F551F0E94AD33CA014F3F53
:10483000510539F030F08DE08093810080E094E004
:104840001FC04034510530F09CE09093810080E01F
:1048500091E016C04830510530F0EBE0E093810064
:1048600080E490E00DC0892B31F0FAE0F0938100F4
:1048700088E090E005C089E08093810081E090E0CD
:104880002C01612C712CCA01B901A30192010E9473
:10489000AD332150310930938900209388008091F5
:1048A000880090918900892B31F4E1E0F0E0F093E9
:1048B0008900E09388000E94C5020E94130286E6E8
:1048C0000E94DA010E94E80100918800109189009D
:1048D00060E079E08DE390E0A30192010E94AD33A6
:1048E000A4E6B0E00E94003498012F5F3F4F40E003
:1048F00050E00E94AD3329013A01A4E6B0E0A701DF
:1049000096010E940034A3019201261B370B480B2D
:10491000590BCA01B90105E228E44EEF0E94F503E4
:104920008AE70E94DA010E94C50280ED97E00E94AA
:104930001606883C08F051C0813580F1232809F41F
:104940002FCF3B8131503B83C501B4012AE030E0D9
:1049500040E050E00E94AD3349015A01C701B60161
:104960000E94AD33CA01B9012AE030E040E050E0D6
:104970000E94AD336A834AE04983F8CE5F5F5B8370
:10498000563111F485E18983AAE0B0E0A5019401D4
:104990000E9400344B015C011A82E8CE8B3018F083
:1049A0009A819F5F9A8380911A018B30B0F4809135
:1049B000190187FD03C0EA818E0F05C08F5FF98161
:1049C0008F0F2A81820F90E03981632F70E06F5F33
:1049D0007F4F0E949A338A83C9CE10928100109231
:1049E000800017B814B822982396E2E10C94B134F1
:1049F000A4E0B0E0EEEFF4E20C949B348EED91E095
:104A0000A4D183E28093800010926F008FEF90E03A
:104A100090938B0080938A0083E086BB1092820083
:104A200015B881E184B918B881E087B9229A81E08C
:104A300090E0909389008093880089E080938100C2
:104A400000E092E310E084E6C82ED12CE12CF12C9A
:104A500088248A9423E0922EA12CB12C9017E1F1A6
:104A6000943618F00CE9090F01C0092F202F30E00F
:104A7000AFEFB3E00E94EB336E5C7F4F8F4F9F4FE1
:104A8000A70196010E94AD3330938B0020938A00DA
:104A900029833A834B835C830E940B02A8EEB3E028
:104AA00029813A814B815C810E94003461507E4FA4
:104AB0008F4F9F4FA50194010E94AD33DA01C901C8
:104AC00025E045E26FEF0E94DE040E94C502193224
:104AD00018F08CE30E94230580E496E00E941606FD
:104AE000182F833890F480911A018B3070F49091D4
:104AF000190197FD9C59900F133310F0965FAECFBC
:104B0000112309F4ABCF9F5FA9CF17B81092810092
:104B10001092800014B822982496ECE00C94B734DC
:104B20000F931F93CF9380ED91E00FD18BE293E031
:104B30000E942835C82F0E940B020C2F0C2E000C4F
:104B4000110BC7FF0BC08DE20E94DA0123E045E2A2
:104B50006FEF88279927801B910B04C023E045E263
:104B60006FEFC8010E94DE040E94C50280E496E057
:104B70000E9416068238B0F490911A019B3090F48E
:104B800090911901C90F882329F0893210F0CF5F65
:104B900001C0C150C13514F0C556CDCFCC3E5CF636
:104BA000CB59C9CF6C2F8BE293E00E943535CF9162
:104BB0001F910F9108950F931F93CF9380E192E07F
:104BC000C4D08AE293E00E942835C82F01E010E0AB
:104BD0000E940B0223E040E260E0C8010C2E02C0FC
:104BE000880F991F0A94E2F70E94DE040E94C50212
:104BF00080E496E00E9416068238B0F490911A0183
:104C00009B3090F490911901C90F882329F08932C3
:104C100010F0CF5F01C0C150C13810F0C9E0D8CF4B
:104C2000CA30B0F2C0E0D4CF6C2F8AE293E00E9489
:104C30003535CF911F910F910895813011F4BBCF7D
:104C40000895823019F480E084CA0895833011F405
:104C50005ACD0895843011F4CBCE0895853011F4E7
:104C6000F9CC0895863019F40C94CF1A0895873042
:104C700029F40E943C020C947B1B0895883011F4A7
:104C80004FCF0895893021F481E10C94CA0708952B
:104C90008A3011F4B4C10895823411F40C9475076C
:104CA00008950F931F93CF93DF9382E392E04DD04B
:104CB000C0E0DAE0DC0F10E001E0010F60E0802FDF
:104CC0000E942302113021F48EE30E94DA0102C017
:104CD0000E94E801DB3018F085EF8D0F01C08D2FA9
:104CE00076DC102FDF5F033039F780E090E00E9420
:104CF0001606823330F490917701992371F088235E
:104D000061F0CC23E1F08C2F98DF10921A01109201
:104D1000190182E392E019D080E090911A019A3053
:104D200070F49091190197FD955FC90F811105C02D
:104D3000CB3008F4BECFCB50BCCFCF5FF9CF80E0F3
:104D4000DF91CF911F910F910895A2E0B0E0EBEABF
:104D5000F6E20C94A43489839A830E943C028981F0
:104D60009A810E945B0214E682E00E9423054F991B
:104D700002C01150C9F70E940B022296E3E00C9486
:104D8000C034A4E0B0E0E7ECF6E20C949C34182FB9
:104D9000062F262F30E0F901ED56FE4FF490E82F54
:104DA000F0E0E057FE4FA490F901E057FE4FE49089
:104DB000109288011092870110927B0110927C0161
:104DC00010927D0110927E0187EF80938D010E94E9
:104DD000191518B8F7B8E4B8E5B8812F0E945B053B
:104DE0007C01802F0E945B05E81AF90A14B8109222
:104DF00059011092580120E030E09CE2C92EDD24D8
:104E0000D3944AE0942E54E6B52E809158019091A7
:104E10005901843D904308F071C0A5B880915801B4
:104E200090915901892B89F0F601E21BF30B6091F7
:104E3000580170915901929EC001939E900D1124CA
:104E40000E948633E617F70750F4A4B80E941605AF
:104E500014B88091580190915901019628C0809111
:104E60005801909159010B97C8F0609158017091C9
:104E70005901B29EC001B39E900D11240E94863349
:104E80006E177F0758F4A4B80E940B0514B88091E0
:104E90005801909159018C599F4F09C0A4B80E94A4
:104EA000110514B880915801909159010A96909378
:104EB00059018093580115B80E941805A895812FB3
:104EC0000E945B059C012E193F0980915801909129
:104ED00059018B31964018F0253231057CF02D3286
:104EE00081E038070CF491CF8091580190915901DD
:104EF000019761F4253185E0380744F017B818B8F8
:104F000014B815B82496EBE00C94B83440915801CD
:104F100050915901440F551F60E070E040938301A8
:104F2000509384016093850170938601C90168E202
:104F300070E00E949A33C901860F971F0E940819DA
:104F40002091830130918401409185015091860127
:104F5000DC010E940034609383017093840180938C
:104F600085019093860160937B0170937C0180930F
:104F70007D0190937E010E94AF1520917B013091BD
:104F80007C0140917D0150917E018BE293E0298369
:104F90003A834B835C830E942835A8EEB3E0A81BBC
:104FA000B10987FDB39529813A814B815C810E94CB
:104FB0000A3420E137E240E050E00E94AD33209314
:104FC0007B0130937C0140937D0150937E0188E00A
:104FD0008093210120937F013093800140938101D0
:104FE0005093820180918D0180938E0110928A01ED
:104FF0001092890100938B0110938C017FCFCF9287
:10500000DF92FF920F931F93CF93DF930E943C0296
:1050100085E091E00E945B020E940B0281EC90E02F
:105020000E945B0288E293E00E94283523E040E280
:105030006EEF90E00E94DE0489E293E00E94283542
:1050400023E040E26EEF90E00E94DE0487E293E00E
:105050000E94283523E044E06EEF90E00E94DE04D9
:105060000E9413028AEB90E00E945B0223E044E07E
:105070006FEF80913801909139010E94DE040E9407
:105080001B0283EB90E00E945B0223E044E06FEFA1
:1050900080913F01909140010E94DE0488E99AE3EB
:1050A0000E94160680911A018B3008F0C2C08091D0
:1050B000190187FDABCF0E943C028FEA90E00E946D
:1050C0005B028DE493E00E94283590E042970E94B5
:1050D00039038EE493E00E94283590E042970E94C5
:1050E00039038AE493E00E94283590E023E046E407
:1050F00064EF42970E94DE040E940B0283E00E944C
:10510000EB0189E493E00E94283590E042970E94E9
:1051100039038CE493E00E94283590E042970E9486
:10512000390388E493E00E94283590E023E046E4C8
:1051300064EF42970E94DE040E9413028DE190E02A
:105140000E945B028FE493E00E9430350E942403AA
:105150000E941B0286E190E00E945B0281E593E0E1
:105160000E942835082E000C990B0E94240360E051
:1051700083E00E942302C0E0FC2EFF0CFC0ED0E076
:10518000FA94CD1709F449C00F2D0D0F10E0000F50
:10519000111FC801865C9C4F0E9430356C01C8010C
:1051A000845D9C4F0E9430358C018091A901833031
:1051B000A8F088E99AE30E94160680911A018B30C4
:1051C000C0F5909119019E3F0CF420CF9E3F09F449
:1051D00072CF9F3F61F20E943C0203C080E00E94B8
:1051E000CB0287EA90E00E945B028C2F0E94E501CF
:1051F0008AE30E94DA018D2F0E94E50180E00E947F
:10520000CB0223E040E26EEFC6010E94DE0423E001
:1052100046E462EFC8010E94DE04DF5FD33009F08C
:10522000B0CFCF5FC33009F0A7CF88E99AE30E94DF
:105230001606DF91CF911F910F91FF90DF90CF90D5
:10524000089508958F929F92AF92BF92CF92DF926E
:10525000EF92FF92AC014C01A12CB12C7401DD2422
:10526000CC24E52FFF279A01DA010E94EB339695B3
:105270008795969587959C01369527953695279520
:10528000B901769567956E9FD0016F9FB00D7E9F97
:10529000B00D1124821B930B9A0164E0369527957B
:1052A0006A95E1F7E20FF31FE40FF51FAF0160E02D
:1052B00070E0480F591F611D711DCD01E3E0969507
:1052C0008795EA95E1F7A81BB90B9A01AB012A0F64
:1052D0003B1F411D511DC501B4010E946B336C0D74
:1052E0007D1D8E1D9F1DFF90EF90DF90CF90BF9092
:1052F000AF909F908F900895A7E0B2E0E2E8F9E2C6
:105300000C949534182FCD5FDD4F6883C350D24085
:10531000CF5FDD4F4883C150D2400E941915E12F65
:10532000F0E0E057FE4FB490AB2CAA0CCD5FDD4F00
:105330002881C350D240E22FF0E0ED56FE4FE491B9
:10534000E7B915B8B4B8812F806480937C000E94BF
:105350001705CF5FDD4F3881C150D2403170CE5F2D
:10536000DD4F3883C250D240CF5FDD4F4881C150FE
:10537000D24040FD02C0DA2C01C0DB2CF0E2FF2E4F
:1053800080E090E0CB2CED2C0A2D2D2D44E7BE01C2
:105390006F5F7F4F0E943400FA9480E490E0F11038
:1053A000F1CF14B81E0157E4250E311CE3E24E2E56
:1053B000512C612C712CC12CD12C7601812C912C7B
:1053C0005401CE5FDD4F6881C250D240F10180812F
:1053D0009181662329F020E030E8281B390BC901B0
:1053E00031DF9C0140E050E0820E931EA41EB51EEA
:1053F000C301B2010E946B33C60ED71EE81EF91E10
:10540000FFEF4F1A5F0A6F0A7F0A22E0220E311C5B
:1054100034E7431651046104710499F6C501B401DF
:1054200021E530E040E050E00E94AD33ABEBB7E166
:105430000E940034A7019601261B370B480B590B1D
:1054400074E056954795379527957A95D1F760EE94
:105450007DEC81EC9FE80E94AD33CF5FDD4F68812A
:10546000C150D24061FD48C0CD5FDD4F8880C35040
:10547000D2408A94812F880F180F180D812F90E049
:10548000CE5FDD4FE881C250D240880F991FEE23D6
:1054900019F0845D9C4F02C0865C9C4FCC5FDD4F51
:1054A0002883C450D240CB5FDD4F3883C550D240F3
:1054B000CA5FDD4F4883C650D240C95FDD4F588375
:1054C000C750D2400E943035CC5FDD4F2881C45098
:1054D000D240CB5FDD4F3881C550D240CA5FDD4F2F
:1054E0004881C650D240C95FDD4F5881C750D24075
:1054F000281B390B41095109CA01B901C95FDD4FA8
:10550000E2E10C94B1344F925F926F927F928F924E
:105510009F92AF92BF92FF920F931F93CF93DF930F
:10552000C0E0FC2EFF0CFC0ED0E0FA94CD1709F47D
:1055300040C042E06D2F8C2FDFDE2B013C0143E0A9
:105540006D2F8C2FD9DE4B015C010E943C0287EA53
:1055500090E00E945B020E94E8018C2F0E94E5010E
:105560008AE30E94DA018D2F0E94E5010E94E80182
:105570000E940B0224E040E26EEFC2010E94DE04B2
:1055800024E046E462EFC4010E94DE040F2D0D0FFB
:1055900010E0000F111FB201C801865C9C4F0E94F1
:1055A0004335B401C801845D9C4F0E9443350E947D
:1055B000C502DF5FD33009F0B9CFCF5FC33009F048
:1055C000B0CF0E94040288EA91E00E945B020E9430
:1055D000C50288E20E942305DF91CF911F910F91B0
:1055E000FF90BF90AF909F908F907F906F905F9053
:1055F0004F900895A2E1B0E0E0E0FBE20C94953416
:105600002C017C836B83DD24D3942D2C312C83E0FF
:10561000D89EA00111245C874B87F101EE0FFF1F7C
:10562000EE0FFF1FFE87ED87812C30E4932E50E0B4
:10563000612C712C18861F82A12CB12C1A82198220
:105640001E821D8240E0C12CE0E0F0E020E030E06E
:1056500061E070E08FEF90E082199309988B8F875B
:105660000C2D10E08F859889081719070CF05EC083
:10567000D801A20DB31DAA0FBB1FA40DB51D8D919E
:105680009C91E80FF91FD801AA0FBB1FA40DB51DEF
:105690008D919C91280F391FCD1408F48DC0D8012D
:1056A000A219B309AA0FBB1FA40DB51D0D90BC9183
:1056B000A02D2A1B3B0BE81BF90B7F01E20EF31E0A
:1056C000C9018E1B9F0B89879A87D701B695A7952D
:1056D000B695A795A80FB91FB7FD9EC0E217F307AF
:1056E00008F072C0513009F06FC0D80156E0AA0F1F
:1056F000BB1F5A95E1F7BA8BA98BDC01A61BB70B30
:10570000BD01A817B90768F0A6E0880F991FAA95F0
:10571000E1F78096FBD789899A89861B970B9A8B2C
:10572000898BAB85BC85EA16FB0630F4EB81FC81E6
:10573000EF2B09F04DC07AC08D859E85081719079B
:10574000C4F1A989BA894423B1F0A619B709433035
:1057500060F0C40196958795B401605E7F4F860F17
:10576000971F8A179B0708F45DC0DB1640F4DD2401
:10577000D394DB0E4ACFB887AF83FE82ED82AE0CA6
:10578000BF1C4F5F4230D8F0642F70E06150710948
:10579000CB0195958795A989BA898A0F9B1FAF81FF
:1057A000B8858A1B9B0BB2D74B0169887A88FA822D
:1057B000E982453140F036C069877A8705C069883B
:1057C0007A88FA82E98250E0C39469857A8548CF65
:1057D0004230D8F09501ED81FE812E1B3F0BA8EEE3
:1057E000B3E0F9D7950149815A81241B350B40E07C
:1057F00050E0B3D788EE93E0821B930B0E94FD0626
:10580000BC0188EB9AE782D702C060E070E0AB8110
:10581000BC816D937C930AC0E217F30708F465CF4F
:1058200051E0D2CFEB81FC81EF2BA1F6C40162964F
:10583000E2E10C94B134A6E2B2E0E1E2FCE20C94C5
:105840009734F82E062F81E693E00E9430353C0114
:10585000E02FF0E0E057FE4F1491EF2DF0E0ED5611
:10586000FE4FE4911092B6011092B7011092B80168
:105870001092B9011092BD011092BC011092BE01AC
:105880001092BF011092C0011092C10180912101BC
:10589000813009F04CC18091010118160CF447C108
:1058A00018B8E7B90E941705006CB02E00937C0071
:1058B0000E941705C12EE12C00E0212F4FEFBE0101
:1058C0006F5F7F4F80E191E00E9434008F2D806CEC
:1058D000F82E80937C00212F44E1BE0161507E4F61
:1058E00080E191E00E943400FE013196DE01A1507A
:1058F000BE4FAE01475D5F4F808191812D913D91FB
:105900008217930728F0821B930B9183808302C038
:10591000118210823296E417F50771F7B0927C007D
:1059200060E070E0CE01019665DE9F5F913148F046
:10593000903470F090E1A92EBA2C24E0822E912CA4
:105940000EC080E1A82EBB24B394812C912C07C0FB
:10595000B0E1AB2EB4E0BB2E02E0802E912CA8E08B
:10596000DA2EA895C12EE12C00E0212F4FEFBE01C9
:105970006F5F7F4FC5010E9434008114910479F05C
:105980006CEB71E0CE01019635DE5C0181ECA8166E
:105990008FE3B80608F45AC0A12CB12C57C0689404
:1059A000A6F8DA94D110DDCFA11484E0B80610F087
:1059B0008EEF38C0F0927C00E894A6F8F8E0FF2E55
:1059C000C12EE12C00E0212F44E1BE0161507E4F49
:1059D000C5010E9434006894A6F8FA94F110F0CF43
:1059E00024E1215028F3822F90E0880F991FE1E0F5
:1059F000F0E0EC0FFD1FE80FF91F40815181AFEF80
:105A0000B1E0AC0FBD1FA80FB91F8D919C91481735
:105A1000590728F0481B590B51834083E2CF11826C
:105A20001082DFCF8F3F09F4ABCFFE013196E80F34
:105A3000F11DE80FF11D2081318173E03695279526
:105A40007A95E1F7318320838150ECCF6501E12C19
:105A5000F12C9501D501BFD623E330E040E050E0C2
:105A60007CD6A8E6B2E0CCD68301169507959801BE
:105A700040E050E072D6C4010196880F991F2901B9
:105A80003A0104C0440C551C661C771C8A95D2F759
:105A90004092BE015092BF016092C0017092C1015C
:105AA0008091090190910A01A0910B01B0910C0124
:105AB0000397A105B10540F01092BE011092BF01FD
:105AC0001092C0011092C101A114B10469F41092A6
:105AD000BD011092BC011092BE011092BF01109244
