:10000000F2C4000002C5000000C50000FEC40000EC
:10001000FCC400000C949427F8C400000C94270C36
:10002000F4C40000F2C400000C94F51D0C94782771
:100030000C9486270C94CF1DE8C40000E6C4000091
:100040000C945227E2C40000E0C40000DEC40000AB
:10005000DCC400000C94280CD8C40000D6C40000F6
:10006000D4C40000D2C40000E62FF72F903009F46A
:100070009395E5B8C4B8B6EFB0937A00A5E0A09325
:100080007B00A8E0A093810010928000AFEFA093C6
:100090008500A0938400A6E0A093360010928B0008
:1000A00010928A00B3E0AFE3A91B51E0392F33303F
:1000B0002AF0A05CBC4F53953350F9CFB093890020
:1000C000A0938800A0917A00A4FFFCCFB6EBB09378
:1000D0007A00A2E0A0936F00A9E0A093810062E003
:1000E000A0E0A0937B00A1E0A09353008895E5B821
:1000F000C4B884FF1AC0A8E10000AA95F1F7EF93F5
:10010000FF93E7B1F8B1A4E0C2FCA2E0C0FCA1E01B
:10011000BF2FBA2BAE2BB8B904B9A7B9E7B9F8B954
:10012000FF91EF910BC00C947300ACE10000000054
:10013000AA95F1F725B9E5B8000004B9A0918400AB
:10014000A0918500B0918900A395AB1760F7A091AD
:100150007A00A4FFF3CFB6EBB0937A006A9571F7FB
:100160006091780070917900308186FD630F619312
:10017000308186FD731F80FF7193652F4A9579F753
:1001800010926F0010928100B6E0B0937A0008954B
:10019000E601DF01D801FEFDFBF7EFDFBF7F0102C3
:1001A0000408102040801008407E01013E01013EFD
:1001B00001013E01017E404018000720080808F8B0
:1001C0000000002060A03FA06020020202FF0202A7
:1001D000021010101F000000050842818989760571
:1001E00008C2A19189860508000402FF00101005CD
:1001F00008F878385888091003081C3E7F0D080756
:1002000010FF818181F1E1C1FF4040404743410D32
:10021000080110FFFF11080310F1E1C14743410E2F
:100220000008202121122060E0E0E0FEFE0402012F
:100230000001037F7F21C2C4C4C04094840007032F
:100240000102040E080210FEFE7F7F000000001174
:100250000005202060E0E0E00201000103C2C4C408
:10026000C04007030102040104100102044E696545
:10027000FF736B616C6962726F77616E7921205ACE
:10028000656279FF736B616C6962726F776163207D
:10029000706F6C61637A2072617A656D2033FF70D4
:1002A000696E792069FF726F7A706F637A6E696A1E
:1002B0002070727A796369736B69656D2E20506F57
:1002C0007477696572647A206175746F746573748C
:1002D0002077FF63696167752032FF73656B756E08
:1002E000642E20526F7A6C61637A2070696E792077
:1002F000706FFF6B6F6D756E696B6163696520224E
:10030000526F7A6C61637AFF50696E79212220699D
:10031000FF706F646C61637A206B6F6E64656E73DF
:1003200061746F722070727A6E616A6D6E69656A4F
:10033000203130306E4620646FFF70696E75FF317A
:10034000FF69FF3320706F20777973776965746C6C
:10035000746C656E6975206B6F6D756E696B617419
:100360007520223108030833FF3E3130306E4622BB
:10037000204F70726F6772616D6F77616E69652073
:1003800069FF646F6B756D656E7461636A6120737C
:1003900061FF6E61FF7374726F6E69652022737600
:1003A0006E3A2F2F206D696B726F636F6E74726F70
:1003B0006C6C65722E206E65742F7472616E736939
:1003C00073746F7220746573746572222000B903B0
:1003D000870358032E030703E402C302A402880222
:1003E0000000140029003E005300690080009700BF
:1003F000AE00C600DF00F80012012D0149016501C1
:100400008201A001BE01DE01FF0121024402680257
:100410008E02B502DE020903350364039403C803A8
:10042000FE0337047304B404F90443059305EA0595
:100430004906B3062907AE074808FF08DE09FD0A8A
:10044000930C480F991B0000000000000000000002
:100450000000000000001E2121211200807F00000A
:10046000007E4A4A4A34000000000000FC40201090
:100470000804020100000001010101010101010164
:10048000010101017F0488D0E0F0F80000000000C5
:1004900000000000000000000000000000FC949438
:1004A0008400000102FC00000000000000000000C9
:1004B00000001E21212112E0C0804020100F00000A
:1004C00000C020202040000000FC00009E9E04038D
:1004D00003030302000000202023242525232020DD
:1004E000203F00007B7B2142840480C0000000008C
:1004F00000000000000000000000FC949484000450
:100500000607070708F000000000000000000000D8
:10051000000000803F2121120C00000000FF0000BD
:1005200000F0084848C80000FE0000E7818181C152
:10053000E1F1818181010020202021212120202042
:100540003F0000F340404041434740407FC000002F
:100550000000000000000000000000004894949497
:100560006400000000FF0000000000000000000028
:100570000000000000003F2121120C0000FF0000DD
:1005800000F0084848D0000000000000FEFE04040F
:100590000404040404070008080809090908087F7E
:1005A0003E1C08087F7F20202020202020E0000023
:1005B000000000000000000000000000000048945F
:1005C0009494640000FF00000000000000000000A0
:1005D00000FF003C0A090A3C0022312929260000BC
:1005E00082868E9EBEFEFEBEDEEFF6FAFEFEFAF2BA
:1005F000E2C28200000008080804027984A4A4680A
:1006000000FF0000000000000000000000000000EB
:10061000000000000000000000FF0000F028242877
:10062000F0001008FC0000000000000000000000C6
:10063000003C0A090A3C00FF000000000000000026
:1006400000000000000000000000040C1C3C7CFFC7
:100650007C3C1C0C040000000000009EA1A9A99A8B
:10066000804323130B0703FF03030303030300006B
:10067000000000000000000000788484844800FF2F
:10068000000000000000000000F00804E211090969
:10069000090909090909091121C2040810E000002B
:1006A00000010204040700000000008040201088C0
:1006B00044231008040300000000000000000000B4
:1006C00000FE0100FC02010000000000000000002C
:1006D0000000000000000000007949497900000096
:1006E000000000000000083E22223E08087F22147D
:1006F000087F7F0814227F087F7F00007F7F0058DB
:100700006404645800807C40403C22222222223E25
:100710003E222222222208080808080838404030D9
:10072000404030404030403800807E01493600066D
:100730002979290600000000000000607E0A353F8C
:10074000002A1C361C2A00E0514F41FF007F404028
:1007500040FF007F407F40FF00E0544C44FC001805
:10076000247E2418007C404040FC007C407C40FCFF
:100770000014B6FFB6140004067F06040010307F94
:1007800030100008083E1C0800081C3E08080078CD
:100790004040404000083E083E0800303C3F3C30AE
:1007A00000030F3F0F030000000000000000005E88
:1007B000000000000600060000287C287C28004875
:1007C00054D6542400422018044200344A5A24507B
:1007D00000000A0600000000182442000000422425
:1007E00018000014083E0814001038100000000023
:1007F000A060000000101010100000000040000079
:10080000000060180600003C464A523C0000447E4E
:10081000400000645252524C0024424A4A340018AC
:1008200014527E50002E4A4A4A32003C4A4A4A320A
:1008300000020262120E00344A4A4A34004C5252FC
:10084000523C000000240000000040240000001082
:100850002844000000002828280000004428100038
:10086000000402520C00007C82BAA65C007C1212CA
:10087000127C007E4A4A4A3C003C42424224007EAE
:100880004242423C007E4A4A4A42007E0A0A0A022A
:10089000003C424A4A3A007E0808087E0000427E38
:1008A000420000224242423E007E08182442007E5E
:1008B00040404040007E0408047E007E0408107E14
:1008C000003C4242423C007E1212120C003C42525A
:1008D000225C007E1212324C00244A4A522400024A
:1008E000027E0202003E4040403E001E2040201E8C
:1008F000003E403C403E00422418244200024C701E
:100900004C020066524A46620000007E420000002F
:1009100006186000000000427E000000040204008F
:1009200000404040404000000204000000205454B9
:100930005438007E44444438003844444428003845
:100940004444447E00385454541800087C0A0A0079
:100950000098A4A4947C007E080808700000487ADF
:100960004000004080887A00007E1068440000004B
:10097000427E4000007804780478007804047C000B
:1009800000384444443800FC24444438003844448B
:1009900024FC000078040408004854545420000447
:1009A0003E442400003C4040207C001C2040201C91
:1009B000003C4030403C004428102844008C9060AB
:1009C000100C004464544C44000008364100000000
:1009D00000FE00000000413608000008082A1C083C
:1009E000003C2623263C11241FBECFEFD8E0DEBFFB
:1009F000CDBF25E0A0E0B1E001C01D92A63CB2074A
:100A0000E1F70E9407340C94FE3BFACA5A9A529AB4
:100A10005D98559A35D02FD05A9832D080FD5A9A89
:100A200080FF5A982DD05A982BD067FD5A9A28D01B
:100A30005A9866FD5A9A24D05A9865FD5A9A20D041
:100A40005A9864FD5A9A1CD05A9815D05A9863FD4A
:100A50005A9A16D05A9862FD5A9A12D05A9861FD45
:100A60005A9A0ED05A9860FD5A9A0AD05A9803D0D2
:100A7000E4D4E5C4089504D003D002D001C00895A1
:100A80005D9A5D9A5D980895609346058093040190
:100A90008093AD05862F880F680F660F60930F0156
:100AA00008951092AD0560E080E0EECF089581E0FA
:100AB0008093AD0560E0E8CF089582E08093AD05B6
:100AC00060E0E2CF089583E08093AD0560E0DCCF85
:100AD000089580914605809301018091AD05809332
:100AE000030108956091010180910301CDCF089524
:100AF000CF93C82F692F81E089DF6C2F81E086DFDB
:100B0000CF910895682F80E081CF089521E431E0EE
:100B100040E480E090E0F901E80FF91F10820196AF
:100B200080319105C1F74150205F3F4F4111F1CF16
:100B3000B8CF08950895582F28E030E090E841E0BC
:100B400080E0642F652309F0892B440F969521508E
:100B50003109B9F70895A9E0B0E0E1EBF5E00C94B4
:100B60003D3B9C838B836987662E712C802F90E0A0
:100B7000B301680F791F613871050CF0A5C06E2DA7
:100B800070E0FB01E40FF11DE134F1050CF09CC0B5
:100B9000812C912C122F1270DB011197BE83AD8333
:100BA00068E0462E512C21700197FC01E60DF71DDF
:100BB000F887EF8377E0272E312C382D8E1408F03C
:100BC00083C01123A1F08D819E8188199909BC01F0
:100BD00097FF02C0695F7F4F53E0759567955A95FF
:100BE000E1F7D62EB2010E94423AFC0107C0D32E93
:100BF000D694D694D694E32FE770F0E0E256FE4FF9
:100C0000F490D09EB00111247A836983A12CB12C79
:100C1000340F70E1379F600111248A2DA01608F06F
:100C20004FC0222399F08F8198858A199B09BC01B6
:100C300097FF02C0695F7F4F33E0759567953A95DE
:100C4000E1F7362FB2010E94423A0CC0B501660DA1
:100C5000771D93E0759567959A95E1F7362F9985FD
:100C6000890F8770E981FA81EA0DFB1DAB81BC8198
:100C7000EA0FFB1FE491EF2190E0632F70E071F425
:100C8000F101E81BF90BEA56FE4FE4916C0D7D1D56
:100C9000DB01AF5BBE4F8C91E8230DC0F101E81B77
:100CA000F90BE256FE4FE4916C0D7D1DDB01AF5B4D
:100CB000BE4F8C91E82BEC93BFEFAB1ABB0AADCFC4
:100CC000EFEF8E1A9E0A79CF2996E2E10C94593BF8
:100CD000EF920F93482F282F2F7380E6289F9001C3
:100CE0001124C9018A5B9B4F46FF02C028E001C066
:100CF00028E42093100147FF03C01092000108C0B0
:100D000020E220930001209110012D5E209310011C
:100D100020E2E22E08E120E0409100016091100104
:100D20001ADF0F91EF900895EF920F93262FFC0199
:100D3000649131964491319604913196E4903091CA
:100D40000001430F30911001630F049604DF0F91EF
:100D5000EF90089560E0E8CF0895EF920F9390919F
:100D600046059F5F9093460540910401440F440F50
:100D7000440F26E0829FC001112428E0E22E06E005
:100D800020E060910F018A51994FE5DE80910F01BB
:100D90008A5F80930F01A8950F91EF9008958F5C63
:100DA000DCCF089580E2D9CF0895A1E0B0E0EBED6B
:100DB000F6E00C944D3B18162CF48983F3DF8981FF
:100DC0008150F9CF2196E2E00C94693B9091460561
:100DD00085E1891BEACF0895A1E0B0E0E2EFF6E0FB
:100DE0000C944D3B8983F2DF9091AD059F5F90930A
:100DF000AD058981983038F097E09093AD0591E08A
:100E00009093490502C010924905682F8091AD0565
:100E10003BDE2196E2E00C94693BDEDF73C408956B
:100E200040DED4DF3ECE089542DED0DF40CE0895CE
:100E30008DE393CF0895CF93DF93EC0189918823BD
:100E400011F08BDFFBCFDF91CF910895CF93DF932C
:100E5000EC01FE018491982F9F7719F07EDF219697
:100E6000F8CFDF91CF910895CF93DF93EC01CE01BE
:100E70000E94D03B982F9F7719F06FDF2196F7CF14
:100E8000DF91CF910895EF920F93FC010491319679
:100E9000E490029660DE0F91EF9008950F9386E93B
:100EA00091E0E2DF409191054D3F64F460917F0550
:100EB00070918005809181059091820503E026E480
:100EC00068D102C08FE349DF0F910895909124010A
:100ED0009F70923071F4A1DF84E790E0C5DFE0916C
:100EE0004705F091480522E044E06FEF8481958149
:100EF00039C20895EF92FF920F931F93CF9381E42D
:100F0000E82E81E0F82EC0E0C03228F48C2F8068F3
:100F1000F9DD80E805C080EE8C0F8068F3DD88E89D
:100F2000F1DD00E010E0F701E00FF11F608181E0EA
:100F30006DDD0F5F1F4F00311105A9F7CF5F80E115
:100F4000E80EF11CC03401F7A895CF911F910F91C5
:100F5000FF90EF9008955A98529A5D98559A5CD2F6
:100F60005BD280E2CFDD68D280E2CCDD8CE0CADDEE
:100F700063D281E0C7DD55D286E0C4DD5DD284E274
:100F8000C1DD5AD2C3DD58D286E2BCDD55D2B2DF14
:100F900088CD089597FF09C08F939F938DE2DDDE82
:100FA0009F918F91909581959F4F6CE271E04AE0FF
:100FB00050E00E949D3B3FCF0895ECDF01C0EADF87
:100FC000F1CE0895EF92FF920F931F93182F062FE3
:100FD000F42E88E791E048DFEE24E0914705F09198
:100FE00048058685E81611F4812F09C08485E81626
:100FF00011F4802F04C08585E81611F48F2DADDE25
:10100000E3948E2D833049F71F910F91FF90EF905D
:101010000895EF92FF920F931F93182F062FF42E2F
:1010200080E0FBDE8EE791E01FDFEE248E2DB7DE41
:10103000FFDEE0914705F09148058685E81611F43A
:10104000812F09C08485E81611F4802F04C085859E
:10105000E81611F48F2D81DEA5DEE3948E2D83300A
:1010600029F71F910F91FF90EF900895682F80E06E
:1010700092E0662309F491E0623009F481E008957A
:101080000F93282F84E0289FF0011124E255FA4F96
:10109000608171818281938164367105810591053A
:1010A00078F43091020137FD0BC0822FDFDF682F0B
:1010B000892F0E94382323E044E06EEF53D104C00F
:1010C00004E024E04FEF65D06DDE0F910895863087
:1010D00058F4E1EAF5E0E80FF11DE80FF11D808119
:1010E000918163E04AD15ECE08951F93182F8091BD
:1010F0007A05882319F056DE80E02FDED8DC8FE6F3
:1011000091E0B2DE812F82958F70E1DF812F8F70A9
:10111000DEDF1F9108958091110182958F7019D0A3
:101120008091110183701CD080911101DECF089550
:10113000E5E9F5E0E80FF11D0895CF93F9DF90811F
:10114000C681C91710F405D001C013D02BDECF9192
:101150000895EEDF8F93808122DE8F9101C0089584
:101160008F9387E391E080DE8F91E2DF868117CE57
:101170000895DEDF8F93868112DE8F9101C008957E
:101180008F9383E391E070DE8F91D2DF808107CE71
:101190000895AEE0B0E0EFECF8E00C943D3B142F86
:1011A000622E702E6B017C010F7080E389838A832D
:1011B0008B838C838D838E83F7FE0BC08DE2CDDD18
:1011C000F094E094D094C094C11CD11CE11CF11C9B
:1011D00004C075FE02C08BE2C0DD033061F1043053
:1011E00099F00530C1F00630F1F074E6872E912CAD
:1011F000A12CB12C073029F530E8832E36E9932E47
:1012000038E9A32EB12C1DC060E1862E67E2962E30
:10121000A12CB12C16C050EA852E56E8952EAA2492
:10122000A394B12C0EC040E4842E42E4942E4FE0EF
:10123000A42EB12C06C088EE882E83E0982EA12C17
:10124000B12C2AE0222E312C412C512CC814D90467
:10125000EA04FB0470F0C701B6016B5F7F4F8F4F4C
:101260009F4FA20191010E94553A69017A011F5FC7
:10127000EDCF81E1810F9BEA899F812D1124A82E5A
:10128000A69486E0811B899F112D11241695912F1C
:10129000990F190F811B182F4E0187E0880E911CA2
:1012A0002AE0A401C701B6010E947C3BF401019031
:1012B0000020E9F731977F01E818F9089E2C6701B3
:1012C000DD24812F90E004968C159D0514F4A394E1
:1012D0001D5F8A2D90E0845D9F4F0E94D03BA82E19
:1012E00074FE04C0901610F40E1901C000E09E2C8C
:1012F000911A900E191424F08EE22FDD012F0E1991
:10130000111102C098EF992E812C10E0C00ED11E51
:10131000E92C092C000CFF08482D50E04C155D0508
:10132000ACF4FA013696E01BF10B81E090E08C0FF3
:101330009D1FE80FF91F808110DD8394882D90E0B8
:101340008E159F0549F78EE208DDE6CFAA2011F041
:101350008A2D03DD662011F0862DFFDC2E96E2E15A
:101360000C94593B0F93362FBC0180E090E0022F84
:10137000242F432F0EDF0F9108950F93062FBC01EA
:1013800080E090E026E54DEF04DF0F9108950F9384
:10139000042F28E440E0FDDE8AE7DFDC03DD0F9167
:1013A0000895E82FF0E0EE0FFF1FE057FE4FA591E4
:1013B000B49190910001490F90911001690F20E0C4
:1013C000CD0161CD0895CF93DF93C82FD62FE09143
:1013D0004705F091480548E16EE18685E2DFE0913E
:1013E0004705F09148054D2F6C2F8485DADFE09199
:1013F0004705F091480540E06EE18585D2DFDF9139
:10140000CF910895089503D002D001D000D000D02C
:1014100003D002D001D000D000D003D002D001D040
:1014200000D000D0A89503D002D001D000D000D0C9
:1014300003D002D001D000D000D003D002D001D020
:1014400000D000D003D002D001D000D00000089519
:1014500090E0893C28F0885C48EC849FC00111240E
:10146000009709F4089520918100277019F0DADFC0
:101470000197F6CF8130910519F002973EE303C042
:1014800037E180E090E02091B200230F2093B30079
:1014900042E04093700027E023BF889526E023BFF9
:1014A00010927000A895DCCF8F9384E0D1DF07C045
:1014B0008F9382E0CDDF03C08F9381E0C9DF8F91EE
:1014C0001F93182F106410937C00E12FE078809117
:1014D0003701E81759F0E0933701AEDF8EE98093CA
:1014E0007A0083E083BF889582E083BF20E030E00C
:1014F000A901E0E01FC08EE980937A0083E083BFFA
:10150000889582E083BF6091780070917900260F02
:10151000371F411D511DE43061F480913901803045
:1015200041F084E02030380720F417FD02C0106835
:10153000CACFEF5F80913601E817E8F260913A0177
:1015400070913B0117FF04C060913801709139011F
:1015500080E090E00E94133A2FEF33E040E050E04B
:101560000E94553AB901CA012091360130E040E0AD
:1015700050E00E94553AC9011F9108959B01281B14
:10158000390B50F0C9010895BC0180913A01909146
:101590003B016817790718F4861B970B089580E0C4
:1015A00090E0089599B193FB992790F94999926039
:1015B00080911C01843050F08EE08093180190934C
:1015C000190110921D0181E080931C0180911C0182
:1015D000E82FF0E0E85EFE4F3081391729F19111D4
:1015E0001AC0E3E0E80FE37020911D01323041F4AE
:1015F000F0E0E85EFE4F3081333069F42F5F09C0C0
:10160000313049F4F0E0E85EFE4F3081333019F4B8
:10161000215020931D01E1E0E80FE370E0931C01ED
:10162000F0E0E85EFE4F908380911D0187FD81957B
:1016300080931E010895A0E0B0E0E1E2FBE00C948D
:10164000463BE82ED92E56DC53985198F0DE109286
:101650001D01E0911C01F0E03196E370FF27E85E88
:10166000FE4F80EF8083C5E6D9E19CDF4F9905C02E
:10167000E2DED150D1F7C150B9F7CE2DDD2DF12CDE
:1016800015E500E0BB24B394D7FD36C082E3C82E35
:1016900089DFD1DECA94C110FBCF110F4F9B1F5FB2
:1016A0001F731F3349F4011103C0CE2DDD2D04E05B
:1016B0000F5F083C28F020C0111102C001111CC0AE
:1016C000A8951C161D0624F42A9711F4CFEFDFEF1E
:1016D00080911E01882339F0F39480917B0581115C
:1016E00002C0B0927B0584E18F1570F680911D01D8
:1016F000811102C0F12CC8CF802FCDB7DEB7E9E051
:101700000C94623BCF93E5D9C82F8091490588237B
:1017100001F1813051F4C73041F464E187E0B4D97C
:101720008BE21BDB64E187E0AFD980E49FE183DFDC
:10173000811104C080911E018111F7CFC73041F49F
:1017400080914905813021F460E087E09DD93EDB3E
:10175000C9D9CF91089589E693E00E94D03B382FF4
:101760008AE693E00E94D03B20913E01230F309106
:101770003F01381F209321013093220183E0283E4E
:10178000380720F0C901885E934002C080E090E0F5
:1017900062E370E00E942E3A683008F067E0EEECF9
:1017A000F3E0E60FF11DE60FF11D459155912591EE
:1017B000359162E3681B421B530B649FC001659F18
:1017C000900D1124499662E370E00E942E3A620F58
:1017D000731F70937E0560937D058BE693E00E94F6
:1017E000D03B992787FD909560913E0170913F0114
:1017F000860F971F90933901809338019093790554
:10180000809378050895CF93DF9324E130E0B90108
:101810000E942E3ADC01E0EEF3E0E60FF71FE60F40
:10182000F71FC591D591459155914C1B5D0B4A9F72
:10183000C0014B9F900D5A9F900D1124B9010E9439
:101840002E3A6C0F7D1FCB01DF91CF910895189533
:1018500018950F931F93CF93DF9340912301C0916D
:101860004705D0914805A5E9B5E020E030E0822F9A
:101870002417C0F489015D912F5F3F4F9C85591754
:10188000B1F3B9016B567A4FFB015581591779F3C2
:10189000F801EE0FFF1FEF55FA4F20813181293EED
:1018A000334008F084E1DF91CF911F910F910895AB
:1018B0001092250110922301109273051092590580
:1018C000109224011092450510927A05EEE5F5E09C
:1018D000108211821282EFE7F5E0108A82E0818B9C
:1018E00010920201178616861482158216821782BC
:1018F00081EF838B08955E9889DD80E090E09BCE38
:101900000895A1E0B0E0E7E8FCE00C944B3B17B889
:1019100018B8E82FF0E0E959FD4F949195B9262FBA
:10192000281BE20FF11D27FDFA95E491E92BE4B99C
:101930006983C6DD8C016981862FC2DDAC012091EF
:101940003A0130913B0136952795B90163507109F1
:10195000C8014E966817790770F4255E3F4F02174D
:10196000130748F4CA014E966817790720F481E0FE
:101970004217530708F080E014B82196E4E00C9475
:10198000673BCF9361E080E0BCDFC82F62E080E07E
:10199000B8DFC80F62E081E0B4DF8C0FCF9108950B
:1019A000A3E1B0E0E6EDFCE00C943D3BB82E1092D4
:1019B0002501807FA9F4E5DF833009F0C5C3A6D8EF
:1019C0008EE692E051DA73D88FE3C7D980ED97E0C5
:1019D00032DE8B30C8F49AD885E091E045DAB4C3A2
:1019E00006E910E093D884EC91E03EDACADF833058
:1019F00021F41F5F143010F007C010E07BDA88E29A
:101A000027DD015079F763C052D80E94561E81EC41
:101A100090E02ADA60E083E493E00E94DD3B60E03E
:101A200084E493E00E94DD3B60E082E493E00E9466
:101A3000DD3B60E082E00E9438236C019A83898359
:101A400061E082E00E9438237C019C838B8360E00C
:101A500081E00E9438238C019E838D8323E040E245
:101A60006EEFC6017FDC23E040E26EEFC7017ADC57
:101A700023E044E06EEFC80175DC2AE5C216D1040C
:101A800024F084E190E09A838983698183E493E080
:101A90000E94DD3B8AE5E816F10424F084E190E041
:101AA0009C838B836B8184E493E00E94DD3B0A3549
:101AB000110524F084E190E09E838D836D8182E4A2
:101AC00093E00E94DD3B82E0809349051BDEEB2D15
:101AD000EF70EF87E13011F018E772C101E010E01C
:101AE00068EB862E62ED962E67E4A62EB12C72E08E
:101AF000F72EE8E0EE2EFCE02F2EA4EC4A2EA6E313
:101B00005A2E612C712CC12C302E50E2D52E8CD93E
:101B100087D984E522D9C80148DA44D901301105B2
:101B2000B9F484EF90E0A0D964E080913E019091F7
:101B30003F0123DC0E9457058FEE90E095D98091FC
:101B40007D0590917E0531DA8EEB8093360172C06F
:101B5000F2E03F1242C020913A0130913B01A8E5EA
:101B6000BBE10E94933AA30192010E94773A81E07F
:101B700085B985E084B980E0288B398B4A8B5B8BF3
:101B800093DC288939894A895B89821B930B9A8364
:101B9000898381E184B980E0288B398B4A8B5B8B08
:101BA00083DC288939894A895B89821B930B9C8352
:101BB0008B8384E085B984E184B981E0288B398BFB
:101BC0004A8B5B8B71DC28893989821B930B9E833E
:101BD0008D8389ED90E048D93AC0E3E03E122AC0F7
:101BE000F5B8FAE0F4B980E05FDC20913A01309179
:101BF0003B013695279538872F83821B930B9A8359
:101C0000898322E224B980E04FDC2F813885821B52
:101C1000930B9C838B83E5B888E284B981E044DC34
:101C20002F813885821B930B9E838D838BEC90E0F4
:101C30001BD924C00430110551F480E692E014D978
:101C4000A0DE882309F444C0B2E0CB2E41C00530A9
:101C50001105A1F415B8F4B880E026DC9A838983D5
:101C6000E4B881E021DC9C838B83D4B882E01CDC67
:101C70009E838D838BEE90E0F7D86EC00630110501
:101C800039F5F4B8F5B880E00FDC20913A013091D5
:101C90003B01821B930B9A838983E4B8E5B881E00A
:101CA00003DC20913A0130913B01821B930B9C8312
:101CB0008B83D4B8D5B882E0F7DB20913A0130911C
:101CC0003B01821B930B9E838D8387EE90E042C085
:101CD0000730110509F040C020913A0130913B01D5
:101CE000A8E5BBE10E94933AA50194010E94553AF0
:101CF000F5B8E3E0E4B980E0288B398B4A8B5B8B45
:101D0000D3DB288939894A895B89821B930B9A83A3
:101D10008983E5B824B881E0288B398B4A8B5B8BAB
:101D2000C3DB288939894A895B89821B930B9C8391
:101D30008B83D5B8F0E3F4B982E0288B398B4A8BDA
:101D40005B8BB2DB28893989821B930B9E838D8341
:101D500085EC90E089D803C00130110569F00E943C
:101D6000570589819A8116D91DD88B819C8112D9FA
:101D700019D88D819E810ED917B818B814B815B826
:101D800088EE93E058DC0430110511F08B3028F414
:101D9000C39423E02C1508F0BACE88EE93E04BDC18
:101DA0000F5F1F4F0830110509F0ADCE95CE3CD81E
:101DB00080E692E059D89ED884E64ADB115019F0AB
:101DC000E0DD8111F4CF0E9486058AEB90E04CD8CB
:101DD00023E044E06FEF80913C0190913D01C2DA35
:101DE0000E94570583EB90E03FD823E044E06FEF7B
:101DF0008091430590914405B5DA82E080934905CE
:101E000081DC109225010E9486058FEA90E02CD893
:101E100060E082E00E94FE1A80908705909088051D
:101E2000A0908905B0908A059C868B8661E082E04F
:101E30000E94FE1AC0908705D0908805E090890521
:101E4000F0908A05DE86CD8660E081E00E94FE1A71
:101E500000918705109188051E830D8362E080E064
:101E60000E94FE1A80918705909188059C838B8340
:101E700062E081E00E94FE1A8091870590918805BA
:101E80009A87898761E080E00E94FE1A2091870589
:101E9000309188053A8329838F85813021F08091A4
:101EA0004205823029F42E5F3F4F38872F8304C0CC
:101EB00038872F8310924205C40181D8C6017FD88C
:101EC000B801110F880B990B03E026E444EF61D9A8
:101ED0008E010F5F1F4F6E01EFE0CE0ED11CF80197
:101EE000819191910A97853B9105D8F4EC15FD05F8
:101EF000B9F742E6E42E43E0F42EF80160810E5F6C
:101F00001F4F6E5EC7010E94DD3BFFEFEF1AFF0A15
:101F10000C151D0591F70E9457058BEB91E00E946F
:101F2000340782E080934905EDDB0E949C302F85C9
:101F3000213029F080914205823009F0EDC00E94E5
:101F4000860580E00E94CF0681E691E00E9434077A
:101F500082E00E94CF0684E290E00E94340720E4F1
:101F6000F22E10E03AE0832E912CA12CB12CA0DCB3
:101F70001092250160E082E00E94FE1A0091910516
:101F800060917F0570918005809181059091820517
:101F9000073F44F40F5FA50194010E94553ACA011E
:101FA000B901F6CF0093910560937F05709380058A
:101FB0008093810590938205073F09F094C0DC016E
:101FC000CB0180569109A109B10980399545A10538
:101FD000B10508F088C06091930570919405CB011C
:101FE0008B569F4F8B32914008F07DC01F5F15309C
:101FF00008F47AC089E693E00E94EB3B0E948605D4
:102000008DE190E00E9434078091930590919405B2
:102010000E94CA07A0DB18B881E087B980E284B9C2
:1020200082E04EDA853D9340DCF714B81092390116
:102030001092380182E044DA8C0180917805909109
:102040007905909339018093380182E039DA7C0177
:10205000EE0CFF1C109239011092380182E030DA48
:10206000C0907805D0907905D0923901C09238019E
:10207000800F911F8C010E191F090E94570586E1E0
:1020800090E00E9434078BE693E00E94D03B93E0FF
:10209000B92EB80E9601D8010E94A23A97010F2CD2
:1020A000000C440B550B0E94773A1B2D120F612F29
:1020B0008BE693E00E94DD3B812F012E000C990BF3
:1020C0000E94CA0748DB82E0809349051BDB10921F
:1020D000420582E693E00E94D03B682F85E693E0BC
:1020E0000E94DD3B19C010E00E94570560917F05FA
:1020F00070918005809181059091820504E026E42D
:102100004091910546D80E94E6060E947A0788E22F
:102110009FD9FA94F1102BCF89E18093360180E0AA
:102120000E94BD330E94860585E091E00E9434073D
:102130000E94570583E592E00E9434071092250122
:1021400082E080934905DEDA6396E2E10C94593B24
:102150008091420581110DC082E693E00E94D03B40
:1021600061E0680F85E693E00E94DD3B81E08093AB
:1021700042050895A1E0B0E0E0ECF0E10C94483BAA
:10218000E82FF0E0E659FD4FE491E8B9E7B915B85A
:10219000E62FF0E0E959FD4FE491E4B988E8E82E34
:1021A00083E1F82EDE2EDD0C862F69837DD98C012C
:1021B000D4B869818E159F0510F47801F5CF892B6D
:1021C000E1F00E94630581E491E00E943407D801A8
:1021D00020EA36E841E050E00E94A83A28E937EBCF
:1021E00040E050E00E94553ADA01C90122E041E4A2
:1021F00067EFB8D817B818B814B82196E7E00C9470
:10220000643BCF93DF93DC019C01261B370BE0E09E
:1022100090E0B901690F711D672F7727920F260F84
:10222000371FBA016E0F711D672F7727E40FEB017F
:10223000CC0FDD1F4C0F5D1F6B3E710528F4A217FC
:10224000B30738F7CA0102C080E090E0DF91CF9178
:102250000895ABE1B0E0EFE2F1E10C943D3B8B8FF0
:10226000162F4983A895E62FF0E0E959FD4F2491F8
:102270002987220F298B339634913A83E42FF0E09B
:10228000E959FD4F24903396B490E82FF0E0E959D6
:10229000FD4F0491402F440F4E87339664916A8F0F
:1022A00025B8898582298C8784B967B968B9812F57
:1022B00003D99B878A87998594B9812FFDD84C01D2
:1022C00014B8AFD815B8EC85E4B9812FF5D86A8574
:1022D0007B8554D93C01FA81F7B918B8202F2229FF
:1022E0002B8325B924B98B8DE7D84ED96C0115B84D
:1022F00098D805B98B8DE0D847D97C0104B98B8D6E
:10230000DBD842D9582EA92EB701C60137D9803261
:1023100031E0930730F440E2641641E0740608F4BB
:102320006EC56E0C7F1CEA85FB858E0F9F1F68169D
:10233000790620F4FB86EA86852C9A2C2091590593
:102340008091730590E0820F911D02974CF021302F
:1023500009F055C5909156058091700598134FC5A9
:10236000A22CAA0C3A2C302A2A853B852437310529
:1023700008F47BC1C901880F991F449688169906F5
:1023800008F073C13A8D37B938B989858A2984B97B
:10239000812F8ED87C01898193D86C01A5B8812FBB
:1023A00087D89701295A3D4F18B82817390708F0E0
:1023B000A0C04A8147B934B835B8898179D8883402
:1023C0009F4028F085E08093250182E204C085E0EB
:1023D0008093250184E280932401F0924F05E092DE
:1023E0004E05B601C701D5D8909355058093540585
:1023F0009701A0E1B7E20E94933A20911F0130912A
:10240000200140E050E00E94553A3093510520935E
:10241000500589898A2984B915B88A8D87B988B900
:1024200089814ED87C01812F43D8B701B2D89C0155
:102430009093530580935205909124019F7094309E
:1024400069F5409150055091510560915405709186
:102450005505C901D6DE0097E9F0A4B89A8DEA8146
:102460009E2B97B9812F24D87C0117B89C01A0E13D
:10247000B7E20E94933A209143053091440540E031
:1024800050E00E94553AA901B70180915205909100
:102490005305B7DE90934F0580934E05809124013C
:1024A0008F70843009F4A3C418B88A808B2887B849
:1024B00004B9FB81F5B98B8D0E945C0A6C0164D86C
:1024C0007C01812F0E94600AA0902601B090270114
:1024D000BC01C6015ED89C01D5010E94933A9701C8
:1024E00040E050E00E94553A30934F0520934E054E
:1024F0007EC42A8127B934B835B88B8D0E94580A1A
:102500007C0189810E94600A6C0105B98B8D0E9453
:10251000580A895A9D4F8E159F0508F070C43A8D50
:1025200038B937B989810E94580A813D934028F40F
:1025300085E08093250182E304C085E08093250136
:1025400084E380932401B701C60123D890936F05DB
:1025500080936E05C70118D89C01A0E1B7E20E94E4
:10256000933A209126013091270140E050E00E94EB
:10257000553A30936B0520936A0518B86A8167B99C
:102580008E858A2984B985B98B8D0E94600A7C0169
:1025900089810E94580AB7010E94C90A9C01909340
:1025A0006D0580936C05909124019F70943091F596
:1025B00040916A0550916B0560916E0570916F05B1
:1025C000C9011FDE009711F1A5B8A4B88A8D88B99A
:1025D0008A80882A87B88B8D0E94580A0E94C40A74
:1025E0007C0117B89C01A0E1B7E20E94933A2091C8
:1025F0003C0130913D0140E050E00E94553AA90174
:10260000B70180916C0590916D05FBDD9093690594
:1026100080936805809124018F70843009F4C9C1CA
:102620009A8DB92AB8B8B7B815B8EB81E4B98B8DD3
:102630000E945C0A5C01812F0E94600A7C01C090AC
:102640001F01D0902001BC01C5010E94C90A9C0154
:10265000D6010E94933A970140E050E00E94553A1B
:102660003093690520936805A4C118B8FA81F7B9B9
:1026700005B934B88B8D0E945C0A988B8F870E94B5
:10268000C40A9E838D8389810E94600A98878F8304
:10269000240124E6420E511C8D819E81B40148160E
:1026A0005906D0F40E94C90A7C012091260130917C
:1026B000270140E050E060E871EA83E09CE10E947D
:1026C000553AD7010E94A83AEF81F8856F01E12CB5
:1026D000F12CA701960123C08D819E810E94C90A19
:1026E0007C01FB81F4B98B8D0E945C0A988B8F87EB
:1026F0000E94C40A9E838D8389810E94600A988704
:102700008F83BC01C7010E94C90A9C01A4E6B0E006
:102710000E94933AEF81F8859F0140E050E00E94CB
:10272000553A69017A0114B815B8FA8DF8B9F7B9B4
:1027300081E00E94280A2C8524B9812F0E945C0A1E
:10274000B984BA288F359D4008F439C1B4B8812FB7
:102750000E94580A3C0189810E94600A9B8B8A8BE7
:102760008B8D0E94600A9D8B8C8B8A899B89813D11
:10277000974008F4B1C084E0809325018DE08093F8
:10278000240153018614970410F4A818B908209066
:102790001F0130902001412C512C60E871EA83E048
:1027A0009CE1A20191010E94553AD5010E94A83AEC
:1027B000EA89FB899F0140E050E00E94553A8091F0
:1027C0007305882369F08091640590916505A09157
:1027D0006605B091670582179307A407B50708F54A
:1027E0002093640530936505409366055093670513
:1027F0009301A0E1B7E20E94933AA20191010E94E5
:10280000553A30936B0520936A056A897B898C89D8
:102810009D890E94C90A909369058093680581E0AB
:1028200001C080E0409164055091650560916605A6
:10283000709167054C155D056E057F0538F5C092F2
:102840006405D0926505E0926605F09267056F8198
:1028500078858F8598890E94C90A9093690580932D
:1028600068052D813E81A0E1B7E20E94933A209154
:1028700026013091270140E050E00E94553A205F48
:10288000384D30936B0520936A0503C0882309F403
:1028900094C3C0901F01D0902001E12CF12C940131
:1028A000A0E1B7E20E94933AA70196010E94553A2F
:1028B00030936D0520936C052A853B85A0E1B7E236
:1028C0000E94933AA70196010E94553A30936F05F2
:1028D00020936E0581E071C3F1E68F16910408F034
:1028E0006EC021ED621627E0720608F468C085E02C
:1028F0008093250182E180932401C30186509F4F7C
:10290000EC89FD898E179F0720F483E180932401D1
:1029100016C0E0901F01F0902001B3018C899D89C1
:102920000E94C90A9C01D7010E94933A930140E09A
:1029300050E00E94553A3093690520936805FA816A
:10294000F770AF2E8981806480937C000BE0EE24C9
:10295000E394F12CCC24CA9483E0D82EA89561E0AE
:10296000822D5ED5B4B886B18A21E9F3298524B9D0
:1029700080917A00806480937A0080917A0086FD4D
:10298000FCCF8091780090917900F601E81BF90B5B
:10299000EE0EFF1E015011F7C701880F991F880F17
:1029A000991F69E070E00E942E3A70936F05609362
:1029B0006E05809173058F5F809373058BCFB4B8DC
:1029C000A5B8812F0E945C0A5C0189810E94600A7F
:1029D0009E838D830E94C40A7C014A145B04A8F480
:1029E000B401C5010E94C90A6C0120911F013091F8
:1029F000200140E050E060E871EA83E09CE10E9441
:102A0000553AD6010E94A83A1DC0FC85F4B925B8F4
:102A1000812F0E945C0A5C0189810E94600A9E836A
:102A20008D830E94C40A7C01C5018A149B0410F4A2
:102A300088199909B7010E94C90A9C01A4E6B0E06F
:102A40000E94933A970140E050E00E94553A2901D4
:102A50003A012A8127B918B83B8134B935B98B8D31
:102A60000E945C0A6C0189810E94600A98878F83AA
:102A7000812F0E94600A7C0140E3C41641E1D40624
:102A800008F0BBC105B98B8D0E945C0A9C0104B99A
:102A90008B8D288F398F0E945C0AAC0115B881E0BC
:102AA0004E8B5F8B0E94280A05B98B8D0E945C0AB1
:102AB0004E895F89288D398D4034564008F05BC0BF
:102AC0008133914108F457C0C6018A569F4F281799
:102AD000390708F050C086E08093250180915905A0
:102AE0008F5F80935905B7018F8198850E94C90A2D
:102AF00090934F0580934E05B701C6010E94C90A05
:102B0000909355058093540514B815B8FA81F8B917
:102B100081E00E94280A04B98B8D0E945C0A853FDF
:102B2000910508F05AC22B8124B989810E945C0A60
:102B3000813D934008F451C28B8D0E94600A8D3D07
:102B4000924008F44AC204B98B8D0E945C0A8D3D04
:102B5000924008F442C205B981E00E94280A15B8E3
:102B60008B8D0E945C0A853F910508F036C287E094
:102B70008093250132C28A8187B924B825B881E0C3
:102B80000E94280A34B835B88B8D0E945C0A6C010B
:102B90000E94C40A7C0189810E94600A98878F8301
:102BA0000E94C40A9D878C87812F0E94600A9C83A3
:102BB0008B83EC85FD85EE3FF94008F4B1C084E0DD
:102BC000809325018CE080932401B401C7010E9409
:102BD000C90A6C01209126013091270140E050E0A4
:102BE00060E871EA83E09CE10E94553AD6010E94B8
:102BF000A83AEC85FD859F0140E050E00E94553ADF
:102C000080915905882369F080914A0590914B0580
:102C1000A0914C05B0914D0582179307A407B50705
:102C200028F520934A0530934B0540934C0550936B
:102C30004D056B817C818F8198850E94C90A909394
:102C40004F0580934E059701A0E1B7E20E94933AA9
:102C5000209126013091270140E050E00E94553A32
:102C6000309351052093500581E001C080E04091F0
:102C70004A0550914B0560914C0570914D054415E6
:102C800055056605770528F540924A0550924B0593
:102C900060924C0570924D05B5018D819E810E9418
:102CA000C90A90934F0580934E059501A0E1B7E2C4
:102CB0000E94933A20911F013091200140E050E0A2
:102CC0000E94553A205F384D3093510520935005AE
:102CD00003C0882309F482C19401A0E1B7E20E94F5
:102CE000933A20911F013091200140E050E00E9472
:102CF000553A30935305209352052A853B85A0E130
:102D0000B7E20E94933A209126013091270140E0DA
:102D100050E00E94553A30935505209354055DC10B
:102D2000F1E68F16910408F068C029E4E2162DE060
:102D3000F20608F462C085E08093250182E080936A
:102D400024018B819C8186509F4F8C159D0520F41A
:102D500083E08093240116C06090260170902701C3
:102D60006B817C81C6010E94C90A9C01D3010E942B
:102D7000933A970140E050E00E94553A30934F0556
:102D800020934E053A8D3770D32E898180648093CD
:102D90007C00EBE0CE2EEE24E394F12CA89560E0CD
:102DA000822D3ED334B835B886B18D21E9F704B908
:102DB00080917A00806480937A0080917A0086FD09
:102DC000FCCF8091780090917900E80EF91ECA94AA
:102DD000C110E4CFC701880F991F880F991F69E0C0
:102DE00070E00E942E3A70935505609354058091CF
:102DF00059058F5F80935905F0C017B818B814B8FB
:102E000015B817B847EC841641E0940608F4C5C01D
:102E100018B86E8564B968ECF62EEA808A8DE82AC7
:102E2000E7B881E00E94280A9A8197B98B8D0E94A9
:102E3000600A429718F0FA94F110F2CFEE85E4B9E7
:102E4000E5B961E0822DECD28B8D0E945C0A3C01D9
:102E5000F989F4B915B82A8D27B928B960E0822D0F
:102E6000DFD2812F0E945C0A0E94C40A7C0139854E
:102E700034B9812F0E94600A6C018B8D0E945C0A1C
:102E8000B6010E94C90A6C01812F0E94600A5C0190
:102E90008B8D0E945C0AB5010E94C90A96012C5EC6
:102EA0003F4F2817390708F47BC018B84A8147B943
:102EB00004B905B961E0822DB3D2812F0E94600A66
:102EC0005C018B8D0E945C0AB5010E94C90A5C01FD
:102ED000C816D90650F46E8564B965B98B8D0E9409
:102EE0005C0A9C01730165010FC0898984B915B81A
:102EF0009A8D97B998B960E0822D92D2812F0E9465
:102F00005C0A0E94C40A9C01E8EECE16E3E0DE06ED
:102F100030F4C60164E670E00E942E3A06C0B601A5
:102F200054E0769567955A95E1F7C601875991095E
:102F30008938914190F52C153D0578F5C70143E09E
:102F4000969587954A95E1F7893C910510F088ECB4
:102F500090E08E0D9F1D8C159D05F8F46E157F0574
:102F6000E0F480912501833018F483E080932501FB
:102F700020912301822F90E0FC01EB56FA4F3B8D0C
:102F800030831683880F991FFC01EF55FA4FD182C9
:102F9000C0822F5F2093230103C0612F8B8D2ED021
:102FA00017B818B814B815B88EE20E94AD060E9482
:102FB0007A076B96E2E10C94593B909173059F5F01
:102FC00090937305882361F34981409370051093B2
:102FD00071056B8D60937205E3CF81E09091590587
:102FE0009F5F909359058823D9F289818093560574
:102FF0009B8D9093570510935805D2CFA0E0B0E079
:10300000E4E0F8E10C943D3BA895062F10E0F801B0
:10301000E959FD4FB49033969491482F50E0FA014E
:10302000E959FD4FD4913396C49170917305209165
:10303000590530E0270F311D232B09F0ECC1A8956D
:103040002091290130912A01220F331F220F331FB3
:1030500030933B0120933A01209178053091790516
:10306000220F331F220F331F309339012093380171
:103070002EEB2093360170912301F5E9EF2EF5E058
:10308000FF2EABE9B5E0F701400F511F2E2F2E198F
:10309000271748F411912D9130E0210F311D24178D
:1030A0003507A1F74EC0662E782E18B897B9D4B957
:1030B000D5B9B8E1FB2EC12CD12C862D0E945C0A1B
:1030C000982E892E872D0E94600A8C018C199D09EB
:1030D00097FF03C0919581959109039734F0A895C6
:1030E000FA946801F110E9CF2CC0DD0F15B8D4B9FE
:1030F000872D0E945C0A8135910518F5D5B9872D79
:103100000E945C0A6C01C7B9C8B915B8B4B8A8E187
:10311000AA2E412C512C872D0E945C0A7C01862D01
:103120000E94600AEC018419950997FF03C09195EC
:10313000819591090397CCF0A895AA942E01A1102E
:10314000EACF8091290190912A0190933B018093CD
:103150003A01809178059091790590933901809397
:10316000380189E18093360156C1BB0CB4B8862D75
:103170000E945C0A5C01003C84E4180730F425E8F6
:10318000C21621E0D206E8F605C080EBC8168DE431
:10319000D806B8F6C43A22E0D20708F06CC088E935
:1031A000A816B10470F2C6010E94C40AAC019601CF
:1031B000A8E9B7EB0E94933A9A0140E050E00E94E0
:1031C000553A19012A01C5010E94C40A9C01A8E9C7
:1031D000B7EB0E94933A850120E030E0A901980105
:1031E0000E94553A88E7C8168FE0D80680F4D201CD
:1031F000C101F2E0880F991FAA1FBB1FFA95D1F7F2
:10320000BC01CD01620F731F841F951F14C088E796
:10321000A8168FE0B806B0F4DA01C901E2E0880F21
:10322000991FAA1FBB1FEA95D1F7BC01CD01620D02
:10323000731D841D951D25E030E040E050E00E94A4
:10324000553A0CC0DA01C901820D931DA41DB51DAC
:103250009C01AD015695479537952795A4E6B0E0BA
:103260000E94A83A4B015C012CEA820E2DE0921ECE
:10327000A11CB11C78C0692D782D0617170708F41A
:10328000B8016E01CE15DF0508F467017B016017F8
:10329000710708F478010091260110912701C701F8
:1032A0000E94C90A9C01D8010E94933A4B015C011B
:1032B000C7010E94C40A9C0140E050E0C501B4016E
:1032C0000E94553A49015A018601CC15DD0508F4E2
:1032D0008E01C0911F01D0912001B801C6010E944A
:1032E000C90A9C01DE010E94933A980140E050E037
:1032F0000E94553A88E7E8168FE0F80680F4D50179
:10330000C40162E0880F991FAA1FBB1F6A95D1F7FD
:10331000BC01CD01620F731F841F951F13C00837B6
:103320008FE01807C0F4DA01C90132E0880F991F55
:10333000AA1FBB1F3A95D1F7BC01CD01680D791DBD
:103340008A1D9B1D25E030E040E050E00E94553A88
:1033500049015A0108C0820E931EA41EB51EB694E0
:10336000A7949794879410912501143008F0E9CE22
:103370007A94670C262D30E0E901C25ADA4F888131
:10338000220F331F220F331FF901E255FA4F882312
:10339000D9F1C080D180E280F380A50194012C197D
:1033A0003D094E095F0957FF07C05095409530957C
:1033B00021953F4F4F4F5F4FAAE0B0E00E94A83ADF
:1033C00024E6C20ED11CE11CF11CA7019601280DB8
:1033D000391D4A1D5B1D0E94553A232B242B252B9A
:1033E00009F0AFCE133019F081E08093250182E01F
:1033F000888380917A05E82FF0E0EF59FA4F6082D8
:103400008F5F80937A059DCE80829182A282B38263
:1034100081E0888396CECDB7DEB7E2E10C94593BCC
:10342000CF93C82FC09595B160FF02C0982B01C003
:103430009C2395B994B1892B84B982E00E94280A13
:1034400084B18C2384B985B18C2385B9CF9108953B
:10345000AF92BF92DF92EF92FF920F931F93CF93A1
:10346000DF931AE08FE3D82E09E017B818B815B823
:10347000D4B880E00E945C0A7C0181E00E94600A6E
:10348000EC0182E00E94600A9C0180912501893054
:1034900079F417B814B8F0920601E0920501D093C0
:1034A0000801C093070130930A01209309015CC011
:1034B00084E0E816F10440F4C430D10568F4243007
:1034C000310538F391E00CC091E088EEE81683E016
:1034D000F80618F090E001C091E0C83ED34008F42F
:1034E0009260283E334008F4946097B9C0E0D0E081
:1034F000A89580E00E94540A5C0181E00E94600A65
:103500007C0182E00E94600A24E1A21625E0B20656
:1035100008F4389A24E1E21625E0F20608F4399A14
:10352000843125E0920708F43A9A26E0A216B10405
:1035300030F426E0E216F10410F4069738F02196F4
:10354000C43F81E0D807A1F600932501E12CF12CBE
:10355000EC16FD0631F00E94170A2FEFE21AF20A6C
:10356000F7CF115009F081CFDF91CF911F910F91CB
:10357000FF90EF90DF90BF90AF900895CF92DF92D1
:10358000EF92FF92CF9320917F053091800540917B
:10359000810550918205C09191058AE0C82ED12CF9
:1035A000E12CF12C8C2FCF5F213A96E8390791E07E
:1035B0004907510538F0CA01B901A70196010E94D7
:1035C000553AF0CF80939105A0913A01B0913B011B
:1035D0000E94A83A28E833E140E050E00E94553AC2
:1035E00020937F0530938005409381055093820599
:1035F000CF91FF90EF90DF90CF900895A4E0B0E0DE
:10360000E4E0FBE10C94433B2FEF260F982F990F3A
:10361000980F920F90935B05E82FF0E0E959FD4F6A
:103620009490262F30E0F901E959FD4FF490F9010B
:10363000E659FD4FD49090912501913009F4ABC229
:10364000909123014BE955E005E915E0DA012A2FB5
:10365000241B2917A0F42D9126130EC09D0127507D
:103660003109F9012081281307C0F8012485358527
:103670002C3D354008F48FC20E5F1F4FE8CF162F48
:10368000082F10928C0510928B0581EF8093910585
:1036900010927F051092800510928105109282058C
:1036A000D7DE18B8D7B8F4B8F5B8802F0E94600AF2
:1036B0005C01812F0E94600AA81AB90A14B81092FE
:1036C0005D0510925C0580915C0590915D05843FDD
:1036D000914008F0AEC095B894B80E94110A14B891
:1036E00015B80E94180AA895802F0E94600A7C01D4
:1036F000EA18FB0880915C0590915D058E37910575
:1037000028F02BE4E216F1040CF493C07DE2E716F6
:1037100071E0F70654F480915C0590915D05019687
:1037200090935D0580935C05CECFC70120915C0529
:1037300030915D05232B09F0A1C1F5E1EF16F5E00D
:10374000FF060CF49BC184DE15B887E087B918B872
:10375000F92CFF0CF4B880E480937B0084E580BFF3
:10376000802F806480937C0086E180937A000E94A1
:103770001B0A10925D0510925C0510928000109259
:1037800085001092840087E286BB81E280936F00FF
:1037900081E080937C05F5B89091250180938100AC
:1037A000953009F04BC081E090E0002E01C0880FF9
:1037B0000A94EAF78095877087B9F89483B7817F78
:1037C00083BF80917C05882389F083B7816083BFA4
:1037D0007894889583B78E7F83BFF894A89580915D
:1037E0005C0590915D058034964059F7789410926D
:1037F0008100E0908600F090870010926F0086E9CB
:1038000080937A0014B815B8802F0E94600A209126
:103810003E0130913F01821B930B0C9690939405CF
:103820008093930580915C0590915D058032934073
:1038300038F017B818B814B815B8ADC1D7B8BDCF9F
:1038400080915C0590915D0590938A058093890530
:10385000F0928805E092870584EF8093910580912E
:103860005C0590915D0582349105C8F060918705F3
:10387000709188058091890590918A0524E630E051
:1038800040E050E00E94553A209387053093880528
:103890004093890550938A0586EF80939105A09106
:1038A0007D05B0917E052091870530918805409176
:1038B000890550918A050E94A83A20E233E040E051
:1038C00050E00E94553A2093870530938805409335
:1038D000890550938A0520937F0530938005409396
:1038E0008105509382054ADE80919105843F09F05D
:1038F00070C0C0907F05D0908005E0908105F09069
:10390000820520EAC2162FE0D206E104F104C0F4D9
:10391000A70196012C543F4F4F4F5F4F60EA7FE065
:1039200080E090E00E94553AC20ED31EE41EF51EC0
:10393000C0927F05D0928005E0928105F0928205C9
:10394000C0907F05D0908005E0908105F0908205C1
:10395000C114D10471E0E706F10428F4D092BF0548
:10396000C092BE0506C081E090E09093BF058093B1
:10397000BE0580915B0590E08E599C4F0E94D03B24
:1039800090E0A0E0B0E08C159D05AE05BF0568F4A1
:10399000C81AD90AEA0AFB0AC0927F05D0928005AC
:1039A000E0928105F092820514C0E4E1CE0ED11CB4
:1039B000E11CF11CC816D906EA06FB0610F40E94A9
:1039C000A81010927F051092800510928105109228
:1039D000820594B880917F0590918005A091810522
:1039E000B09182054997A105B10508F422CFC12CF9
:1039F000D12C80912301882329F0809125018530E5
:103A000009F017CF88E0809325018091910590916E
:103A100092059817C4F089130CCF80907F05909081
:103A20008005A0908105B09082054091830550915A
:103A300084056091850570918605481559056A05CC
:103A40007B0508F0F6CE40917F055091800560918E
:103A5000810570918205409383055093840560939E
:103A600085057093860580939205D0928E05C0924D
:103A70008D0510938F0500939005DBCEC12CD12CC2
:103A800020915C0530915D052C153D0560F00E948C
:103A9000120A802F0E94600A8A199B09A8952FEFAD
:103AA000C21AD20AEDCF5701A81AB90A1A141B0478
:103AB0009CF479ECA716B1040CF0BBCE28EE33E0F1
:103AC000D5010E94A23A97010F2C000C440B550B14
:103AD0000E94553A690102C0C12CD12C80915C052D
:103AE00090915D050196A0E0B0E0809387059093EA
:103AF0008805A0938905B0938A05C7018A0D9B1D8F
:103B000096D0209187053091880540918905509184
:103B10008A05DC010E94A83A6093870570938805A6
:103B20008093890590938A0560937F057093800543
:103B3000809381059093820587EF809391051EDD28
:103B400020917F053091800540918105509182053B
:103B500085E493E029833A834B835C830E94D03BC6
:103B6000A8EEB3E0A81BB10987FDB39529813A817E
:103B70004B815C810E94B23A24E630E040E050E0A4
:103B80000E94553A20937F0530938005409381052C
:103B9000509382052ECF2496ECE00C945F3B1F924D
:103BA0000F920FB60F9211248F939F93B59904C073
:103BB00080917C05811109C0B59B10C08091860061
:103BC000909187008A3F910548F480915C0590911F
:103BD0005D05019690935D0580935C059F918F91A3
:103BE0000F900FBE0F901F9018951F920F920FB657
:103BF0000F9211248F939F9310927C05B09B10C05D
:103C000080918600909187008A3F910548F48091C9
:103C10005C0590915D05019690935D0580935C0530
:103C20009F918F910F900FBE0F901F9018950F923C
:103C300021E08C32920710F48CE291E08C5291409A
:103C400069E170E00E942E3A99E16B3210F0982FF2
:103C50006BE2981BE7EEF2E0E60FF11DE60FF11DB7
:103C60009F93CF010E94D03B482F3196CF010E94F5
:103C7000D03B582F3196CF010E94D03B282F319650
:103C8000CF010E94D03B382F6F91421B530B649F92
:103C9000C001659F900D11240C9669E170E00E94AF
:103CA0002E3A620F731FCB010F900895A0E0B0E091
:103CB000ECE5FEE10C94433B88E893E190932A0104
:103CC0008093290190933B0180933A018EEB80937E
:103CD000360118B880E187B90E94200A17B884E03D
:103CE0000E945C0AAC018B5C9840833F9140A0F439
:103CF00081E08093450520913A0130913B01AFEB83
:103D0000B9E00E94933A9A0140E050E00E94553A8F
:103D100030932A01209329018091290190912A0151
:103D200090933B0180933A018EE00E94600A8EE0FE
:103D30000E945C0A90933F0180933E010E94AB0B6E
:103D400087DB18B8C1E0C7B985E185B9C4B980E09F
:103D50000E945C0A8C0182E0D82ED7B8D4E0D4B996
:103D600081E00E945C0A080F191FD7B990E1C92EA3
:103D7000C4B882E00E945C0A080F191F15B8C8B9C0
:103D8000C7B9C4B980E00E945C0A0E94C40A7C01E1
:103D9000D8B8D7B8D4B981E00E945C0A0E94C40A9E
:103DA000E80EF91ED8B9D7B9C4B882E00E945C0AFF
:103DB0000E94C40AE701C80FD91F17B818B814B871
:103DC00040913A0150913B016A01CC0CDD1CC40EBC
:103DD000D51EC01AD10ACC1ADD0AE12CF12C9801AB
:103DE000A0E9BAE10E94933AA70196010E94553AD0
:103DF00049015A0130934405209343059E01A0E9EF
:103E0000BAE10E94933AA70196010E94553A309375
:103E10003D0120933C012057354E309327012093DC
:103E2000260180E7881A85EE980A909220018092F8
:103E30001F0189E180933601CDB7DEB7ECE00C9429
:103E40005F3B0F931F93CF93DF93C82F162FD42F71
:103E50000E94CF0688E191E00E9434070E947A0711
:103E6000CED1612F8C2F0E943D32C1E08091C205DE
:103E70009091C305A091C405B091C505892B8A2BEB
:103E80008B2B09F0C0E08091020187FD02C0C111B7
:103E900004C084E191E00E943407812F0E94CF0684
:103EA000C11132C00E94D206809161050E94400873
:103EB000DD2309F47CC080914605823128F490E02E
:103EC0008A599C4F0E94340780E00E940D07C1115F
:103ED00020C06091C2057091C3058091C405909186
:103EE000C50503E028E447EF0E94C90887E291E096
:103EF0000E9434078CE793E00E94D83B23E046E41D
:103F000064EF0E94B2091FC0D111D5CF80E00E949A
:103F10000D07809161050E944008809102018E3F4B
:103F200094F485E491E00E94340760910B01709154
:103F30000C0180910D0190910E0103E028E4409165
:103F400002010E94C9088091BA059091BB05A09119
:103F5000BC05B091BD05892B8A2B8B2BF1F080E03D
:103F60000E940D076091BA057091BB058091BC0558
:103F70009091BD0504E028E440E00E94C90882E277
:103F800091E00E94340723E040E26FEF8091C0058A
:103F90009091C1050E94B20907C080E00E94EC0622
:103FA00080914905811107C00E94E60604C080E0A7
:103FB0000E940D078ECFDF91CF911F910F91089531
:103FC00084E890E00E946D2B0E94580C60E082E033
:103FD00015D862E080E012D80E94510580917A05E0
:103FE000882329F041E062E080E02BDF12C084E802
:103FF00090E00E94340780E793E00E9434070E941B
:1040000057058FE30E94AD0680E00E94EC060E94F7
:10401000E60688EE93E00E941B0B811104C080919C
:104020001E01843088F20C9486050895EF92FF9269
:104030000F93CF93DF93D82F0E94510580918F0566
:104040000E94CF0681E691E00E943407B9D46091C6
:104050008F05809190050CD390938C0580938B05F0
:10406000C1E08A3F9F4F08F0C0E0E0908D05F090DE
:104070008E05CC2321F089E191E00E9434078091E4
:1040800090050E94CF06DD2359F09091460582E10C
:10409000891B0E94D50689E790E00E94340702C080
:1040A0000E94E6060E945705609183057091840581
:1040B000809185059091860504E026E44091920563
:1040C0000E94C908CC2369F080E591E00E94340782
:1040D00022E044E06EEF80918B0590918C050E9468
:1040E000B2090E94E6060E945D05EF2869F089E4A6
:1040F00091E00E94340722E045E26FEF80918D0548
:1041000090918E050E94B2090E94E606DF91CF9140
:104110000F91FF90EF9008951F93CF93DF93C8E026
:10412000D2EF12E10E94580C60E082E067DAC0939F
:10413000250180919105843FE1F480917F05909164
:104140008005A0918105B091820584369105A10575
:10415000B10578F440E060E082E00E94952F609322
:104160007F05709380058093810590938205D0939D
:10417000910580919105823FACF0809392058091EA
:104180007F0590918005A0918105B0918205809373
:10419000830590938405A0938505B093860581E0FF
:1041A00045DF1CC00E9451058DE790E00E94340756
:1041B00080914605912F981B892F0E94D50689E78B
:1041C00090E00E9434070E9457058FE30E94AD06DD
:1041D0000E94E6060E945D050E94E60688EE93E0D6
:1041E0000E941B0B811105C080911E01843008F4D0
:1041F00099CF0E948605DF91CF911F910895A8E184
:10420000B0E0E5E0F1E20C943D3B82E080930201F6
:1042100080912501813009F027C280917A05813093
:1042200009F022C220916105298B34E0239FF0011F
:104230001124E255FA4F408051806280738049E03A
:10424000441642E554066104710408F00DC25B8A0D
:104250004A8A10E08989123028F40E943608B82E64
:10426000A92E03C00E9436085C01EA2DF0E0E65951
:10427000FD4F24918B2D90E0FC01E959FD4FE49115
:1042800015B818B850EF4516510461047104B0F424
:1042900010FD14C020901F013090200130E9231A36
:1042A0003AE1330A41E050E00B2C02C0440F551FA5
:1042B0000A94E2F7CA01822B87B906C0E4B927B98C
:1042C00020901F013090200104E18B2D288F0E9447
:1042D000580A4C018A2D0E94600A288D54E08516E8
:1042E000910410F4049710F0015079F780E4809362
:1042F0007B0094E590BF8B2D806480937C0036E139
:1043000030937A00E12CF12C1092800010928500FD
:104310001092840087E286BB288F0E941B0A012F1F
:104320000170288D10FD05C081E88093810028B9B7
:1043300008C028B90E94240A80E286BB81E88093E5
:10434000810086B385FD0CC080FFFBCF41E046BBFA
:10435000A89597012F5F3F4F79012035310589F7E7
:1043600018B81092810090E296BB2091860030919F
:10437000870069014091840050918500241735071A
:1043800038F480FF05C051E056BB8FEFE81AF80AF9
:1043900086E980937A0024E18B2D288F0E94580AA9
:1043A0004C018A2D0E94600A288D34E08316910406
:1043B00010F4049710F0215079F780904305909005
:1043C00044054A895B89840E951E820C931C2091BA
:1043D00021013091220150E925165AE13506B0F449
:1043E00081EEC816D104E104F10438F4C60165E099
:1043F00070E00E942E3A645101C069E128523109EF
:10440000261B310967FD339586E009C0C40160EBC6
:1044100076E30E942E3A87E0860F285D3F4F90E0BA
:10442000A0E0B0E08C159D05AE05BF0528F4C81AC4
:10443000D90AEA0AFB0A03C0C12CD12C7601002359
:1044400029F092E2C90ED11CE11CF11C40E5E416F2
:10445000F10418F0C12CD12C76015BE0C516D10413
:10446000E104F10428F081E0C81AD108E108F1085C
:1044700040913A0150913B01A12CB12CA8EEB3E040
:104480000E94933A6C8B7D8B8E8B9F8B9101DA010E
:104490000E94933AA50194010E94553A442755275A
:1044A0006C897D898E899F890E94553AC9010E9435
:1044B000030CFC01A5019401C701B6010E94133A47
:1044C0004B015C01CF01A0E0B0E073E0880F991FC1
:1044D000AA1FBB1F7A95D1F7BC01CD016B5F7F4F3F
:1044E0008F4F9F4F2AE030E040E050E00E94553A65
:1044F000C501B4010E94553AE12FF0E0A1E0B0E01F
:10450000AC0FBD1F94E0199FA00DB11D11242D9378
:104510003D934D935C931397011116C08CE0C81620
:10452000D104E104F10480F03196EE0FFF1FEE0F8D
:10453000FF1F81E090E08C0F9D1FE80FF91F208383
:104540003183428353831F5FA8951F5F143008F4A3
:1045500081CE18B884E00E94280A91E00D811E8166
:104560002F81388549815A816B817C8140175107A1
:104570006207730708F090E00D851E852F85388946
:1045800049855A856B857C854017510762077307FB
:1045900010F483E001C082E0E92FF0E0EE0FFF1F8E
:1045A000EE0FFF1F21E030E02C0F3D1FE20FF31F45
:1045B000D90134E0839FA00DB11D11240D911D91EF
:1045C0002D913C91408151816281738104171507BF
:1045D0002607370708F0892FE1E0F0E0EC0FFD1F18
:1045E00044E0849FE00DF11D1124408151816281DE
:1045F000738140930B0150930C0160930D017093F4
:104600000E0180FD0AC080EF481651046104710458
:1046100020F48BEF8093020117C08CEF809302018E
:10462000CB01BA016B5F7F4F8F4F9F4F2AE030E085
:1046300040E050E00E94553A20930B0130930C016A
:1046400040930D0150930E0180910B0190910C014C
:10465000A0910D01B0910E01892B8A2B8B2B11F4A7
:104660001092020117B814B86896E2E10C94593B15
:10467000AEE1B0E0EEE3F3E20C943D3B662EB82EE3
:10468000860F898320912501283059F520918305D3
:1046900030918405409185055091860557FD15C0E0
:1046A0001091920509C0CA01B9012AE0312D412DAE
:1046B000512D0E94553A1F5F173FACF391F42431FE
:1046C00060E036074105510518F48FEF9FEF45C1B3
:1046D000173F39F480E028178DE738074105410579
:1046E00010F020E03DE72C8B3D8B26EDA22EEAE674
:1046F000F2E0E60DF11D859180608E87EAE6F2E03A
:10470000EB0DF11D859180608F87E7E6F2E0E60D05
:10471000F11D7590E7E6F2E0EB0DF11DC59090EC10
:10472000692AB92A81E0E82EF12C012D112D8E8302
:104730001F82188619861A861B861C861D86188E6F
:10474000198E1B8E1A8E0E94281A80E088B96092FA
:104750007C000E941C0A3F8537B975B874B852E0D6
:104760005A95F1F70000000014B815B8DD243E8515
:1047700037B975B874B860927C00A895A0927A0099
:1047800080917A0086FDFCCF2090780030907900EF
:10479000B0927C004C2DE5D02091780030917900CA
:1047A000288B398B3F8537B9C5B8C4B8A895B09266
:1047B0007C00A0927A0080917A0086FDFCCF609107
:1047C00078007091790060927C00472DCAD04091AA
:1047D00078005091790014B8CB01820D931DE80E3A
:1047E000F91E011D111DEA82FB820C831D8388893D
:1047F0009989840F951F2E813F8168857985280FBF
:10480000391F611D711D2E833F836887798722E3DD
:104810002417150650F075B874B80E94260A14B80B
:1048200015B8888D8395888F07C0483E73E0570779
:1048300018F08A8D83958A8F888999892817190697
:1048400060F03E8537B9C5B8C4B80E94260A14B8CE
:1048500015B8898D8395898F07C0883E73E09707C7
:1048600018F08B8D83958B8FD3945D2D5F3F49F02E
:104870005F3731F45C2D550FC50E572D550F750E52
:1048800076CF4090430550904405440C551C92014E
:10489000E4E0240D351DEA95E1F72901570168018F
:1048A0006E807F8088849984209125012830C1F40E
:1048B0006C897D89812D912D65507040804090409C
:1048C0009B01AC010E94133A9B01AC0160E779E7C0
:1048D00086E190E00E94553A621A730A840A950AAA
:1048E000A614B704C804D90428F46A187B088C08F5
:1048F0009D0803C0662477244301B20180E090E064
:104900009301A4010E94133A9501A6010E94553A11
:1049100081E493E07981870F911D0E94D03B682E3E
:10492000C90160E170E00E942E3A260F371FC901CD
:104930006816190618F4861991090FC08C5E9F4FEE
:104940008615910540F48C899D89843981E1980709
:1049500010F00E94A810812D912D6E96E2E10C942A
:10496000593B109281001092800010926F001092BB
:104970008B0010928A0057E056BB5FEF5093850082
:104980005093840055E050937B0056EB50937A008F
:1049900051E05093810058E25A95F1F7000045B973
:1049A00044B955E05A95F1F7000014B815B81092C3
:1049B000810080917A0084FFFCCF80937A00089573
:1049C0008F929F92AF92BF92EF92FF920F931F939D
:1049D000CF93DF9300D000D0CDB7DEB780918D05A7
:1049E00090918E05892B09F0B6C0E0918F05F0E01B
:1049F000E659FD4F1491E0919005F0E0E959FD4F23
:104A0000F4900E94281A18B815B817B9F4B8809114
:104A100090050E94600A8C01209192058CE0820F23
:104A2000843008F098C08091830590918405A0910E
:104A30008505B09186053FE0E32EE20E4AE0842E24
:104A4000912CA12CB12CBC01CD016B5F7F4F8F4FFE
:104A50009F4FA50194010E94553ADA01C901E394E0
:104A600067E0E612F0CF293863E1360741055105CA
:104A700008F071C02530310508F46DC0F5B8F4B800
:104A8000E12CF12CE216F30670F429833A834B8370
:104A90005C830E94220A82E0E80EF11C5C814B815B
:104AA0003A812981EFCF14B815B8A89585E0809395
:104AB00036018091900529833A834B835C830E9461
:104AC000600A29813A814B815C810817190720F41B
:104AD0007C01E01AF10A02C0E12CF12CA12CB12CCE
:104AE000A216B30670F429833A834B835C830E9439
:104AF000220A6FEFA61AB60A5C814B813A8129819E
:104B0000EFCF809190050E94600A29E12093360141
:104B1000A8950817190718F4801B910B02C080E0B4
:104B200090E08E159F0588F49701281B390B69F0DA
:104B3000A4EFB1E00E94933A970140E050E00E9458
:104B4000553A30938E0520938D050E94281A17B888
:104B500018B814B815B80F900F900F900F90DF9100
:104B6000CF911F910F91FF90EF90BF90AF909F90CA
:104B70008F900895A5E0B0E0E0ECF5E20C943D3BA9
:104B800084E392E0AAD520EF2B8354980E94170A61
:104B900014BC16BC10921201109213011092140151
:104BA0001092150131E035BB30936E0010928000F9
:104BB00083E19AE790938B0080938A00E1E0F0E034
:104BC000F0938900E0938800109285001092840091
:104BD00083B5816083BDF6E0F6BBF0936F007894F7
:104BE00024E02093810012E31A820E94100AA89503
:104BF0004F9902C031E03A8385B5811127C015BCB9
:104C000086B5809312010E945D050E94E6060E940F
:104C100063050E94E6060E94140786E60E94AD0620
:104C20000E94180760911201709113018091140184
:104C30009091150147E00E94C70954988091810026
:104C4000882339F08FE30E94AD0603C0115069F646
:104C5000D6CF1092810010926F00209112013091F6
:104C600013014091140150911501DA01C901019716
:104C7000A109B109813F9048A105B10508F0FCC028
:104C8000AAE0B0E00E94A83ADC01CB010896A11D81
:104C9000B11D23E0B695A795979587952A95D1F7ED
:104CA000BC01660F771F7093750560937405549867
:104CB0000E94170A16BC1092120110921301109252
:104CC00014011092150181E085BB80936E00109253
:104CD00077051092760594E09BBB80916800846014
:104CE00080936800789480916D00806180936D005E
:104CF00019820E94100AA8954F9902C0E1E0EA8348
:104D000080916D0084FF05C0F981FF5FF983FA3F50
:104D100081F715BC80916D008F7E80936D0080912E
:104D200068008B7F8093680086B5809312010E9493
:104D30005D0584E50E94AD060E941807609112018E
:104D400070911301809114019091150120917405C7
:104D5000309175053D832C8328EA31E640E050E030
:104D60000E94B83AEC81FD815F01C12CD12CE12C6D
:104D7000F12C00E010E00E94E13A49013A011B01E8
:104D80002C012C813D812038310530F007E023E7EC
:104D900045EFB401C30116C084E6A82EB12CC12C86
:104DA000D12CE12CF12C00E010E09401C2010E9412
:104DB000E13AF22FE42F07E023E747EF6F2F732F3D
:104DC0008E2F952F0E94C90839813A3F21F48FE335
:104DD0000E94AD0651C09401A301B101C201263E5B
:104DE000354B41055105610571058105910509F0B6
:104DF00008F442C00E94630586E60E94AD060E9448
:104E000018079401A301B101C201540163017101AA
:104E1000820121153A4C4A495B43610571058105C0
:104E2000910589F080F020E030E04AE85DE568E730
:104E300075E483E691E00E94E13AF22FE42F07E067
:104E400028E44AEF0FC020E030E44AE750E163EF86
:104E50007AE580E090E00E94E13AF22FE42F07E04B
:104E600028E44DEF6F2F732F8E2F952F0E94C908C6
:104E70008AE70E94AD06549810926E0080ED97E08C
:104E80000E941B0B2A81820F49F480911E018330FE
:104E900028F43B8131503B83311177CE2596E2E1F6
:104EA0000C94593B1F920F920FB60F9211248F93BF
:104EB0009F93AF93BF9378948091120190911301C7
:104EC000A0911401B09115019F5FAF4FBF4F809328
:104ED000120190931301A0931401B0931501BF9197
:104EE000AF919F918F910F900FBE0F901F901895CB
:104EF0001F920F920FB60F9211248F9386E085BDFB
:104F00008F910F900FBE0F901F9018951F920F92C8
:104F10000FB60F921124A8951092810015BC0F9026
:104F20000FBE0F901F9018951F920F920FB60F9201
:104F300011242F933F938F939F93809176059091A7
:104F40007705892B11F481E085BD2091760530919C
:104F5000770580917405909175052817390730F011
:104F600015BC80916D008F7E80936D0080917605D9
:104F700090917705019690937705809376059F91A0
:104F80008F913F912F910F900FBE0F901F9018950A
:104F90008C3008F08C50811103C082E492E03BC059
:104FA000813019F484E392E036C0823019F48DE048
:104FB00092E031C0833019F482E092E02CC084305A
:104FC00019F48FE890E027C0853019F484E890E068
:104FD00022C0863019F48DE790E01DC0883019F4A6
:104FE00081EF91E018C0873019F483EE91E013C08F
:104FF000893019F481ED91E00EC08A3019F48BE20A
:1050000092E009C08B3019F480E292E004C082344F
:1050100021F489E192E00E9434070C94E606089599
:105020000F938FE890E059D31092250160E082E061
:1050300070D3809125018830C1F50E94570583E423
:105040000E94AD060E941807609183057091840547
:10505000809185059091860503E026E440919205B4
:105060000E94C9080E94E60660918F058091900514
:10507000FFDA90938C0580938B050E945D0581E596
:1050800091E00E94340780918B0590918C058A3FB6
:105090002FEF920730F422E044E06EEF0E94B20955
:1050A00008C08FE30E94AD0604C00E9414070E944E
:1050B0005D050E94E60688EE93E00E941B0B8111BD
:1050C00005C080911E01843008F4AECF0F91089581
:1050D000CF938BE292E001D3C0E00E9457058BE3AF
:1050E00091E00E94340783E00E945C0A63E00E9422
:1050F000BD090E94E60688EE93E00E941B0B8F35E7
:1051000010F0CF5F02C0882339F3C53030F3CF9160
:105110000895A3E0B0E0EFE8F8E20C943D3B8DE0A9
:1051200092E0DBD280E18093800010926F0081E0FA
:1051300090E0909389008093880010928B001092E9
:105140008A0083E086BB1092820088E08093810011
:1051500015B881E184B918B881E087B9229A89E04D
:10516000809381002AE0298331E03A83812C912CBD
:105170005401839441E14B83EB81E23128F1C70173
:10518000B601A50194010E94553A6B017C018A8108
:1051900069810E94223AA92FB0E0A50194010E94E2
:1051A000A83AC60ED71EE81EF91E1AC05B815631FA
:1051B00008F4EAC05AE0598381E08A83812C912C5B
:1051C0005401839491E19B838A8169810E94223AF0
:1051D000A92FB0E0A50194010E94A83A6B017C01BF
:1051E0000E945705FA812981F21303C03B813231B5
:1051F00038F44B81212C312C463138F082E506C041
:1052000022242394312C8CE301C08EE30E94AD064E
:105210000E94D2064B81C701B6010E94C709C7018F
:10522000B6017E5E85489F4FA7019601220F331F6E
:10523000441F551F0E94553ACA014F3F510539F08E
:1052400030F08DE08093810080E094E01FC0403416
:10525000510530F09CE09093810080E091E016C011
:105260004830510530F0EBE0E093810080E490E0BD
:105270000DC0892B31F0FAE0F093810088E090E0D6
:1052800005C089E08093810081E090E02C01612CD1
:10529000712CCA01B901A30192010E94553A215013
:1052A0003109309389002093880080918800909183
:1052B0008900892B31F4E1E0F0E0F0938900E0937C
:1052C00088000E94E6060E945D0586E60E94AD0603
:1052D0000E94D206009188001091890060E079E078
:1052E0008DE390E0A30192010E94553AA4E6B0E05C
:1052F0000E94A83A98012F5F3F4F40E050E00E9483
:10530000553A29013A01A4E6B0E0A70196010E94AE
:10531000A83AA3019201261B370B480B590BCA016F
:10532000B90105E228E44EEF0E94C9088AE70E940D
:10533000AD060E94E60680ED97E00E941B0B883CBC
:1053400008F051C0813580F1232809F42FCF3B812B
:1053500031503B83C501B4012AE030E040E050E029
:105360000E94553A49015A01C701B6010E94553AB7
:10537000CA01B9012AE030E040E050E00E94553A0D
:105380006A834AE04983F8CE5F5F5B83563111F44C
:1053900085E18983AAE0B0E0A50194010E94A83AC2
:1053A0004B015C011A82E8CE8B3018F09A819F5F26
:1053B0009A8380911E018B30B0F480911D0187FD8E
:1053C00003C0EA818E0F05C08F5FF9818F0F2A819C
:1053D000820F90E03981632F70E06F5F7F4F0E94F2
:1053E000423A8A83C9CE109281001092800017B889
:1053F00014B822982396E2E10C94593BA4E0B0E063
:10540000E4E0FAE20C94433B82E092E066D183E26E
:105410008093800010926F008FEF90E090938B004C
:1054200080938A0083E086BB1092820015B881E1E8
:1054300084B918B881E087B9229A81E090E090930E
:1054400089008093880089E08093810000E092E3E6
:1054500010E084E6C82ED12CE12CF12C88248A940B
:1054600023E0922EA12CB12C9017E1F1943618F084
:105470000CE9090F01C0092F202F30E0AFEFB3E096
:105480000E94933A6E5C7F4F8F4F9F4FA70196010A
:105490000E94553A30938B0020938A0029833A83E7
:1054A0004B835C830E945705A8EEB3E029813A81C3
:1054B0004B815C810E94A83A61507E4F8F4F9F4F75
:1054C000A50194010E94553ADA01C90125E045E29F
:1054D0006FEF0E94B2090E94E606193218F08CE3C1
:1054E0000E94280A80E496E00E941B0B182F833844
:1054F00090F480911E018B3070F490911D0197FD06
:105500009C59900F133310F0965FAECF112309F41E
:10551000ABCF9F5FA9CF17B8109281001092800087
:1055200014B822982496ECE00C945F3B0F931F93E1
:10553000CF9383EE91E0D1D085E493E00E94D03BFD
:10554000C82F0E9457050C2F0C2E000C110BC7FF03
:105550000BC08DE20E94AD0623E045E26FEF882785
:105560009927801B910B04C023E045E26FEFC8012F
:105570000E94B2090E94E60680E496E00E941B0B9E
:105580008238B0F490911E019B3090F490911D01EF
:10559000C90F882329F0893210F0CF5F01C0C150B4
:1055A000C13514F0C556CDCFCC3E5CF6CB59C9CF32
:1055B0006C2F85E493E00E94DD3BCF911F910F910A
:1055C0000895813019F480E0D5CA0895823011F42D
:1055D000A0CD0895833011F411CF0895843011F4D3
:1055E0001FCD0895853019F40C94E01F089586307E
:1055F00029F40E9486050C948C200895883011F4BB
:10560000C6C10895873011F491CF0895893021F4EF
:1056100081E10C94D00C08958A3011F459CD08958D
:105620008B3011F405C30895823411F40C947B0C73
:1056300008950F931F93CF93DF938DE492E04DD0A5
:10564000C0E0DAE0DC0F10E001E0010F60E0802F45
:105650000E944405123021F48EE30E94AD0602C080
:105660000E94D206DC3018F084EF8D0F01C08D2F20
:105670008FDC102FDF5F053039F780E090E00E946B
:105680001B0B823330F490917B05992371F08823B2
:1056900061F0CC23E1F08C2F94DF10921E01109268
:1056A0001D018DE492E019D080E090911E019A30A6
:1056B00070F490911D0197FD945FC90F811105C091
:1056C000CC3008F4BECFCC50BCCFCF5FF9CF80E058
:1056D000DF91CF911F910F910895A2E0B0E0E3E731
:1056E000FBE20C944C3B89839A830E948605898156
:1056F0009A810E94340714E682E00E94280A4F999A
:1057000002C01150C9F70E9457052296E3E00C949D
:10571000683BA4E0B0E0EFE8FBE20C94443B182FB8
:10572000062F262F30E0F901E659FD4FF490E82FBF
:10573000F0E0E959FD4FA490F901E959FD4FE490DB
:1057400010928C0510928B0510927F0510928005A7
:10575000109281051092820587EF809391050E9437
:10576000281A18B8F7B8E4B8E5B8812F0E94600A83
:105770007C01802F0E94600AE81AF90A14B810927E
:105780005D0510925C0520E030E09CE2C92EDD242E
:10579000D3944AE0942E54E6B52E80915C05909106
:1057A0005D05843D904308F071C0A5B880915C050B
:1057B00090915D05892B89F0F601E21BF30B609156
:1057C0005C0570915D05929EC001939E900D112421
:1057D0000E942E3AE617F70750F4A4B80E941B0A5D
:1057E00014B880915C0590915D05019628C0809168
:1057F0005C0590915D050B97C8F060915C05709118
:105800005D05B29EC001B39E900D11240E942E3AF8
:105810006E177F0758F4A4B80E94100A14B880913C
:105820005C0590915D058C599F4F09C0A4B80E94FA
:10583000160A14B880915C0590915D050A969093C4
:105840005D0580935C0515B80E941D0AA895812FFF
:105850000E94600A9C012E193F0980915C0590917D
:105860005D058B31964018F0253231057CF02D32E4
:1058700081E038070CF491CF80915C0590915D0533
:10588000019761F4253185E0380744F017B818B85E
:1058900014B815B82496EBE00C94603B40915C057D
:1058A00050915D05440F551F60E070E040938705FF
:1058B000509388056093890570938A05C90168E251
:1058C00070E00E94423AC901860F971F0E94171E7E
:1058D00020918705309188054091890550918A056E
:1058E000DC010E94A83A6093870570938805809335
:1058F000890590938A0560937F0570938005809356
:105900008105909382050E94BE1A20917F053091F7
:105910008005409181055091820585E493E02983BB
:105920003A834B835C830E94D03BA8EEB3E0A81B74
:10593000B10987FDB39529813A814B815C810E9431
:10594000B23A20E137E240E050E00E94553A20931D
:105950007F0530938005409381055093820588E050
:10596000809325012093830530938405409385051A
:1059700050938605809191058093920510928E0533
:1059800010928D0500938F05109390057FCFA8E1AD
:10599000B0E0EDECFCE20C94453B81EF91E09DDE44
:1059A0000E9457058BED91E00E9434070E947A0710
:1059B000DE015196CE010996AE014F5F5F4F9E0109
:1059C000275E3F4F042FD52E1D921D92FC01119290
:1059D0001192CF01FA0111921192AF01A217B307F0
:1059E00099F785E185B984B9E12CF12C10E0CC243C
:1059F000C39434E0B32E42E0A42E18B8C7B80E9476
:105A0000250A96B191FB882780F992FD8E5FE114FB
:105A1000F10471F0811771F0E02FFD2DE80FF11DF9
:105A2000E80FF11D8085918501969187808703C0DD
:105A3000182F01C014E0A7B80E94250A96B1892F3B
:105A4000817092FD8E5F143059F4E02FFD2DE80F28
:105A5000F11DE80FF11D808991890196918B808B52
:105A6000B7B80E94250A96B1892F817091FD8E5F8B
:105A7000143059F4E02FFD2DE80FF11DE80FF11D52
:105A800080819181019691838083A8950E94170A55
:105A90004F9904C015B814B817B8C6C049895A89B7
:105AA0004531510508F18B899C8985319105E0F0DC
:105AB0006D897E8965317105B8F02F89388D253162
:105AC000310590F0860F971F01E08417950708F0C5
:105AD00000E0FF24F3948217930708F0F12CCC2404
